:020000040800F2
:10000000C821002039020008E33400081B30000832
:10001000E134000883150008F53B000800000000EB
:10002000000000000000000000000000A101000826
:100030008918000800000000E5010008D937000811
:10004000530200085302000853020008530200083C
:10005000530200085302000853020008530200082C
:10006000530200085302000853020008530200081C
:10007000530200085302000853020008530200080C
:1000800053020008530200085302000853020008FC
:1000900053020008530200085302000853020008EC
:1000A0005302000881380008530200085302000878
:1000B00053020008530200085302000853020008CC
:1000C00053020008530200085302000853020008BC
:1000D00053020008530200085302000853020008AC
:1000E00053020008530200085302000800F002F80F
:1000F00000F047F80AA090E8000C82448344AAF17B
:100100000107DA4501D100F03CF8AFF2090EBAE878
:100110000F0013F0010F18BFFB1A43F0010318473B
:100120005C6800007C680000103A24BF78C878C181
:10013000FAD8520724BF30C830C144BF04680C60ED
:10014000704700000023002400250026103A28BF35
:1001500078C1FBD8520728BF30C148BF0B60704739
:10016000662906F00083002070471FB500F05EFC92
:1001700004000020002105F09DFCE0601FBD10B5CB
:1001800010BD00F053FD1146FFF7EFFF03F0FCFD3B
:1001900000F071FD03B4FFF7F2FF03BC00F0B4FD03
:1001A000224B19680868B0E8F00F80F30988BFF3A4
:1001B0006F8F4FF0000080F311884EF00D0E7047E6
:1001C0000000000006480068006880F3088862B6F6
:1001D00061B6BFF34F8FBFF36F8F00DF00BF00BF6B
:1001E00008ED00E0EFF30980BFF36F8F0F4B1A6843
:1001F00020E9F00F106008B54FF0500080F311882F
:10020000BFF34F8FBFF36F8F04F0AEFE4FF00000CF
:1002100080F31188BDE8084019680868B0E8F00F5D
:1002200080F30988BFF36F8F704700BF5C00002028
:10023000EFF30580704700000948804709480047F0
:10024000FEE7FEE7FEE7FEE7FEE7FEE7FEE7FEE786
:10025000FEE7FEE704480549054A064B70470000E3
:100260007D380008ED000008C81B0020C8210020D0
:10027000C81D0020C81D00200FB41CB5074B06AADE
:100280007B4469460090059800F063FB00206946B6
:1002900000F072FB1CBC5DF814FB0000F5060000CA
:1002A00070B5044685690068C10601D5302600E0B6
:1002B0002026C00707D070BDD4E901213046904701
:1002C000206A401C20626D1EF6D570BD70B50446D4
:1002D00085690078C00707D170BDD4E901212020CD
:1002E0009047206A401C20626D1EF6D570BD2DE936
:1002F000F0474FF0000A89460446C0F820A0204687
:10030000E1688847002876D0252806D0D4E9012165
:100310009047206A401C2062F1E7E16820460025F2
:100320008847C4F81CA006460027C4F818A02A2E47
:1003300009D0304603F083FC38B304EB8708303E25
:10034000C8F8186019E059F8041B204604EB87022E
:100350009161E1688847012F064618D1E0690028BD
:1003600020DA25F020051DE0D8F8180000EB800009
:1003700006EB40003038C8F818002046E16888478E
:10038000064603F05CFC0028EED1012F0AD02E2E89
:1003900008D12046E16888477F1C0646022F45F0B9
:1003A0002005C4DBA069002803DA404245F00105BE
:1003B000A061E80701D025F01005B6B1A6F1410013
:1003C000192802D8203645F400654A4631462046B1
:1003D00025604D46FFF7C4FE58B1012806D0ED1D3B
:1003E00025F0070000F1080989E704E005F1040998
:1003F00085E730468AE7206ABDE8F08710B5431CE0
:1004000002E010F8011B71B18107FAD14FF00132FF
:1004100002C88C1A8C4314EAC211F9D0C01A0A0619
:1004200003D0C01E10BDC01A10BD0A0401D0801E2A
:1004300010BD0902FCD0401E10BD032A40F23080DE
:1004400010F0030C00F0158011F8013BBCF1020F15
:10045000624498BF11F801CB00F8013B38BF11F896
:10046000013BA2F1040298BF00F801CB38BF00F8AD
:10047000013B11F0030300F08482083AC0F00880C9
:1004800051F8043B083A51F804CBA0E80810F5E70E
:10049000121D5CBF51F8043B40F8043BAFF30080F1
:1004A000D20724BF11F8013B11F801CB48BF11F866
:1004B000012B24BF00F8013B00F801CB48BF00F836
:1004C000012B704702F0FF0343EA032242EA024293
:1004D00000F08BBA4FF0000200B5134694469646E2
:1004E000203922BFA0E80C50A0E80C50B1F1200147
:1004F000BFF4F7AF090728BFA0E80C5048BF0CC0F5
:100500005DF804EB890028BF40F8042B08BF704752
:1005100048BF20F8022B11F0804F18BF00F8012BC4
:10052000704770477047704770472DE9FF4F0C4682
:100530001E464FF0FF378BB0D2E90001DDF8608036
:100540000A908A46C1F30A5505B93D46002108467E
:100550004FF00000BAF1000F00F4400005DA00EBA4
:1005600080004FF4400101EA50004FEA9059B9F180
:10057000010F00DDB9460A9850EA4A000ED044F651
:100580001050A5F2FF3545432F14B8F1000F1ED0CF
:100590007542291E1EDDC9F100021CE0B8F1010FF1
:1005A0004FF0000001D0302103E0F24305E0215478
:1005B000401CB042FBDB30460022002121540B9945
:1005C000C1F80880C1E900200FB0BDE8F08FBD1B65
:1005D0006D1CDEE74A4600DA694206A800F0B0FA70
:1005E00006AB93E8070003AB83E8070050460A997F
:1005F00000F091FB8DE80700A0F500501F38009037
:100600000398002D0ADD42F21F014A4608440023E8
:1006100003A90390684600F0FAFD09E0A0F5005038
:100620004A461F38002303A90390684600F004FEE1
:100630008DE807000004000C03D04FF0FF304108A4
:1006400000E01046B8F1000F03D0002200921546DA
:100650001EE0751E05D400F0EDF9303262556D1EB6
:10066000F9D5B3460122084302D000227F1C04E0E2
:100670002078302801D100227F1E002A099784D0DB
:100680001DE0112D07DA00F0D5F9303262556D1CEE
:1006900050EA0102F5D1084302D00098C8B10EE03B
:1006A0000021681E05E0235C625C63542254401EF6
:1006B000491C8142F7DBAB46A81B401E0990002075
:1006C00004F80B000B98099AC0F80880C0E9002BC9
:1006D0007AE711264FF0000857E72DE9F04F8846DA
:1006E0000446D21D22F0070191B0D1E90001CDE905
:1006F0000A0103F080FA02460B98C00F01D02D20AA
:1007000007E02068810701D52B2002E0202101EAC3
:10071000C000032A099001D0072A05DB03464146A1
:10072000204600F0CDF90BE12078800601D5E06984
:1007300000E00620B8F1650F814606D0B8F1660FDB
:1007400018D0B8F1670F70D131E00020B9F1110F66
:10075000009001DB112301E009F101030AAA01A9BC
:100760000CA8FFF7E2FEDDE90C70002609F1010597
:10077000834647E001204B4600904FF000470AAA0D
:1007800001A90CA8FFF7D1FEDDE90DB00C995D467B
:10079000002610B909F101000D18B9EB050003D4CA
:1007A000C0F1FF3609F10105A5EB09002BE0B9F115
:1007B000010F01DA4FF001090020B9F1110F00908B
:1007C000484601DD112300E003460AAA01A90CA84E
:1007D000FFF7ABFEDDE90C704D460026834620781E
:1007E00000070AD4AB4500DA5D4601A8012D04DDFF
:1007F000411911F8011C302907D04F4502DA17F1D1
:10080000040F04DA012082460FE06D1EEEE7002F90
:1008100002DCED1B3E4403E0781CA84200DD7D1C99
:10082000B81B00F1010A4FF000472078000703D4FD
:10083000AA4501DB4FF0FF3A0021B7F1004F0DF15F
:1008400043088DF8431024D002202B23002F01DA17
:100850007F422D230A21021EA0F1010000DC5FB1BE
:1008600097FBF1FC97FBF1F201FB1C7C17460CF1A6
:10087000300C08F801CDEEE7A8F1010003702188E3
:10088000090501D5452100E06521A0F1010800F826
:10089000011C09980FA9A1EB0807FF1D00B1012059
:1008A000411901EBEA70A1693844081A401EA061A1
:1008B0002078C00602D42046FFF7F2FC099828B140
:1008C000D4E901219047206A401C20622078C006AC
:1008D00022D52046FFF7E4FC1EE0002E04DBB345E2
:1008E00002DD01A8805D00E03020D4E901219047BD
:1008F000206A401C2062761CAAF101005FEA000A0F
:100900000AD100F093F8C0680168405CD4E9012185
:100910009047206A401C2062281EA5F10105DCDCFE
:1009200007E0D4E9012118F8010B9047206A401C28
:100930002062381EA7F10107F3DC2046FFF7C6FC52
:10094000032011B041E6000001694A1C02610878E9
:10095000704700B58FB0CDE90131002105910549FF
:100960007944CDE9031011466846FFF7C0FC0FB08B
:1009700000BD0000E5FFFFFF0A6802F8010B0A60F6
:10098000704710B5203AC0F00B80B1E81850203AFB
:10099000A0E81850B1E81850A0E81850BFF4F5AF1F
:1009A0005FEA027C24BFB1E81850A0E8185044BFA9
:1009B00018C918C0BDE810405FEA827C24BF51F816
:1009C000043B40F8043B08BF7047D20728BF31F80A
:1009D000023B48BF11F8012B28BF20F8023B48BF5B
:1009E00000F8012B70474FF000020429C0F012807C
:1009F00010F0030C3FF470ADCCF1040CBCF1020F0D
:100A000018BF00F8012BA8BF20F8022BA1EB0C01A6
:100A1000FFF762BD5FEAC17C24BF00F8012B00F83C
:100A2000012B48BF00F8012B7047000000487047B9
:100A3000881B002030B5B0F10A024FEA900E71F128
:100A400000034EEA817EB0EB0E0061EB91014FEAAC
:100A5000101E4EEA017E10EB0E0041EB11114FEA21
:100A6000102E4EEA016E10EB0E0041EB11214FEA01
:100A7000104E4EEA014E10EB0E0041EB11414018B2
:100A800041F100014FEAD00040EA41704FEAD10144
:100A900010EB80054FEA810444EA907444EB0104B2
:100AA0006D1944EB0404521BA3414FF0000348BFEF
:100AB0000A3200D530BD401C41F1000130BD0000BC
:100AC0002DE9F0411F46044603260168072A01F478
:100AD000006004DB08B116A505E016A503E008B127
:100AE00015A500E015A521F010002060A069C01E2A
:100AF000A0610FB1401EA0612046FFF7D1FB4FB1AE
:100B0000D4E9012138469047206A401C2062C01C6D
:100B1000206206E0206AFAE7D4E9012115F8010B0A
:100B20009047761EF8D22046FFF7D0FBBDE8F08153
:100B30004E414E006E616E00494E4600696E660081
:100B40002DE9F047814616468AB0354878440DC8ED
:100B50008DE80D0032487844801C03AC0DC884E851
:100B60000D0041F69B300844372190FBF1F290FBD9
:100B7000F1F5A5F1800501FB12041B3C02D564428E
:100B8000012000E00020DFF898A080460027FA440A
:100B9000AAF1BE0A0EE0E0070AD03246684607EB2B
:100BA000470101230AEB810100F046FB8DE80700B5
:100BB00064107F1C002CEED1194F7F44AE3F19E02A
:100BC000E80715D007EB04100DF1180A90E80E00A5
:100BD0008AE80E00C068F04201D1981908903246A8
:100BE000012306A903A800F027FB03AB83E8070055
:100BF0006D10641C002DE3D14FF0010332466946AD
:100C0000B8F1000F03A802D000F001FB01E000F0F2
:100C100013FBC9E90001C9F808200AB0BDE8F08754
:100C2000AC5D000000487047681B00207546FFF768
:100C3000F9FFAE4605006946534620F00700854699
:100C400018B020B5FFF706FBBDE820404FF00006C6
:100C50004FF000074FF000084FF0000B21F00701A4
:100C6000AC46ACE8C009ACE8C009ACE8C009ACE8E7
:100C7000C0098D46704710B50446AFF3008020468A
:100C8000BDE81040FFF786BA4FF0013C50F8042B46
:100C900051F8043B9A4221D1A2EB0C03934313EA8F
:100CA000CC1317D150F8042B51F8043B9A4215D1BC
:100CB000A2EB0C03934313EACC130BD150F8042B93
:100CC00051F8043B9A4209D1A2EB0C03934313EA77
:100CD000CC13DBD04FF00000704700BFD01A01BA30
:100CE000B1FA81F101F0180122FA01F0CB40C1F113
:100CF0002001DBB2C0B2C01A2CFA01F3D11A914321
:100D000011EAC311E6D1704701491820ABBEFEE7D6
:100D10002600020070475FEA400C08BF91F0000F08
:100D20004FEA8C234FEAC12243EA51514FEA1C504B
:100D300018BF00F5F0404FEA300018BF41F0004105
:100D40005FEA6C5C00F02980BCF1FF3F08BF40F017
:100D500080407047130C06BF12044FF0100C4FF088
:100D6000000C130E04BF12020CF1080C130F04BF89
:100D700012010CF1040C930F04BF92000CF1020C51
:100D8000D30F04BF52000CF1010C11464FF00002CA
:100D9000A0F11F00A0EB0C00704711F0004F08BF3E
:100DA000704731F000413FF4D5AF0B0C06BF09048A
:100DB0004FF0100C4FF0000C0B0E04BF09020CF1A9
:100DC000080C0B0F04BF09010CF1040C8B0F04BFBE
:100DD00089000CF1020CCB0F04BF49000CF1010C8F
:100DE000CCF12003A0EB0C0022FA03F302FA0CF280
:100DF00041EA030100F10100704720F07F4C80EAD6
:100E0000030023F07F47ACEB070303F57C5300F0AE
:100E1000004003F1FF032DE980494FEA154B09B467
:100E20004FEA144325EA0B4E24EA03480FF2042646
:100E300006EB132749083E785FEA320203FB066798
:100E4000C7F5000707FB06F64FEA54374FEAD646C8
:100E500006F1020607FB066CCCF1005C4FEA1C476A
:100E60002CEA074C07FB06F40CFB06F504EB1546D1
:100E70004FEA961634BF00204FF000404FEAD137BA
:100E800006FB07FC4FEA1C4C0CFB0BF7D21B03FBC9
:100E90000CF761EB07010CFB0EF7B0EB074072EBB0
:100EA00017420CFB08F734BFA2EB0742B2EB074234
:100EB00061EB17414FEA0C444FEA910706FB07FC30
:100EC0004FEA1C4C0CFB0BF7B0EBC74072EB5732F0
:100ED00003FB0CF734BFA2EBC742B2EBC74261EB96
:100EE00057310CFB0EF7B0EBC70072EB57720CFBDF
:100EF00008F734BFA2EBC702B2EBC70261EB577130
:100F0000039F4FEA816141EA921104EBCC044FEA5E
:100F1000D1374FEA826206FB07FC42EA90124FEAA1
:100F200080604FEA1C4C0CFB0BF7D21B03FB0CF749
:100F300061EB07010CFB0EF7B0EB074072EB1742B9
:100F40000CFB08F734BFA2EB0742B2EB074261EBA0
:100F500017414FEA8C554FEA910704EB9C2406FB9E
:100F600007FC4FEA1C4C0CFB0BF7B0EBC74072EBD5
:100F7000573203FB0CF734BFA2EBC742B2EBC742B8
:100F800061EB57310CFB0EF7B0EBC70072EB5772F9
:100F90000CFB08F734BFA2EBC702B2EBC70261EB50
:100FA000577115EB4C254FEA816141EA92114FEAE6
:100FB00082624FEAD13742EA901206FB07FC44F105
:100FC00000044FEA80604FEA1C4C0CFB0BF7D21B6D
:100FD00003FB0CF761EB07010CFB0EF7B0EB0740CE
:100FE00072EB17420CFB08F734BFA2EB0742B2EBDF
:100FF000074261EB174115EB1C154FEA813141EABD
:1010000092414FEA823242EA90424FEA80304FEA00
:101010000C7644F1000448EA03434EEA0B484FF0D3
:10102000000EB2EB080C71EB030724BF6246394691
:101030004EEB0E0E4FF0000B0018524149414BEBA6
:101040000B0BB2EB080C71EB03077BF1000B24BF19
:10105000624639464EEB0E0E4FF0000B001852411F
:1010600049414BEB0B0BB2EB080C71EB03077BF127
:10107000000B24BF624639464EEB0E0E51EA0207C2
:1010800018BF46F0010616EB0E7655F1000254F13A
:10109000000103D5BDE88901BDE80088BDE88901EC
:1010A000BDE80048B619524141EB0101A3F101032B
:1010B000704780807F7E7D7C7B7A797877767675C5
:1010C0007473727171706F6E6E6D6C6C6B6A6A693D
:1010D0006868676666656464636362616160605FD7
:1010E0005F5E5E5D5D5C5C5B5B5A5A595958585750
:1010F00057565655555554545353525252515150B8
:1011000050504F4F4F4E4E4D4D4D4C4C4C4B4B4B0A
:101110004A4A4A4949494848484747474746464650
:10112000454545444444444343434342424242418B
:101130004141002B9C4630D477002BD01CB54FEAA0
:10114000370703B44FF010004FF01001BAF1000F51
:1011500006D0BCF1000FDCBF40F0080040F00801F1
:101160004FF000000FBCBDE810400BF1010BBBF1CC
:10117000010F08BF5FEA170722BF12F1010211F148
:1011800001014FF0004143F1000300F0004043EA49
:1011900000007047F9D35708D0E746EA064613F136
:1011A000400F4FEA16461FDD13F1200FDFBF164335
:1011B0000A46002120335B42BED0C3F1200746EA35
:1011C000064602FA07F74FEA164646EA0706C3F153
:1011D000200722FA03F201FA07F721FA03F14FF090
:1011E000000342EA0702A7E746EA020646EA064685
:1011F0004FEA164646EA0106BCBF46EA0646360CEA
:101200004FF000034FF000024FF0000194E72DE98A
:10121000804C9A46934670B491E8380007C831EA8A
:10122000400C48BF34EA430C03D5FFF7E6FDFFF757
:1012300080FFF0BCBDE8008C2DE9804C9A469346B7
:1012400070B491E8380007C810F0804F08BF13F061
:10125000804F03D100F005F8FFF76BFFF0BCBDE84D
:10126000008C20F07F4780EA030023F07F4C07EBDF
:101270000C03A3F57C5300F00040A3F1FE0392F0B1
:10128000000F00F0B38095F0000F00F077802DE99B
:1012900001494FEA11404FEA144621EA004800FB99
:1012A00006FC24EA064708FB06F607FB08F800FBE5
:1012B00007F718EB06484CEB164C4FEA124B18EBAD
:1012C00007484FEA15464CEB174022EA0B4E0BFB42
:1012D00006FC25EA06470EFB06F607FB0EFE0BFB97
:1012E00007F71EEB064E4CEB164C4FF000061EEBBC
:1012F000074E4CEB174B18EB0B0840F1000018EBB6
:101300000E0B58EB000840F100008F1A4FF000015F
:101310003CBFC943661B14BFB5EB040C00213CBFA6
:10132000C943F61B4FEA17444EEA8E0E27EA0445DE
:101330004FEA1C4704FB07622CEA074C05FB07F742
:101340000CFB05F604FB0CFC16EB074642EB1742C0
:1013500016EB0C4642EB1C421BEB060658EB020256
:10136000414146EA9E0601D5BDE80189B6195241C0
:1013700041EB0101A3F10103BDE801894FEA1445E6
:101380004FEA114724EA054621EA074C05FB07F41A
:1013900006FB07F70CFB06F105FB0CFC11EB074104
:1013A00044EB17444FEA124711EB0C4144EB1C4449
:1013B00022EA074C05FB07F206FB07F70CFB06F6D3
:1013C00005FB0CFC16EB074642EB174216EB0C46EE
:1013D00042EB1C456A1854F1000148BF7047B6192A
:1013E000524141EB0101A3F10103704795F0000F59
:1013F00037D04FEA11424FEA144721EA024624EA65
:10140000074C02FB07F106FB07F70CFB06F402FB97
:101410000CFC14EB074441EB17414FEA154714EB62
:101420000C4441EB1C4125EA074C02FB07F506FB87
:1014300007F70CFB06F602FB0CFC16EB074645EB28
:10144000174516EB0C4645EB1C42121951F10001F1
:1014500048BF7047B619524141EB0101A3F10103A6
:1014600070474FEA14454FEA114724EA054621EA3E
:10147000074C05FB07F106FB07F70CFB06F24FF0E4
:10148000000605FB0CFC12EB074241EB174112EB87
:101490000C4251EB1C4148BF7047921841EB0101CF
:1014A000A3F101037047000070B50446006881682D
:1014B000C943C90717D1816821F00101816000F09B
:1014C00095FC05460AE000BF00F090FC401B022896
:1014D00004D920688068C043C00706D020688068AF
:1014E000C043C007F0D0002070BDA06A40F01000DB
:1014F000A062E06A40F00100E062012070BD0000DF
:10150000F8B500260446009600688168C943C907FB
:101510002DD0816841F001018160164816490068AC
:10152000B0FBF1F000E0401E00900028FBD100F07D
:101530005DFC054616E000BF00F058FC401B022889
:1015400010D920688068C043C0070BD0A06A40F063
:101550001000A062E06A40F00100E06284F82460BC
:101560000120F8BD20688068C043C007E4D1002096
:10157000F8BD00005800002040420F00016082804A
:101580007047FEE710B5044602982160227163712E
:10159000A0712820A0720620E0710C202072142077
:1015A00060720820E072322000F00CFB0022332130
:1015B000204600F038F800223321204600F033F8AE
:1015C000052000F0FFFA00223221204600F02BF81F
:1015D000052000F0F7FA00222021204600F023F831
:1015E000052000F0EFFAE1790022204600F01BF818
:1015F000217A0022204600F016F8617A0022204667
:1016000000F011F8A17A0022204600F00CF8002228
:101610000121204600F007F820460022BDE81040D6
:101620000221AFF300807CB506460807040EF07A6D
:1016300001F0F00518B145F0080544F00804012A4E
:1016400001D02AB108E045F0010544F0010403E0AF
:1016500025F0010524F0010445F004008DF8040094
:10166000012000F0AFFA8DF8055044F004008DF829
:101670000600012000F0A6FA4FF47A708DF80740BA
:1016800000903179042301AA306800F079FC7CBD18
:1016900001F082B910B5036800225A624FF47A73E0
:1016A00003E00268546A9C42FCD3491E89B2F8D216
:1016B00010BD036800225A620068426A8A42FCD365
:1016C00070470068FFF7E6BF0068FFF7F2BF30B46D
:1016D00082608380016030BC0846FFF7D9BF2DE9E6
:1016E000F0410746002500F057F80024012638464F
:1016F00000F061F80021384600F0C0F801213846BA
:10170000FFF7E2FF384600F047F8384600F00FF8E0
:1017100018B106FA04F02843C5B232213846FFF763
:10172000D3FF641C082CE2DB2846BDE8F0818188E9
:10173000806800F049BB70B5044600F04DF8012107
:101740002046FFF7BEFFCC21204600F066F844217A
:10175000204600F062F8C8212046FFF7B2FF20467D
:1017600000F03AF801212046FFF7ABFFCC212046DC
:1017700000F053F8BE21204600F04FF82046FFF756
:10178000AEFF05462046FFF7AAFF45EA0020000904
:1017900004F094FEE06070BD1FB50021009101913E
:1017A000029103918188009101210291806869462C
:1017B00000F01AFA1FBD1FB500210091019102919E
:1017C0000391818800910121019102210391806898
:1017D000694600F009FA1FBD70B505460024FFF701
:1017E000EAFF0021284600F049F84FF4F07128463E
:1017F000FFF76AFF2846FFF7CFFF50212846FFF783
:1018000063FF2846FFF793FF00B901244FF4C87126
:101810002846FFF759FF204670BD2DE9F0410E46DE
:101820000746FFF7C8FF0024012505FA04F03042FF
:10183000384611D0FFF7BFFF0021384600F01EF8F0
:1018400001213846FFF740FF3846FFF7A5FF322158
:101850003846FFF739FF0CE0FFF7ADFF00213846AF
:1018600000F00CF832213846FFF72EFF3846FFF71C
:1018700093FF641C082CD8DBBDE8F08183880A46FE
:101880008068194600F0ADBA70470000F8B5002432
:10189000009490F824202546012A12D0012280F8D5
:1018A00024204A681F23072A0DD20668776B521E30
:1018B00002EB820293409F430B6893401F43776380
:1018C00019E00220F8BD06680D2A0AD2376BD21F34
:1018D00002EB820293409F430B6893401F433763A0
:1018E00009E0F76A0D3A02EB820293409F430B68CE
:1018F00093401F43F7620A68072306680A2A0AD33F
:10190000F7680A3A02EB420293409F438B68934088
:101910001F43F76008E0376902EB420293409F43A0
:101920008B6893401F4337610A68102A01D0112A3F
:1019300020D1124B02689A4217D193681B0219D426
:10194000936843F4000393600968102912D10C498D
:101950000C4A0968B1FBF2F101EB8101490000E09A
:10196000491E00910029FBD104E0816A41F0200169
:101970008162012480F824502046F8BD00240140F3
:101980005800002040420F000068C06C7047000003
:101990002DE9F0414FF0000704003D467ED0A06ADB
:1019A000002628B9E66284F82460204600F07EF81C
:1019B0002046FFF779FDA16AC90600D420B1A06ACC
:1019C00040F01000A06269E0A16A21F4885141F062
:1019D0000201A1626268E169237B0A4347EA43018D
:1019E0000A43A1684FF48077B94209D0012907D092
:1019F0005FF0000194F814C0BCF1010F02D00AE0BE
:101A00003946F7E7F3B1A36A43F02003A362E36A20
:101A100043F00103E3622368D3F804C02CF4694C5B
:101A20004CEA010CC3F804C021688B68DFF870C071
:101A300003EA0C0313438B60A168B9420BD0012960
:101A400009D00CE0DFF85CC0A3690CEB43330B4317
:101A500043F40061DFE7218A0D05A5F580152168B3
:101A6000CB6A23F470032B43CB62216889680E4B49
:101A70001940914208D1E662A16A21F0020141F0C9
:101A80000101A162BDE8F081A06A20F0020040F0EF
:101A90001000A062E06A40F00100E0620120F1E77E
:101AA000FDF7E1FF00E0FFFFFE0E1FFF00B585B070
:101AB0000021009101910291039100680E49884232
:101AC00018D10E48816941F400718161816901F486
:101AD00000710491816941F0080181618069694662
:101AE00000F00800049002200090032001900448B8
:101AF00000F07AF805B000BD00240140001002405B
:101B0000000C014070B5044690F8240001280DD067
:101B1000012084F824002046FFF7F2FC02004FF079
:101B2000000005D084F82400104670BD022070BD6E
:101B3000A16A40F20123994341F48071A1621F4DD3
:101B400023681F49AB4218D10E6816F4702F14D0C9
:101B5000A66A46F48016A6620E68760505D5A66AC2
:101B600026F4005646F48056A662A66AF6040AD504
:101B7000E66A26F00606E66206E0A66A26F4801605
:101B8000A6625E68E9E7E06284F824006FF0020074
:101B9000186020688368C3F34243072B05D1A8422D
:101BA00008D1096811F4702F04D0816841F48011C4
:101BB0008160B9E7816841F4A001F9E7002801409C
:101BC0000424014070B5044600F010F90546601C7D
:101BD00002D004480078044400F008F9401BA042F9
:101BE000FAD370BD4C0000202DE9F84FDFF8B89112
:101BF0000024A9F1040B23460F2709F1040AABF1D5
:101C0000040EC9E00125A5402A40AA427DD1674EB5
:101C1000D1F804C0ACEB0608B44532D014DCBCF1FA
:101C2000030F3AD009DCBCF1000F2AD0BCF1010F40
:101C30001CD0BCF1020F31D11DE0BCF1110F17D047
:101C4000BCF1120F2AD119E0B8F5881F19D006DCB3
:101C5000B8F5803F15D0B8F5801F1FD111E0B8F559
:101C6000001F0ED0B8F5041F18D10AE0CB6815E0AC
:101C7000CB681B1D12E0CB6808330FE0CB680C3338
:101C80000CE08B682BB1012B4FF0080303D04561AA
:101C900004E0042302E0056100E00023FF2A01D8EC
:101CA000064601E000F104064FEA840501D9A5F1DA
:101CB0002005D6F8008007FA05FC28EA0C0803FA8C
:101CC00005F548EA0508C6F800804D68ED0062D5C4
:101CD000374DAE6946F00106AE61AD6924F00306EA
:101CE00005F001050095334D06EB050CDCF80850B6
:101CF000A607360F07FA06F825EA0805DFF8B880C8
:101D0000404503D14FF0000817E044E0DFF8AC8015
:101D1000404502D14FF001080FE0DFF8A4804045B4
:101D200002D14FF0020808E0DFF89880404502D168
:101D30004FF0030801E04FF0040808FA06F848EAFB
:101D40000508CCF808804D68D9F80060ED024D46D2
:101D500001D5164300E096432E604D68DAF8006026
:101D6000AD02554601D5164300E096432E604D68FE
:101D7000DBF80060AD035D4601D5164300E09643F5
:101D80002E604D68DEF80060ED03754601D5164300
:101D900000E096432E60641C0D682A46E5407FF4FF
:101DA00031AFBDE8F88F00000804014000001110B9
:101DB000001002400000014000080140000C0140FA
:101DC00000100140001401408068084000D001204C
:101DD0007047C26821EA02030A4043EA02410161F6
:101DE00070470AB1016170470904FBE70148806848
:101DF000704700004C00002070B5040025D094F816
:101E00003D00002520B984F83C50204600F04EF9F2
:101E1000242084F83D002068016821F00101016060
:101E20002068016841F4004101602068016821F4E4
:101E30000041016000F058FB4D4A6168914201D8B1
:101E40004C4900E04C49884201D2012070BD4B4909
:101E50002368B0FBF1F15E6826F03F060E435E603A
:101E60006368934206D94FF4967359434FF47A73DB
:101E7000B1FBF3F12368491C1E6A26F03F0631438B
:101E800019626168914210D84900401EB0FBF1F21E
:101E9000521CC2F30B02042A01D2042022E0B0FB40
:101EA000F1F0401CC0F30B001CE0A268F2B301EBA0
:101EB000C10303EB0116431EB3FBF6F35B1C43F4B3
:101EC00080431B0549D092B301EBC10202EB011123
:101ED000401EB0FBF1F0401CC0F30B0040F480400A
:101EE00040F400402168CA694CF6FF739A431043DE
:101EF000C861D4E9071001432068026822F0C002DB
:101F000011430160D4E9030101432068826848F26B
:101F1000FF339A4311438160D4E9050108432168E6
:101F2000CA6822F0FF021043C86001E00EE016E02C
:101F30002068016841F0010101602564202084F8D7
:101F40003D00256384F83E50002070BD01EB410642
:101F5000431EB3FBF6F35B1CB3E70120C2E701EBC2
:101F60004101401EB0FBF1F0401CC0F30B00B7E78D
:101F7000A086010080841E0000093D0040420F0041
:101F80002DE9F84F1F4690468A460446DDF8289012
:101F9000FFF72CFF054694F83D0020287FD1192338
:101FA000012240492046009501F0CAF8002876D168
:101FB00094F83C00012872D0012084F83C0020688D
:101FC0000168C90703D1016841F00101016020687F
:101FD000016821F400610160212084F83D00102097
:101FE00084F83E0000262664C4F824806785608D4E
:101FF00020852D48E0622B464A465146204601F096
:1020000025F890B9206841698069009036E02A4639
:102010004946204601F03AF950B1206C042804D119
:102020002068016841F4007101600120BDE8F88F6B
:10203000606A216800780861606A401C6062618D96
:10204000491E6185218D491E89B221852268536907
:10205000DB435B070BD451B100781061606A401C10
:102060006062608D401E6085208D401E20852A465E
:102070004946204601F038F80028CED1208D0028AE
:10208000C5D154F83D0B016841F400710160202076
:1020900004F81E09E67766770020C7E7FFE702200D
:1020A000C4E70000020010000000FFFF10B586B07A
:1020B0000021009101910291039100680F4988422B
:1020C0001AD10F4CA06940F00800A061A0696946D0
:1020D00000F008000490C02000901220019003201E
:1020E00003900848FFF780FDE06940F40010E061CC
:1020F000E06900F40010049006B010BD00540040E8
:1021000000100240000C014002488168027811442E
:10211000816070474C000020074810B5016841F00D
:1021200010010160032000F0A1F80F2000F006F874
:1021300000F04AF8002010BD0020024030B50546EE
:102140001C4887B0816941F400618161806906A9FA
:1021500000F40060009001A800F0A6F900F0D4F9A6
:102160001549164AB0FBF1F11548491E026041605D
:1021700040F2E7320021C0E903218160816100F073
:10218000BFFB040012D10E4800F02EFC04000DD15C
:10219000192000F03DF8102D07D200222946192001
:1021A00000F044F80748056000E0012407B020462D
:1021B00030BD00000010024040420F00002C0140E2
:1021C0004C020020500000200F4808B5816941F002
:1021D00001018161816901F001010091C16941F052
:1021E0008051C161C069002200F0805000900F2131
:1021F000901E00F01BF80548416821F0E06141F0B5
:102200000071416008BD0000001002400000014064
:10221000002809DB00F01F020121914040098000E5
:1022200000F1E020C0F8001170470000F0B40E4B40
:102230001B680C46C3F30223C3F10705042D00D924
:102240000425191D072901D2002300E0DB1E012609
:1022500006FA05F1491E214099409E40761E16401F
:102260003143F0BC01F0DBBC0CED00E0064900F0AE
:10227000070208684FF6FF03184040EA0220034AAD
:1022800010430860704700000CED00E00000FA0504
:102290002DE9F84305460078354CC00754D0E06975
:1022A0000026C00008D4E06940F08050E061E06999
:1022B000012600F0805000902E480168C90512D414
:1022C0000168804641F480710160FFF78FFD074689
:1022D00005E000BFFFF78AFDC01B642823D8D8F8AB
:1022E0000000C005F6D5206A10F4407021D0A988FE
:1022F00001F4407181421CD0206A1F49012220F460
:1023000040700A6000220A602062C00711D0FFF707
:102310006DFD074641F2883808E000BFFFF766FD13
:10232000C11B414502D90320BDE8F883206A80071C
:10233000F4D5206A696820F44070084320621EB119
:10234000E06920F08050E0612878800705D560685A
:10235000A96820F44040084360602878C00605D58D
:102360006068E96820F48000084360600020DBE7D3
:102370000010024000700040400442422DE9F04746
:102380000F46050061D0434E306800F00700B842A8
:1023900009D2306820F0070038433060306800F020
:1023A0000700B84251D128683B4C810712D540073D
:1023B00003D5606840F4E06060602878000703D5CA
:1023C000606840F4605060606068A96820F0F000C8
:1023D000084360602878C00728D06868012810D0BA
:1023E0002168022810D0890700292EDA616821F0BF
:1023F000030101436160FFF7F9FC804641F288392F
:102400000DE021688903EFE78901EDE7FFF7EEFCB6
:10241000A0EB0801494502D90320BDE8F0876068B8
:10242000696800F00C00B0EB810FEFD1306800F06C
:102430000700B8420BD9306820F0070038433060FD
:10244000306800F00700B84201D00120E5E72878A5
:10245000400705D56068E96820F4E06008436060E3
:102460002878000706D56068296920F4605040EAA2
:10247000C100606000F058F86168084AC1F30311B8
:10248000515CC8400649086006480068FFF756FEE0
:102490000020C2E7002002400010024066680008E9
:1024A00058000020500000200F2202600C4A5368A0
:1024B00003F003034360536803F0F0038360536841
:1024C00003F4E063C36052684FF4E06303EAD202AE
:1024D00002610448006800F00700086070470000CF
:1024E0000010024000200240044805490068496885
:1024F000044AC1F30221515CC840704758000020D3
:1025000000100240766800080448054900684968E0
:10251000044AC1F3C221515CC840704758000020F2
:1025200000100240766800080E4A51680E4801F01B
:102530000C03042B11D0082B0FD10C48C1F383439B
:10254000C903C05C0AD55168084AC1F34041921ED4
:10255000515C054A5043B0FBF1F0704704494843D1
:10256000704700000010024000127A005668000810
:1025700000093D002DE9F84F040070D02078C04DCF
:10258000C00749D06868C0F38100012807D0686897
:10259000C0F38100022809D16868C00306D5286805
:1025A000800339D560680028E7D035E06068B0F571
:1025B000803F0BD010B1B0F5A02F11D0286820F4C7
:1025C00080302860286820F4802002E0286840F4E9
:1025D00080302860606890B1FFF708FC06460AE08A
:1025E000286840F480202860F0E700BFFFF7FEFB7A
:1025F000801B642873D828688003F7D50CE0FFF7A8
:10260000F5FB064605E000BFFFF7F0FB801B6428E2
:10261000F0D828688003F7D420789A4E80074FF0CE
:1026200001094FF0000839D5686810F00C0F07D089
:102630006868C0F38100022809D16868C00306D425
:102640002868800714D52069012808D110E0206986
:10265000B0B1C6F80090FFF7C9FB074605E00AE1F4
:10266000FFF7C4FBC01B0228C4D828688007F7D531
:102670002868616920F0F80040EAC10028600DE098
:10268000C6F80080FFF7B2FB074604E0FFF7AEFB99
:10269000C01B022823D828688007F7D420780007B9
:1026A0002CD57948A169D9B1C0F80090FFF79EFBFD
:1026B000074604E0FFF79AFBC01B02280FD8686AA0
:1026C0008007F7D571484FF4FA510068B0FBF1F07C
:1026D000009000BF0098411E0091FAD20EE080E009
:1026E000C0F80080FFF782FB074604E0FFF77EFB9F
:1026F000C01B022875D8686A8007F7D42078400785
:1027000060D5E8690027C00008D4E86940F080502F
:10271000E861E869012700F0805000905C4801689A
:10272000C90513D40168834641F480710160FFF745
:102730005DFB824606E000BFFFF758FBA0EB0A00F6
:1027400064284ED8DBF80000C005F5D5E068012804
:102750000AD008B1052813D0286A20F001002862A9
:10276000286A20F0040002E0286A40F00100286294
:10277000E06841F2883B98B1FFF738FB82460BE0F6
:10278000286A40F004002862EEE700BFFFF72EFB46
:10279000A0EB0A0159455AD8286A8007F6D50CE003
:1027A000FFF724FB824605E0FFF720FBA0EB0A01C0
:1027B00059454CD8286A8007F6D41FB1E86920F043
:1027C0008050E861E06988B36968C1F3810102293A
:1027D00044D00228C6F8608004D0FFF707FB044607
:1027E00038E034E0FFF702FB074604E0FFF7FEFAAB
:1027F000C01B02282BD828688001F7D4206AB0F5C6
:10280000803F05D16868A16820F400300843686003
:10281000D4E908010843696821F474110843686029
:10282000C6F86090FFF7E2FA044606E025E000BF34
:10283000FFF7DCFA001B022809D828688001F7D5C9
:102840001BE000BFFFF7D2FA001B022802D90320C9
:10285000BDE8F88F28688001F4D40EE00128F7D095
:102860006868226A00F48031914204D1616A00F400
:102870007010884201D00120EAE70020E8E700005C
:1028800000100240000042428004424258000020F2
:10289000007000407047704770B590F83C20012AE6
:1028A00026D0012480F83C40022280F83D200368B5
:1028B0005A689D6822F070060A6832435A600D4BD0
:1028C00002689A4208D0B2F1804F05D00A4B9A4272
:1028D00002D00A4B9A4204D1496825F0800319437B
:1028E000916080F83D40002180F83C10084670BDA2
:1028F000022070BD002C0140000400400008004090
:1029000010B5040003D094F83D0010B107E0012099
:1029100010BD002084F83C00204600F01FF8022083
:1029200084F83D00211D206800F0B0FF012084F8EC
:10293000460084F83E0084F83F0084F8400084F8A4
:10294000410084F8420084F8430084F8440084F88D
:10295000450084F83D00002010BD000008B5016866
:102960000B48B1F1804F0BD00A4A914207D1C1699F
:1029700041F00401C161C06900F00400009008BD8D
:10298000C16941F00101C161C06900F00100F5E7D2
:10299000001002400008004090F83D10012901D0CD
:1029A00001207047022180F83D1000680B498842E1
:1029B00008D0B0F1804F05D00949884202D00949BA
:1029C000884204D1816801F00701062903D001681B
:1029D00041F001010160002070470000002C01401F
:1029E000000400400008004090F83D10012901D08B
:1029F00001207047022180F83D100168CA6842F04A
:102A00000102CA6000680B49884208D0B0F1804FCB
:102A100005D00949884202D00849884204D181681A
:102A200001F00701062903D0016841F001010160AE
:102A300000207047002C01400004004000080040C6
:102A400070B5044690F83C000025012817D00126F7
:102A500084F83C60022084F83D002068826822F0FF
:102A6000770222F47F4282600868502838D00DDC5B
:102A700020284FD005DC90B3102811D14AE0022065
:102A800070BD302846D040280AD13BE060282FD0C6
:102A900070280DD0B0F5805F03D0B0F5005F12D084
:102AA000012584F83D60002084F83C00284670BD74
:102AB000CB68D1E90121206800F02BFF20688168F4
:102AC00041F0770109E0CB68D1E90121206800F0ED
:102AD00020FF2068816841F480418160E1E719E0CE
:102AE000CA684968206800F0C9FF5021206806E0E4
:102AF000CA684968206800F0D2FF6021206800F0B1
:102B000012FFCEE7CA684968206800F0B7FF40218D
:102B10002068F4E7226801461046F0E7704770B578
:102B20000446006801694FF00005C943890715D4C0
:102B3000C168C943890711D4E91E016101202077CA
:102B4000206880698007204602D0FFF7E7FF04E095
:102B500000F0BCF8204600F04EF9257720680169A6
:102B6000C943490717D4C168C943490713D46FF053
:102B700004010161022020772068806910F4407F01
:102B8000204602D0FFF7CAFF04E000F09FF820467D
:102B900000F031F9257720680169C943090716D487
:102BA000C168C943090712D46FF00801016104200C
:102BB00020772068C0698007204602D0FFF7AEFF6B
:102BC00004E000F083F8204600F015F9257720682E
:102BD0000169C943C90617D4C168C943C90613D4DA
:102BE0006FF010010161082020772068C06910F49F
:102BF000407F204602D0FFF791FF04E000F066F826
:102C0000204600F0F8F8257720680169C943C90714
:102C100008D1C168C943C90704D1891E0161204692
:102C200000F038F920680169C943090609D4C16870
:102C3000C943090605D46FF0800101612046FFF702
:102C400029FE20680169C943490609D4C168C943FE
:102C5000490605D46FF040010161204600F024F9D7
:102C600020680169C94389060BD4C168C943890634
:102C700007D46FF0200101612046BDE87040FFF7E6
:102C80000ABE70BD00B585B000210091019102918E
:102C900003910068B0F1804F11D10A48816941F079
:102CA000040181618069694600F0040004900120FC
:102CB00000900220019003900348FEF795FF05B0B5
:102CC00000BD00000010024000080140704770B5D0
:102CD000044690F83C0000260D4601280FD0012044
:102CE00084F83C006AB1042A1DD0082A2FD00C2A8F
:102CF0003FD00126002084F83C00304670BD022001
:102D000070BD206800F018FE2068816941F008015C
:102D100081612068816921F00401816120688169F5
:102D20002A69114311E0206800F02EFE20688169B5
:102D300041F4006181612068816921F480618161D1
:102D4000206881692A6941EA02218161D2E720680D
:102D500000F046FE2068C16941F00801C1612068A9
:102D6000C16921F00401C1612068C1692A69114368
:102D700011E0206800F060FE2068C16941F4006144
:102D8000C1612068C16921F48061C1612068C169A5
:102D90002A6941EA0221C161ACE710B5040003D001
:102DA00094F83D0010B107E0012010BD002084F828
:102DB0003C00204600F01EF8022084F83D00211D52
:102DC000206800F063FD012084F8460084F83E008E
:102DD00084F83F0084F8400084F8410084F8420001
:102DE00084F8430084F8440084F8450084F83D00EA
:102DF000002010BD7047704710B50446022249B14B
:102E000004290ED0082913D094F84100012816D0C7
:102E1000012010BD94F83E000128F9D184F83E202D
:102E20000FE094F83F000128F2D184F83F2008E039
:102E300094F840000128EBD184F8402001E084F8A8
:102E400041200122206800F057FD0F492068884288
:102E500003D1426C42F4004242642068884208D0A8
:102E6000B0F1804F05D00949884202D00849884214
:102E700004D1816801F00701062903D0016841F0FF
:102E800001010160002010BD002C01400004004041
:102E90000008004000680349884201D1FFF734B9B7
:102EA00070470000002C0140704770B5040004D04A
:102EB00094F84100002510B106E0012070BD84F8AF
:102EC0004050204600F024F8242084F84100206877
:102ED000C16821F40051C160204600F0F3FD206874
:102EE000016921F4904101612068416921F02A01C2
:102EF00041612068C16841F40051C16065642020CF
:102F000084F8410084F842006563002070BD000031
:102F100030B585B0002400940194029403940068B5
:102F20001449884224D11448816941F48041816167
:102F3000816901F480410491816941F0040181615A
:102F400080690E4D00F0040004904FF40070009072
:102F5000022001900320039069462846FEF744FEB4
:102F60002815CDE90004694628460294FEF73CFE88
:102F700005B030BD0038014000100240000801409B
:102F80002DE9F843044690F841001F4616460D46C9
:102F9000202802D00220BDE8F8837DB176B1002060
:102FA0006064212084F84100FEF720FFA68480465B
:102FB000E684A068B0F5805F02D003E00120EAE774
:102FC000206910B12E4600250EE000260CE080217D
:102FD000204600F0D3FDA0B9AEB116F8010B216870
:102FE0004860E08C401EE084E08C43464FF00002D5
:102FF00000970028EBD14FF04001204600F0BEFDC5
:1030000030B10320C7E735F8020BC0F30800E6E74C
:10301000202084F841000020BDE7FEE701684A69EE
:10302000D24352050FD46FF480624A61002140F808
:10303000301F202242738173026942F00402026150
:10304000017301207047002070470000F8B5044666
:10305000C06A1E460D461746082807D0012805D02D
:1030600010F5803F02D0206B122804D1206801683F
:1030700041F480710160134600224FF00111204697
:10308000009600F05DF840B120680068C00502D5E8
:103090004FF4007020640320F8BD2069B0F5804F24
:1030A0000ED00620216800EAD51040F0F00008613B
:1030B00033463A460B49204600F08AF878B902E0D8
:1030C00005F0FE0000E0E8B22168086105493346DA
:1030D0003A46891F204600F07BF80028DCD001200A
:1030E000F8BD00000800010070B516460D46044604
:1030F0001EE02046FFF792FF08B1012070BD681C5A
:1031000016D0FEF773FE801BA84200D885B9206850
:103110004069C04340070BD5002044F8300F202100
:103120006173A073216941F0200121612073E4E7FC
:1031300020684069C0434007DBD4002070BD000018
:103140002DE9F047984617460D460446C1F3074659
:10315000DDF820902AE000BFB8F1FF3F26D0FEF74F
:1031600045FEA0EB0901414502D8B8F1000F1DD181
:103170002068012E16D0806925EA00000004000CAA
:1031800012D00020B84211D1002044F8300F202185
:103190006173A073216941F0200121612073012036
:1031A000BDE8F0874069E7E70120EBE72068012EE2
:1031B0000AD0806925EA00000004000C06D0002037
:1031C000B842C9D00020EBE74069F3E70120F7E7F8
:1031D0002DE9F047984616460D4604464FF0000983
:1031E0004FF0200AC1F3074723E020684069C0433D
:1031F000400515D42068016841F400710160216820
:103200006FF480604861C4F8309084F83DA084F881
:103210003E90216C41F00401216484F83C9021E04F
:10322000701C06D0FEF7E2FDA0EB0800B04203D808
:1032300016B1012F1FD021E02068012F15D0806921
:1032400025EA00000004000C18D000BF44F8309FAD
:1032500084F80DA084F80E90216941F020012161CD
:1032600084F80C900120BDE8F087406925EA000051
:103270000004000CEAD12068406901E02068806900
:1032800025EA00000004000CAFD1ECE770B516464B
:103290000D4604461EE02046FFF7C0FE08B101209F
:1032A00070BD681C16D0FEF7A1FD801BA84200D897
:1032B00085B920684069C04300060BD5002044F85A
:1032C000300F20216173A073216941F02001216139
:1032D0002073E4E720684069C0430006DBD4002087
:1032E00070BD00003EB50024114800940194029482
:1032F0000E498460016001250573047505614FF472
:1033000060214460C161FEF743FB08B172B6FEE77D
:103310000920CDE90005694602940548FEF7B6FA92
:10332000002801D072B6FEE73EBD00000024014037
:10333000D40000202DE9F04385B0002425480094F6
:10334000019402940394816941F0200181618169B3
:1033500001F020010491816941F0040181618169DA
:1033600001F004010491816941F0080181618069E3
:10337000DFF8648000F008000490002282214046BB
:10338000FEF72FFDDFF8549048F60147002239463A
:103390004846FEF726FD822001250226CDE90005DC
:1033A000CDE9024669464046FEF71EFC00970396AB
:1033B000CDE9015469464846FEF716FC2803CDE9DD
:1033C0000004694648460294FEF70EFC05B0BDE8CD
:1033D000F08300000010024000080140000C014092
:1033E00010B58EB000240794089409940A940B94A5
:1033F0001C2168460C94FDF76DF81E484FF0804183
:1034000001604FF4FA51C0E901146321C0E90314CB
:103410008461FFF775FA08B172B6FEE74FF4805089
:10342000079007A91348FFF70BFB08B172B6FEE738
:103430001048FFF7B2FC08B172B6FEE70B940BA977
:103440000C480C94FFF728FA08B172B6FEE760202A
:1034500000901920CDE90104002269460548049432
:10346000FFF735FC08B172B6FEE70248FFF70AFC29
:103470000EB010BD5801002010B586B000241748CA
:1034800000940194029403940494134905940160F8
:103490004721C0E901144FF6FF71C0E903148461AC
:1034A000FFF72EFA08B172B6FEE74FF48050009095
:1034B00069460A48FFF7C4FA08B172B6FEE70494F9
:1034C00004A906480594FFF7E7F9002801D072B671
:1034D000FEE706B010BD000000080040A00100207B
:1034E000FEE7FEE72DE9F04103F0C8F81D4D064662
:1034F000296903F0C3F8E96802F0F4FF696904463A
:103500008846A86802F0EEFF07463146686802F078
:10351000E9FF394602F050FF214602F04DFF044614
:103520001148844201DD044603E014F1FF4F00D34B
:1035300000243146404602F03FFFC5E904600B4DD0
:10354000E86802F0BBFF214602F0CCFF02F008FF62
:103550000022074B02F06CFB02F0C2FC29684863B2
:10356000BDE8F081000000200000C84258010020A2
:103570000000594010B50446084602F0F1FE02462C
:103580000B4608A12046FCF777FE2046FCF736FFE5
:10359000214682B2BDE810404FF0FF330648FFF7E6
:1035A000EFBC000054656D70657261747572653AA8
:1035B00020252E32660A0000E801002008B500F040
:1035C000D1FC374F374C384D4FF0FF360090009804
:1035D0003449C8300090334600223831A06A00F0E8
:1035E00011FD334600222F49E06A00F00BFD2168EF
:1035F000A06BFFF777FF80212846FEF7EAFB00F07B
:1036000025FB0021084600F069FB28A000F0B2FB72
:10361000206802F0A5FE024622480B4626A13C3057
:10362000FCF72AFE1F483C3000F0A4FB02210120D9
:1036300000F054FB22A000F09DFB0B21012000F0C4
:103640004DFBDF2000F076FB0C21012000F046FB53
:103650001DA000F08FFBA06B02F082FE0246114815
:103660000B4615A13C30FCF707FEC62000F042FBDC
:103670000C483C3000F07EFBA06BB84201DC01221C
:1036800003E01249884204DB002202212846FEF7AB
:10369000A8FB6420FEF796FA009800F045FC96E738
:1036A0000000C8410000002000080140536574700C
:1036B0006F696E743A20000025322E3266000000D9
:1036C00054203D2000000000430000000000F041B5
:1036D00008B500F047FC134F134D00244FF400666B
:1036E00000901248FEF727F8A86331463846FEF7E7
:1036F00070FB0D4900231A463831A86A00F0FAFC25
:10370000641C0A2C07D1002407492346224638317D
:10371000286B00F0EFFC0098C830009000F004FC2B
:10372000DFE70000000C0140000000203C02002008
:1037300008B500F017FC0F4C0F4F4FF0FF354FF45A
:10374000806600900B492B4600223831206B00F038
:1037500059FC31463846FEF73CFB0648A16B3C302D
:10376000FFF708FF009800F5FA60009000F0DCFB1E
:10377000E8E7000000000020000C014008B500F060
:10378000F1FB124C124D00900098C8300090114887
:10379000FEF7FAF802F092FE206002F06FFE80B2AF
:1037A00029220A2100F09CFB02F088FE0023206001
:1037B0001A460649E06A00F09DFC01212846FEF702
:1037C00008FB009800F0B0FBDEE7000000000020DE
:1037D000000C0140D400002010B5502080F3118867
:1037E000BFF34F8FBFF36F8F01F0C2FF18B10449D1
:1037F0004FF080500860002080F3118810BD000059
:1038000004ED00E030B593B028216846FCF762FE75
:1038100014210AA8FCF75EFE002501200F951095E3
:103820001195010412958DE8230004904FF4E010E7
:10383000CDE90810022407946846FEF79BFE08B104
:1038400072B6FEE70AA90F2081E831004FF48060CC
:10385000CDE90D0502210AA8FEF790FD08B172B668
:10386000FEE74FF4404011900F940FA8FEF710FDB3
:10387000002801D072B6FEE713B030BD70470000DB
:103880000148FFF74CB900004C020020F0B5026877
:10389000164B174C174D4FF08047984205D0B84251
:1038A00003D0A04201D0A84203D122F070064A689A
:1038B0003243984205D0B84203D0A04201D0A8427A
:1038C00003D122F44074CA6822434C6922F080027A
:1038D000224302608A68C2620A688262984201D109
:1038E0000969016301214161F0BD0000002C014024
:1038F000000400400008004010B501F01F03012142
:10390000046A99408C430462016A9A40114301623F
:1039100010BD10B5846842EA032224F47F440A43B0
:103920002243826010BD826822F070020A4342F096
:10393000070181607047000030B5036A026A22F017
:10394000010202624268846924F073050C682C430A
:1039500023F002058B682B430A4DA8420BD123F0BC
:103960000805CB6822F440722B434D6923F0040311
:1039700015438A692A43426084614968416303624E
:1039800030BD0000002C014030B5026A036A23F00C
:1039900010030362436884690D6824F4E64444EA32
:1039A00005248D6822F0200242EA05120B4DA84240
:1039B0000ED1CD6822F0800242EA05124D6923F44F
:1039C000406343EA85038D6922F0400243EA8503A0
:1039D0004360846149688163026230BD002C01400C
:1039E00030B5036A026A22F4807202624268C469D6
:1039F00023F4007324F073050C682C438D6843EAAC
:103A000005230C4DA8420ED1CD6823F4006343EA90
:103A100005234D6922F4405242EA05128D6923F4D0
:103A2000806342EA05124260C4614968C16303626F
:103A300030BD0000002C014030B5046A026A22F457
:103A4000805202624268C3690D6823F4E64343EA88
:103A500005238D6824F4005444EA0534064DA84239
:103A600004D14D6922F4804242EA85124260C3616A
:103A700049680164046230BD002C014010B5036A3E
:103A8000046A24F001040462846924F0F00444EA26
:103A9000021423F00A020A438461026210BD10B5C9
:103AA000036A046A24F010040462846923F0A0030A
:103AB00024F4704444EA023243EA01118261016253
:103AC00010BD000070B5044600680169E26821F489
:103AD0004051114301612169A068084361690843AD
:103AE0002168CA6841F20C639A430243CA602068A5
:103AF0004169A26921F44071114341611E49206866
:103B0000884202D1FEF700FD01E0FEF7EDFC00EB7C
:103B1000C00101EB0012606864218000B2FBF0F389
:103B2000B3FBF1F36FF018067343B2FBF0F5B2FB91
:103B3000F0F605EB8305322303EB0515B5FBF1F534
:103B4000B6FBF1F605F0F00505EB0615B2FBF0F655
:103B5000B2FBF0F0B0FBF1F06FF01802504306EB4F
:103B6000800003EB0010B0FBF1F0216800F00F00C3
:103B70002844886070BD0000003801402DE9F04104
:103B8000984617460E460446069D27E0681C25D039
:103B90002DB1FEF72BF9A0EB0800A8421ED9206832
:103BA0000C3050E8001F21F4D07140E80012002AC8
:103BB000F5D12068143050E8001F21F0010140E8E1
:103BC0000012002AF5D1202084F8410084F8420038
:103BD000002084F840000320BDE8F08120680068E0
:103BE00036EA000004D00020B842CFD00020F3E72E
:103BF0000120F9E7FEE7490050EAC12018BF042080
:103C00004A0D18BF40F0010040F2FF72B2EB515F65
:103C100008BF40F00200012808BF052070470907CF
:103C2000090E002804DB00F1E02080F80014704742
:103C300000F00F0000F1E02080F8141D70473038CC
:103C40000A2801D2012070470020704710B580205B
:103C500000F050F80024202000F06CF8641C462C82
:103C6000F9DB10BD10B53220FDF7ACFF302000F0BD
:103C700041F80520FDF7A6FF302000F03BF80120B9
:103C8000FDF7A0FF302000F035F80A20FDF79AFF7D
:103C9000202000F02FF80A20FDF794FF282000F0E4
:103CA00029F80120FDF78EFF082000F023F80120FD
:103CB000FDF788FF012000F01DF80120FDF782FFCD
:103CC0000120FDF77FFF062000F014F80120FDF72A
:103CD00079FFBDE810400C2000F00CB810B10128AD
:103CE00005D102E041F0800101E041F0C001C8B21D
:103CF000AFF300801CB500F0F00141F00C028DF82C
:103D0000042041F0080100018DF8051040F00C017D
:103D10008DF8061040F008008DF807006420009030
:103D2000042301AA4E210248FEF72AF91CBD000017
:103D3000040100201CB500F0F00141F00D028DF8E7
:103D4000042041F0090100018DF8051040F00D013B
:103D50008DF8061040F009008DF8070064200090EF
:103D6000042301AA4E210248FEF70AF91CBD0000F7
:103D70000401002010B5044602E0641CFFF7DAFFDE
:103D800020780028F9D110BD08B5FEF7C5F9FFF776
:103D900039FDFFF7CFFAFFF7A5FA47484549002458
:103DA00001604649C0E901144FF48041C0E9034174
:103DB00044618461C4610462FEF71EF808B172B602
:103DC000FEE7FFF70DFBFFF757FB3B483C49E430AC
:103DD00001604FF4E131C0E901140C21C460C0E975
:103DE00004418461C461FFF760F808B172B6FEE770
:103DF00031483038FDF786FE02202F49009010230D
:103E00004E2201F59670FDF7BDFB2E4C4FF480520B
:103E100021462D48FDF7B2FB274800215430FEF71C
:103E2000EBFFFFF71FFF24494FF400439C3122466C
:103E300001F19C00FDF74BFC00F0A8F80121234A9A
:103E4000084600F097F9204C204A443C483A606309
:103E50000221102000F014F91C4AA062303A02211D
:103E6000102000F00DF9194AE062183A02211020E2
:103E700000F006F9154A2063D83A0021144800F0F2
:103E8000D1F9124AA061B43A0021124800F0CAF9EF
:103E90000E4AE061903A00210F4800F0C3F90B4A46
:103EA00020626C3A00210D4800F0BCF9606200F01D
:103EB00089F8FEE70054004004010020A0860100BC
:103EC00000380140000C0140440000204468000814
:103ED000D1360008313700087D370008BD350008AD
:103EE0002DE9F0410D460646501B02F026F8044627
:103EF0000F46304602F038F800220A4B01F098FED7
:103F000022463B4602F044F806460C46284602F09C
:103F10002BF83246234601F0E3FD01F0E1FF80B2C9
:103F2000BDE8F0810074AF4038B50546EFF3058079
:103F300048B9EFF3108030B909480068022805D16C
:103F4000EFF3118010B16FF0050407E0002401F0D9
:103F500001FC291A0090684600F032FF204638BD67
:103F6000AC000020EFF3058048B9EFF3108030B9C2
:103F700005480068022804D1EFF3118008B101F070
:103F8000EFBB01F0E7BB0000AC000020EFF30580C1
:103F900058B9EFF3108040B909490868022801D0E8
:103FA00030B109E0EFF3118030B16FF005007047D8
:103FB00001200860002070474FF0FF30704700007C
:103FC000AC00002010B5EFF3058060B9EFF310806E
:103FD00048B90B490868022802D0012806D00BE036
:103FE000EFF3118040B16FF0050010BD02200860B2
:103FF00000F06EFF002010BD4FF0FF3010BD00003C
:10400000AC000020F8B51D466FF003026FF0020609
:104010004FF00004EFF305834BB9EFF3108333B98E
:10402000154B1B68022B17D1EFF31183A3B1F0B12D
:10403000E9B1E5B9002200926A4601F09DFA012833
:1040400017D10098B0B10D494FF080500860BFF310
:104050004F8FBFF36F8F0DE048B141B12A4601F099
:10406000EFF9012806D025B16FF0010402E01446F3
:1040700000E034462046F8BDAC00002004ED00E02E
:10408000F8B514464FF00005EFF305826ABBEFF375
:10409000108252BB164A1268022A02D1EFF3118233
:1040A0001ABB10B309B3ACB1D4E902326BB1502AD8
:1040B0001BD32269CAB1676900FB01F6B74214D36A
:1040C0000025009501F037F807E072B9226962B95E
:1040D000626952B9002201F00AF8050005D00CB15E
:1040E000216800E0002100F009FE2846F8BD00002C
:1040F000AC000020F8B51D466FF003026FF0020619
:104100004FF00004EFF305834BB9EFF3108333B99D
:10411000164B1B68022B18D1EFF31183ABB100B320
:10412000F9B1F5B90022134600926A4601F02AF966
:10413000012818D10098B8B10D494FF0805008609F
:10414000BFF34F8FBFF36F8F0EE050B149B1002323
:104150002A4601F067F8012806D025B16FF0010466
:1041600002E0144600E034462046F8BDAC000020D2
:1041700004ED00E0F8B5144603460E464FF0000586
:10418000EFF30580E8BBEFF31080D0BB2448006854
:10419000022802D1EFF3118098BB93B39E423DD821
:1041A0004CB1A0680028E06803D0502836D3012025
:1041B00002E008B132E00020012B05D010B3184610
:1041C000A26800F074FF20E040B1032000900022BC
:1041D00011460120A36800F0AEFF04E00322002195
:1041E000012000F084FF050018D086B100231A4694
:1041F000194601F017F8012809D0284600F092FD71
:1042000000250BE0184600F035FF050006D00CB184
:10421000216800E00021284600F070FD2846F8BD26
:10422000AC000020F0B585B04FEA01034FF0000468
:10423000EFF305810394A1BBEFF3108189BB214902
:104240000968022902D1EFF3118151BB48B38026DE
:1042500018218DF8104004AD42B3176807B13D46F0
:1042600097691FB139467F1E382F02D21779FF0791
:1042700002D0002005B0F0BD576907B1BE08D2F8E2
:1042800008C0BCF1000F0DD0D4685C2C18D31269A3
:104290003AB137B18DE806103246294601F021FACD
:1042A00003900DE0D7685FB912694AB903AACDE956
:1042B0000012B2B2294601F0E7F9012800D00394B8
:1042C0000398D7E7AC0000202DE9F041134C0F46CE
:1042D000054666692068001D00F016FC681C07D1C1
:1042E00037B12168BDE8F0410D48091D00F05CBC04
:1042F00020683544B5424560216805D2A068BDE814
:10430000F041091D00F038BC6068091D00F034FC64
:10431000206B854200D22563BDE8F0815C0000205F
:10432000840700202DE9F041054600F049FC2D4CA2
:104330002069401C206120682B4F10B1E06930B328
:104340002BE025602069012827D1002606EB860096
:1043500007EB800000F002FC761C382EF6D32348D1
:1043600000F0FCFB2148143000F0F8FB1F48283017
:1043700000F0F4FB1D483C3000F0F0FB1B485030CF
:1043800000F0ECFB194860601430A06005E0206884
:10439000E96AC06A884200D82560E06A401CE06291
:1043A0006864E86AA169884200D9A06100EB8000D6
:1043B00007EB8000291D00F0F7FB00F021FCE0690D
:1043C00000280CD02068E96AC06A884207D20849F0
:1043D0004FF080500860BFF34F8FBFF36F8FBDE881
:1043E000F08100005C000020D4020020340700208F
:1043F00004ED00E038B500F0E3FB104CA068C8B94C
:104400000F4800F0ABFB0E48143000F0A7FB0C483F
:104410002060143060600A4B00202833009003F1C4
:10442000500210210A2000F086FEA06010B105A104
:1044300000F064FCBDE8384000F0E2BB98000020CA
:1044400098070020546D72510000000030B4026CD7
:104450000B46002A0BD0C1681144C1604468A142D8
:1044600001D30168C16030BC1846FBF7E6BF30BC21
:1044700070472DE9F041856B174604460026026C13
:1044800082B1C7B1E068FBF7D8FFE168206C091A78
:10449000E1602268914202D26168081AE060022F4E
:1044A00016D017E02068A8B9606801F0C5F9064683
:1044B000002060600EE0A068FBF7BFFF216CA068E1
:1044C0000844A0606168884204D32068A06001E0CD
:1044D00005B16D1E6D1CA5633046BDE8F08110B5B9
:1044E000044690F8590058B101280CD002280FD08A
:1044F000502080F31188BFF34F8FBFF36F8FFEE71B
:10450000206B00F091FB2046BDE8104000F08CBB12
:1045100010BD000010484FF44061420706D0C01D96
:104520000D4920F00700411AC1F540610B4A0023F4
:104530000144C2E900030839103A21F00701116073
:104540004B600B600B1AC0E9001393604FF0004002
:104550005360D06070470000680F0020C00000204A
:10456000144E154CA6F29C474FF08058DFF84C9043
:1045700012E000BF00F024FBF068C568281D00F0C1
:10458000C3FA2069401E2061E068401EE06000F030
:1045900037FB2846FFF7A3FFE0680028EAD1386818
:1045A0000128F9D9C9F80080BFF34F8FBFF36F8F8F
:1045B000F2E70000700700205C00002004ED00E03E
:1045C00070B51D46049C51B1C4F80020C4E90F0128
:1045D0000121204600F0E2FD84F84C5070BD2460BB
:1045E000F4E72DE9F0470E46DDE9098417468246D7
:1045F00091009946089DA522206BFBF763FF6FF0A1
:104600000301206B01EB8701084420F007077807BE
:1046100007D0502080F31188BFF34F8FBFF36F8F07
:10462000FEE72218315C82F83410315C11B1401C75
:104630001028F6D3002684F84360382D00D33725A0
:10464000E562C4E91356201D00F093FA04F1180046
:1046500000F08FFA2461C5F138006462A0616665DC
:1046600084F858604A465146384600F03BFA2060CC
:10467000B8F1000F01D0C8F80040BDE8F087000095
:1046800030B5114900E011460A688242FBD34B68FD
:104690005C18844203D14068184448600846436867
:1046A0001C18944209D1084C103C2468A24209D03D
:1046B00052681A4442600A6812680260814200D05F
:1046C000086030BD0460F9E7C000002070B5002428
:1046D00041600B4D0061914206D8D11A8269914226
:1046E00006D2011D686807E09A4203D2994201D3BD
:1046F000012403E0011D286800F03EFA204670BD49
:104700009800002010B5044600F05AFAA06B28B1BA
:104710005FF0000400F074FA204610BD0124F9E7B0
:1047200030B589B0304D55E00498002806DADDE94F
:104730000601059A9047049800284BDB069C6069A7
:1047400010B1201D00F0E0F902A800F0B9F802460F
:1047500004980A283ED2DFE800F00505053D26371B
:1047600005053D260598A169034601442046FFF74B
:10477000ADFF00B3616A20468847E069012829D16E
:10478000002000900598A169002342181946204690
:1047900001F05CF978B9502080F31188BFF34F8F96
:1047A000BFF36F8FFEE70598A06128B1811813460B
:1047B0002046FFF78BFF0DE0502080F31188BFF3F8
:1047C0004F8FBFF36F8FFEE794F82C0010B920468F
:1047D00000F02AFA002204A9A86800F031FE00289F
:1047E000A2D109B030BD0000980000202DE9FC41A5
:1047F0000F46054600F0B0FB01A800F061F8044642
:10480000019818B101F090F8BDE8FC81224EAFB1DB
:1048100070680068A8B30027291B3A46B06800F00A
:10482000ADFA01F081F80028EED11C494FF080501C
:104830000860BFF34F8FBFF36F8FE5E7A542EBD85A
:1048400001F072F830682746C068C468201D00F087
:104850005BF9E069012810D1A0692B4641193A465D
:104860002046FFF733FF40B1002003460146009089
:104870002A46204601F0EAF820B1616A20468847BE
:10488000C2E707E0502080F31188BFF34F8FBFF3DA
:104890006F8FFEE70127BFE79800002004ED00E0DE
:1048A00006484168096829B14168C968C96849680A
:1048B000016370474FF0FF31FAE700005C00002011
:1048C00070B5054600F046FF064E04463069844246
:1048D00003D200F009F8012000E000202860204603
:1048E000346170BD98000020F8B5194D1FE0C06814
:1048F000C4680668201D00F007F9616A20468847F1
:10490000E069012813D1A0693044B04206D924617E
:104910006060211D286800F02FF908E000200346A0
:10492000014600903246204601F090F838B12868E0
:1049300001680029DBD16968C5E90010F8BD502085
:1049400080F31188BFF34F8FBFF36F8FFEE7000036
:104950009800002008484068401C4FF0500080F349
:10496000118804D0BFF34F8FBFF36F8FFEE7BFF303
:104970004F8FBFF36F8FFEE7C8000020074C206801
:10498000016841B1C0680021D0F80000FFF72EFF98
:10499000FFF7C6FEF3E701210020F7E798000020AB
:1049A0002DE9F041044600F00BF994F9455004F16B
:1049B000240609E0606A48B1304600F07DFF08B186
:1049C00000F04CFA6D1E6DB2002DF3DC4FF0FF3697
:1049D00084F8456000F014F900F0F2F894F94450BE
:1049E00004F1100709E0206948B1384600F064FF7F
:1049F00008B100F033FA6D1E6DB2002DF3DC84F8BF
:104A00004460BDE8F04100F0FBB800002DE9F04142
:104A10000546002700F0A0FA314E306808B9FFF7CC
:104A200079FDF06805424BD1C5B3083568070ED053
:104A300005F00700C0F108000544680707D05020C2
:104A400080F31188BFF34F8FBFF36F8FFEE72DB355
:104A50007068854234D82248103001460C6801E065
:104A600020460C466168A94202D221680029F7D18C
:104A700031688C4224D0076821680160606808377B
:104A8000411B10290FD96019420708D0502080F32C
:104A90001188BFF34F8FBFF36F8FFEE710E04160C7
:104AA0006560FFF7EDFD61687068401A7060B2687C
:104AB000904200D2B060F06801430020C4E90001D8
:104AC00000F032FF780707D0502080F31188BFF341
:104AD0004F8FBFF36F8FFEE73846BDE8F0810000CF
:104AE000B000002010B5031F4FF080741C601B1F26
:104AF00021F001011960191F024B0B601439403875
:104B00000A6010BD55490008D0E9013201699A6078
:104B1000D0E901235A604A68824201D182684A6022
:104B2000002202610868401E0860086870470000A3
:104B3000034B036003F15C00086080201060704745
:104B4000B0080020044B036003F15C0008604FF4E0
:104B500080701060704700000C0B002000F108010D
:104B60004FF0FF32C0E90112C16001610021016014
:104B7000704700210161704730B50B685A1C02D0A4
:104B800000F1080202E0026904E022465468256848
:104B90009D42FAD953684B6099608A605160086100
:104BA0000168491C016030BD42684A6093688B60AF
:104BB00093685960916008610168491C0160704701
:104BC000502080F31188BFF34F8FBFF36F8F0A49D6
:104BD0004868401C486001280CD10848006810F063
:104BE000FF0F07D0502080F31188BFF34F8FBFF322
:104BF0006F8FFEE770470000C800002004ED00E062
:104C00000849486828B1401E486001D180F31188E6
:104C10007047502080F31188BFF34F8FBFF36F8F21
:104C2000FEE70000C800002070B5002827D0144D12
:104C3000A0F108046168E868014207D1502080F3C0
:104C40001188BFF34F8FBFF36F8FFEE722683AB131
:104C5000502080F31188BFF34F8FBFF36F8FFEE7B3
:104C60008143616000F078F96068696808446860B1
:104C70002046FFF705FDBDE8704000F055BE70BD51
:104C8000B00000204FF0E020002101618161054962
:104C90004FF47A720968B1FBF2F1491E41610721B4
:104CA000016170475800002010B5FBF7C1FA1149A7
:104CB00010280ED300F1E02090F8F0030A7890421B
:104CC00007D2502080F31188BFF34F8FBFF36F8F4F
:104CD000FEE709480068896800F4E060884207D967
:104CE000502080F31188BFF34F8FBFF36F8FFEE723
:104CF00010BD0000C80000200CED00E010B5084B0E
:104D0000002200BF53F832401CB1521C082AF9D3CC
:104D100010BD43F8321003EBC201486010BD000023
:104D20009402002010B504000AD000F013F894F8A3
:104D3000460000280CD12046BDE81040FFF774BFA4
:104D4000502080F31188BFF34F8FBFF36F8FFEE7C2
:104D500010BD0000084A002102EBC1035B688342DA
:104D600006D1002042F8310002EBC10148607047D3
:104D7000491C0829F0D370479402002070B51546ED
:104D80000E460446FFF71CFF94F944100020491C0E
:104D900001D184F8440094F94510491C01D184F8EC
:104DA0004500FFF72DFFA06B28B92A46314604F1D4
:104DB000240000F071F82046BDE87040FFF7F0BD18
:104DC00070B50D4604000BD095B11E4A906BB8B17A
:104DD000502080F31188BFF34F8FBFF36F8FFEE732
:104DE000502080F31188BFF34F8FBFF36F8FFEE722
:104DF000502080F31188BFF34F8FBFF36F8FFEE712
:104E000000F0AAF8526923685919934204D98B42D9
:104E10000AD9914202D807E08B42FAD9881A216058
:104E20000021FFF751FA00E0216000F07DFD00282D
:104E300007D105494FF080500860BFF34F8FBFF393
:104E40006F8F70BD5C00002004ED00E002498A6AAB
:104E500002604969416070475C00002001490120FF
:104E6000486270475C00002010B50C4650B10949FB
:104E700009681831FFF780FE2046BDE81040012187
:104E8000FFF722BA502080F31188BFF34F8FBFF392
:104E90006F8FFEE75C00002070B514460D4668B1C8
:104EA0000A4909681831FFF77FFE0CB14FF0FF3552
:104EB00021462846BDE87040FFF706BA502080F32F
:104EC0001188BFF34F8FBFF36F8FFEE75C000020A8
:104ED00030B587B00024039405AA04A903A804945C
:104EE000FFF726FEDDE903010094CDE90110002360
:104EF00015A11748059A00F0F4FB164D00286863C9
:104F00001FD000F073FD012809D0401C19D150209A
:104F100080F31188BFF34F8FBFF36F8FFEE75020F0
:104F200080F31188BFF34F8FBFF36F8F4FF0FF30C7
:104F300028630120E8616C6107B0BDE8304000F0F3
:104F400045B807B030BD000049444C4500000000A2
:104F5000614500085C0000200248816B491C8163A8
:104F6000704700005C000020164810B5816B11B13D
:104F70000121416210BD002141628169124A01E0B4
:104F8000B9B1491E01EB810352F82330002BF7D051
:104F900001EB810302EB830202F1080453685B68B2
:104FA0005360A34201D15B685360DA68026081619B
:104FB00010BD502080F31188BFF34F8FBFF36F8F68
:104FC000FEE700005C000020D40200201CB526494A
:104FD00008780190FF20087008788DF800009DF88F
:104FE00000009DF8002000F0F000904207D0502013
:104FF00080F31188BFF34F8FBFF36F8FFEE79DF8EB
:1050000000001A4B00F0500018700720986005E06F
:105010009DF8002052008DF80020401E9DF80020D1
:105020001206F5D49860032807D0502080F3118829
:10503000BFF34F8FBFF36F8FFEE74FF44070986060
:10504000019808700A48016841F470010160016824
:1050500041F070410160FFF715FE00205860FBF73A
:10506000B1F800201CBD000000E400E0C8000020F2
:1050700020ED00E010B50C4648B184420FD9502015
:1050800080F31188BFF34F8FBFF36F8FFEE750207F
:1050900080F31188BFF34F8FBFF36F8FFEE70222BB
:1050A000002100F024F8002800D0846310BD38B53A
:1050B0000C4648B184420FD9502080F31188BFF3C9
:1050C0004F8FBFF36F8FFEE7502080F31188BFF33F
:1050D0004F8FBFF36F8FFEE702211346002200912E
:1050E000114600F028F8002800D0846338BDF8B5D8
:1050F00017460E46050014D0DEB105FB06F0503011
:10510000FFF784FC04000AD0002084F8460004F174
:1051100050023B46314628460094FFF751FA20469C
:10512000F8BD502080F31188BFF34F8FBFF36F8F0E
:10513000FEE70020E3E738B5049D18B153B1CAB1CA
:1051400081B120E0502080F31188BFF34F8FBFF36F
:105150006F8FFEE7502080F31188BFF34F8FBFF3AE
:105160006F8FFEE7502080F31188BFF34F8FBFF39E
:105170006F8FFEE739B1502080F31188BFF34F8F56
:10518000BFF36F8FFEE750241C46012384F846309E
:105190002B460094FFF714FA204638BD70B50D4633
:1051A000040025D0FFF70CFDD4E90F20216802FB95
:1051B000001161600021A1632168A1600A46D4E961
:1051C0000F01401E00FB0121E16021464FF0FF303E
:1051D00001F8440F487004F110008DB1FFF7BEFCD8
:1051E00004F12400FFF7BAFCFFF70AFD012070BDAF
:1051F000502080F31188BFF34F8FBFF36F8FFEE70E
:1052000021690029F0D000F057FB0028ECD00449B8
:105210004FF080500860BFF34F8FBFF36F8FE3E70D
:1052200004ED00E02DE9FF4782B01D468A464FF0AD
:105230000008040003D0BAF1000F08D011E050209C
:1052400080F31188BFF34F8FBFF36F8FFEE7206CA1
:1052500038B1502080F31188BFF34F8FBFF36F8FA9
:10526000FEE7022D0AD1E06B012807D0502080F321
:105270001188BFF34F8FBFF36F8FFEE700F05CFA2A
:105280003F4F4FF000094FF0805648B9049838B1AD
:10529000502080F31188BFF34F8FBFF36F8FFEE76D
:1052A000FFF78EFCA06BE16B884207D3022D05D07F
:1052B0000498D0B1B8F1000F1AD01EE02A4651462A
:1052C0002046FFF7D6F8616A19B104F1240000F016
:1052D000F3FA20B13E60BFF34F8FBFF36F8FFFF73C
:1052E0008FFC012006B0BDE8F087FFF789FC22E0C3
:1052F0006846FFF7ABFD4FF00108FFF781FCFFF7B1
:105300002BFEFFF75DFC94F94400401C01D184F8AA
:10531000449094F94500401C01D184F84590FFF772
:105320006FFC04A9684600F075F930B12046FFF71C
:1053300037FB00F0F9FA0020D4E7FFF741FCA06B3F
:10534000E16B884213D1FFF75BFC04F11000049974
:10535000FFF78AFD2046FFF723FB00F0E5FA00285F
:105360009ED13E60BFF34F8FBFF36F8F98E7FFF77B
:1053700047FC2046FFF714FB00F0D6FA90E7000048
:1053800004ED00E02DE9F0471F46904689460400F1
:1053900003D0B9F1000F08D011E0502080F311883C
:1053A000BFF34F8FBFF36F8FFEE7206C38B15020F3
:1053B00080F31188BFF34F8FBFF36F8FFEE7022F8B
:1053C0000AD1E06B012807D0502080F31188BFF389
:1053D0004F8FBFF36F8FFEE7FFF766FC5020EFF3B0
:1053E000118680F31188BFF34F8FBFF36F8FA06BCF
:1053F000E16B884206D3022F04D0002086F3118887
:10540000BDE8F08794F945503A4649462046FFF7F3
:1054100030F8681C04D06D1C84F845500120EDE77D
:10542000606A0028FAD004F1240000F045FA002850
:10543000F4D0B8F1000FF1D00121C8F80010EDE769
:105440002DE9F747002683B08A46040003D0BAF15D
:10545000000F08D011E0502080F31188BFF34F8F68
:10546000BFF36F8FFEE7206C38B1502080F31188B6
:10547000BFF34F8FBFF36F8FFEE700F05DF9DFF8EA
:10548000F4804FF000094FF0805748B9059838B1C3
:10549000502080F31188BFF34F8FBFF36F8FFEE76B
:1054A000FFF78EFBA56BC5B151462046FEF7CEFF38
:1054B0006D1EA563206950B104F1100000F0FCF9E5
:1054C00028B1C8F80070BFF34F8FBFF36F8FFFF79D
:1054D00097FB012006B0BDE8F087059808B11EB122
:1054E00006E0FFF78DFB27E06846FFF7AFFC0126DB
:1054F000FFF786FBFFF730FDFFF762FB94F94400EE
:10550000401C01D184F8449094F94500401C01D11D
:1055100084F84590FFF774FB05A9684600F07AF817
:10552000002820460AD0FFF73BFA00F0FDF920469C
:10553000FFF7E8F80028B3D00020CBE7FFF7E2F848
:1055400090B104F124000599FFF78EFC2046FFF787
:1055500027FA00F0E9F90028A2D1C8F80070BFF3DB
:105560004F8FBFF36F8F9BE72046FFF719FA00F0CC
:10557000DBF995E704ED00E02DE9F0479046894618
:10558000040003D0B9F1000F08D011E0502080F3DF
:105590001188BFF34F8FBFF36F8FFEE7206C38B1D8
:1055A000502080F31188BFF34F8FBFF36F8FFEE75A
:1055B000FFF77AFB5020EFF3118680F31188BFF3D9
:1055C0004F8FBFF36F8FA76BF7B194F944504946E3
:1055D0002046FEF73BFF7F1EA763681C04D06D1CAE
:1055E00084F84450012010E020690028FAD004F12A
:1055F000100000F061F90028F4D0B8F1000FF1D0EC
:105600000121C8F80010EDE7002086F31188BDE8FD
:10561000F08700002DE9F0410C46050011D0C4B11F
:10562000FFF7CEFA174B5A696E682068911B471C2A
:1056300017D02F689B6A9F4219D0964217D8012431
:1056400010E0502080F31188BFF34F8FBFF36F8FAE
:10565000FEE7502080F31188BFF34F8FBFF36F8FA9
:10566000FEE70024FFF7CCFA2046BDE8F08188422F
:1056700005D9401A20602846FFF7E8FBF1E7002033
:105680002060DCE75C0000202DE9FF5F8346DDE958
:105690000E87994616468A469000FFF7B7F905002F
:1056A0001CD05C20FFF7B2F9040014D00020256361
:1056B00084F85900CDE90240CDE900874B463246D7
:1056C00051465846FEF78DFF2046FEF72BFE01207F
:1056D00004B0BDE8F09F2846FFF7A6FA4FF0FF3070
:1056E000F6E7F0B585B0DDE90B640A9DA6B1DCB143
:1056F0005C2700972663022684F85960002604AFD1
:10570000CDE90246CDE90057FEF76BFF2046FEF7D4
:1057100009FE049805B0F0BD502080F31188BFF356
:105720004F8FBFF36F8FFEE7502080F31188BFF3D8
:105730004F8FBFF36F8FFEE70548C16919B1806BCA
:1057400018B1002070470120704702207047000008
:105750005C00002001484069704700005C000020A8
:1057600010B5FFF7A1FA0148406910BD5C000020A8
:105770002DE9F0412E4C0027A06B40B1206A401C5F
:105780002062606A00B101273846BDE8F081666991
:10579000761C666113D16068006838B1502080F3D0
:1057A0001188BFF34F8FBFF36F8FFEE76068A1686A
:1057B0006160A060A06A401CA062FFF771F8206BD6
:1057C000DFF87080864209D36068006880B1606845
:1057D000C068C568686886420DD220632068C06AC8
:1057E00000EB800158F821000128CAD90127C8E739
:1057F0004FF0FF30F1E7281DFFF786F9A86A18B1CE
:1058000005F11800FFF780F9E86AA169884200D91C
:10581000A06100EB800108EB8100291DFFF7C4F9AE
:10582000E86A2168C96A8842CED30127CCE7000024
:105830005C000020D402002070B504004FF000018D
:1058400033D01B4D2868844207D0502080F3118844
:10585000BFF34F8FBFF36F8FFEE7206D38B1401E4F
:105860002065E36CE26A9A421FD040B11DE05020EF
:1058700080F31188BFF34F8FBFF36F8FFEE7201DBA
:10588000FFF742F9E06CE062C0F13800A061E06A25
:10589000A969884200D9A861064900EB800001EBA4
:1058A0008000211DFFF780F90121084670BD00002E
:1058B0005C000020D402002070B5C068C46854B1F8
:1058C00004F118000646FFF71FF9144DA86B50B1FC
:1058D0003146134815E0502080F31188BFF34F8FF5
:1058E000BFF36F8FFEE7201DFFF70EF9E06AA9698D
:1058F000884200D9A8610B4900EB800001EB8000D1
:10590000211DFFF751F9E06A2968C96A884202D966
:105910000120686270BD002070BD00005C000020A6
:105920005C070020D40200202DE9F0472C4D002414
:105930002746A86B38B1FFF743F9A86B401EA86350
:10594000A86B40B146E0502080F31188BFF34F8F21
:10595000BFF36F8FFEE72969224E0120D1B3A6F570
:10596000916980463068E0B1F068C46804F11800BD
:10597000FFF7CAF8201DFFF7C7F8E06AA969884257
:1059800000D9A86100EB800109EB8100211DFFF720
:105990000BF9E06A2968C96A8842E3D3C5F8248014
:1059A000E0E70CB1FEF77CFF2C6A4CB14FEA080629
:1059B000FFF7DEFE00B16E62641EF9D1002028629E
:1059C000686A38B10849012738070860BFF34F8F6C
:1059D000BFF36F8FFFF714F93846BDE8F08700007A
:1059E0005C0000205C07002004ED00E010B586B0EC
:1059F000FEF700FD114CA068B8B1002003900490A0
:105A000005AA04A903A8FFF79DF8DDE903210220F8
:105A10008DE8070000230AA10B48059AFFF761FEF5
:105A2000E06010B106B0012010BD502080F3118855
:105A3000BFF34F8FBFF36F8FFEE700009800002089
:105A4000546D7220537663007D4900082DE9FF41B3
:105A50001E46134602000A9D4FF0000016D0144C5B
:105A6000A768002F0FD0CDE900130292062917DA9C
:105A7000FFF762FE02284FF000030FD000226946B4
:105A8000A068FFF7CFFB04B0BDE8F081502080F3A1
:105A90001188BFF34F8FBFF36F8FFEE72A46EEE703
:105AA0000023324669463846FFF76CFCEBE70000FE
:105AB0009800002010B500290AD00878002807D0E7
:105AC00005487844FBF7E0F8002801D0002010BD1D
:105AD0000248784410BD0000DA0E0000D20E00002B
