:020000040800F2
:100000000807002091010008111600084913000894
:100010000F1600082F050008531800080000000004
:100020000000000000000000000000009F16000813
:10003000270800080000000013160008FD1700083C
:10004000AB010008AB010008AB010008AB010008E0
:10005000AB010008AB010008AB010008AB010008D0
:10006000AB010008AB010008AB010008AB010008C0
:10007000AB010008AB010008AB010008AB010008B0
:10008000AB010008AB010008AB010008AB010008A0
:10009000AB010008AB010008AB010008AB01000890
:1000A000AB010008AB010008AB010008AB01000880
:1000B000AB010008AB010008AB010008AB01000870
:1000C000AB010008AB010008AB010008AB01000860
:1000D000AB010008AB010008AB010008AB01000850
:1000E000AB010008AB010008AB01000800F002F80A
:1000F00000F03FF80AA090E8000C82448344AAF183
:100100000107DA4501D100F034F8AFF2090EBAE880
:100110000F0013F0010F18BFFB1A43F0010318473B
:100120006418000084180000103A24BF78C878C111
:10013000FAD8520724BF30C830C144BF04680C60ED
:10014000704700000023002400250026103A28BF35
:1001500078C1FBD8520728BF30C148BF0B60704739
:10016000642900F07D80002070471FB51FBD10B5C9
:1001700010BD00F052F91146FFF7F7FF01F07AFBCE
:1001800000F070F903B4FFF7F2FF03BC00F078F958
:100190000948804709480047FEE7FEE7FEE7FEE71B
:1001A000FEE7FEE7FEE7FEE7FEE7FEE70448054957
:1001B000054A064B7047000051180008ED00000882
:1001C0000801002008070020080300200803002081
:1001D0000FB41CB5074B06AA7B44694600900598EE
:1001E00000F003F90020694600F012F91CBC5DF82C
:1001F00014FB0000350200002DE9F0410E460446D4
:10020000002020622046E168884730B3252805D0C9
:10021000D4E901219047206A401CF2E7E1682046BA
:1002200000278847050018D0A5F14100192802D8F9
:1002300020354FF400673246294620462760FFF7F5
:100240008FFF40B1012804D0F61D26F007060836BE
:10025000D8E7361DD6E72846DAE7206ABDE8F08100
:100260002DE9F0410646002410687529314616A58F
:1002700010D0AFF30080002802DA404213A507E057
:1002800031688A0701D512A502E0490704D511A5F6
:10029000012401E0AFF3008000210A2206F12407C7
:1002A00009E0B0FBF2FCB0FBF2F302FB1C003030C3
:1002B00078541846491C0028F3D123462A46304674
:1002C000BDE8F04100F032B8000000002D00000051
:1002D0002B000000200000004FF0000200B5134684
:1002E00094469646203922BFA0E80C50A0E80C5056
:1002F000B1F12001BFF4F7AF090728BFA0E80C5007
:1003000048BF0CC05DF804EB890028BF40F8042BFF
:1003100008BF704748BF20F8022B11F0804F18BF6C
:1003200000F8012B70477047704770472DE9F04780
:100330000D4699469246044600F124080168880655
:1003400004D5E06921F01001216000E00120A842FD
:1003500001DD471B00E00027A1697A1902EB0900C3
:10036000081AA0612078C00602D42046AFF30080AE
:10037000002608E0D4E901211AF806009047206A17
:10038000401C761C20624E45F4DB2078C0060AD55E
:100390002046AFF3008006E0D4E9012130209047E9
:1003A000206A401C2062381EA7F10107F4DC07E038
:1003B000D4E9012118F805009047206A401C20620A
:1003C000281EA5F10105F3DC2046AFF3008020785C
:1003D000000602D50220BDE8F0870120FBE70000FF
:1003E00001694A1C02610878704700B58FB0CDE9F9
:1003F00001310021059105497944CDE903101146E9
:100400006846FFF7F9FE0FB000BD0000E5FFFFFFF3
:100410000A6802F8010B0A607047754600F02CF874
:10042000AE4605006946534620F00700854618B0E1
:1004300020B5FFF7BBFEBDE820404FF000064FF0AF
:1004400000074FF000084FF0000B21F00701AC4609
:10045000ACE8C009ACE8C009ACE8C009ACE8C00928
:100460008D46704710B50446AFF300802046BDE8C6
:100470001040FFF787BE000000487047A40000202E
:1004800001491820ABBEFEE726000200704701605C
:10049000828070472DE9F0470025044685710126CA
:1004A00006E02089401C20813046E67100F0BCF94E
:1004B000204600F038F80028F3D0E07970B14FF40E
:1004C000967840F2B5374FF47A79204600F02BF851
:1004D000012806D0204600F026F8F0B10020BDE843
:1004E000F0876089401C6081012000F09DF96089DF
:1004F0004045EAD92089A0F13301B94205D8E57118
:1005000025816581A6713046E9E74845DDD9E57169
:10051000258165810320A071E1E70220A071E571CA
:1005200025816581DBE78188006800F07FBAFEE7FE
:1005300010B50022012100F087F8BDE81040052029
:1005400000F072B910B504460298216022716371FF
:10055000A0712820A0720620E0710C2020721420C7
:1005600060720820E072322000F05EF90022332130
:10057000204600F069F800223321204600F064F89C
:10058000052000F051F900223221204600F05CF8ED
:10059000052000F049F900222021204600F054F8FF
:1005A000052000F041F9E1790022204600F04CF8E6
:1005B000217A0022204600F047F8617A0022204686
:1005C00000F042F8A17A0022204600F03DF8002217
:1005D0000121204600F038F820460022BDE81040F6
:1005E000022100F031B830B4447900238C4201D8A4
:1005F000641EE1B28479944201D8641EE2B232B141
:10060000012A06D0022A06D0032A06D007E00B46AC
:1006100005E0403102E0143100E05431CBB230BC8F
:1006200043F08001002200F00FB8012200F00CB866
:1006300070B50C46054603E02846641CFFF7F5FF3D
:1006400021780029F8D170BD7CB506460807040E54
:10065000F07A01F0F00518B145F0080544F00804FF
:10066000012A01D02AB108E045F0010544F0010457
:1006700003E025F0010524F0010445F004008DF8A5
:100680000400012000F0D0F88DF8055044F004007B
:100690008DF80600012000F0C7F84FF47A708DF84D
:1006A000074000903179042301AA306800F08EFAE7
:1006B0007CBD2DE9F0471C46089E0546301B00EB2B
:1006C000D07040102860924688460846FFF7E2FE48
:1006D000012804D0022812D0032844D126E028683B
:1006E000401E2860A04204DBB04201DD344600E039
:1006F0000446514628462C6000F08CFF33E000276A
:100700002868401E2860A04201DA204602E0B0427C
:1007100000DD304628605146284600F07BFF32203D
:1007200000F082F87F1C022FEADD1CE000274FF06A
:100730000A0912E02868401E2860A04201DA20461B
:1007400002E0B04200DD304628605146284600F005
:1007500061FF142000F068F87F1CB8F80810B1FBA6
:10076000F9F0B842E6DA2868BDE8F0872DE9F047ED
:100770001C46089E0546301B00EBD07040102860D8
:10078000924688460846FFF785FE012804D00228D5
:1007900012D0032844D126E02868401C2860A042DB
:1007A00004DBB04201DD344600E0044651462846F1
:1007B0002C6000F02FFF33E000272868401C2860E1
:1007C000A04201DA204602E0B04200DD3046286057
:1007D0005146284600F01EFF322000F025F87F1C0D
:1007E000022FEADD1CE000274FF00A0912E028681A
:1007F000401C2860A04201DA204602E0B04200DD41
:10080000304628605146284600F004FF142000F0CE
:100810000BF87F1CB8F80810B1FBF9F0B842E6DA23
:100820002868BDE8F087704770B5044600F004F909
:100830000546601C02D004480078044400F0FCF82F
:10084000401BA042FAD370BD040000202DE9F84FF0
:10085000DFF8B8910024A9F1040B23460F2709F112
:10086000040AABF1040EC9E00125A5402A40AA42C2
:100870007DD1674ED1F804C0ACEB0608B44532D048
:1008800014DCBCF1030F3AD009DCBCF1000F2AD014
:10089000BCF1010F1CD0BCF1020F31D11DE0BCF145
:1008A000110F17D0BCF1120F2AD119E0B8F5881F2B
:1008B00019D006DCB8F5803F15D0B8F5801F1FD1E0
:1008C00011E0B8F5001F0ED0B8F5041F18D10AE0EA
:1008D000CB6815E0CB681B1D12E0CB6808330FE036
:1008E000CB680C330CE08B682BB1012B4FF0080365
:1008F00003D0456104E0042302E0056100E0002329
:10090000FF2A01D8064601E000F104064FEA8405FB
:1009100001D9A5F12005D6F8008007FA05FC28EAE0
:100920000C0803FA05F548EA0508C6F800804D688A
:10093000ED0062D5374DAE6946F00106AE61AD6996
:1009400024F0030605F001050095334D06EB050C78
:10095000DCF80850A607360F07FA06F825EA08055E
:10096000DFF8B880404503D14FF0000817E044E0BD
:10097000DFF8AC80404502D14FF001080FE0DFF80E
:10098000A480404502D14FF0020808E0DFF89880CB
:10099000404502D14FF0030801E04FF0040808FA87
:1009A00006F848EA0508CCF808804D68D9F80060D8
:1009B000ED024D4601D5164300E096432E604D688A
:1009C000DAF80060AD02554601D5164300E09643C3
:1009D0002E604D68DBF80060AD035D4601D516431F
:1009E00000E096432E604D68DEF80060ED0375462A
:1009F00001D5164300E096432E60641C0D682A461C
:100A0000E5407FF431AFBDE8F88F000008040140F5
:100A100000001110001002400000014000080140D9
:100A2000000C0140001001400014014080680840A3
:100A300000D0012070470000014880687047000026
:100A40000400002070B5040025D094F83D00002576
:100A500020B984F83C50204600F04EF9242084F858
:100A60003D002068016821F00101016020680168F3
:100A700041F4004101602068016821F400410160F7
:100A800000F088FA4D4A6168914201D84C4900E073
:100A90004C49884201D2012070BD4B492368B0FB0C
:100AA000F1F15E6826F03F060E435E606368934294
:100AB00006D94FF4967359434FF47A73B1FBF3F1AF
:100AC0002368491C1E6A26F03F063143196261689B
:100AD000914210D84900401EB0FBF1F2521CC2F303
:100AE0000B02042A01D2042022E0B0FBF1F0401CEA
:100AF000C0F30B001CE0A268F2B301EBC10303EBEF
:100B00000116431EB3FBF6F35B1C43F480431B0545
:100B100049D092B301EBC10202EB0111401EB0FBC0
:100B2000F1F0401CC0F30B0040F4804040F4004062
:100B30002168CA694CF6FF739A431043C861D4E92F
:100B4000071001432068026822F0C00211430160CF
:100B5000D4E9030101432068826848F2FF339A43D5
:100B600011438160D4E9050108432168CA6822F075
:100B7000FF021043C86001E00EE016E02068016843
:100B800041F0010101602564202084F83D002563C7
:100B900084F83E50002070BD01EB4106431EB3FBBC
:100BA000F6F35B1CB3E70120C2E701EB4101401EF5
:100BB000B0FBF1F0401CC0F30B00B7E7A0860100CA
:100BC00080841E0000093D0040420F002DE9F84FCF
:100BD0001F4690468A460446DDF82890FFF72CFF12
:100BE000054694F83D0020287FD119230122404971
:100BF0002046009500F03AFC002876D194F83C009D
:100C0000012872D0012084F83C0020680168C907DF
:100C100003D1016841F0010101602068016821F4FD
:100C200000610160212084F83D00102084F83E001E
:100C300000262664C4F824806785608D20852D48B1
:100C4000E0622B464A465146204600F095FB90B99B
:100C5000206841698069009036E02A46494620466E
:100C600000F0AAFC50B1206C042804D1206801686F
:100C700041F4007101600120BDE8F88F606A2168CD
:100C800000780861606A401C6062618D491E618560
:100C9000218D491E89B2218522685369DB435B0798
:100CA0000BD451B100781061606A401C6062608DA5
:100CB000401E6085208D401E20852A4649462046DC
:100CC00000F0A8FB0028CED1208D0028C5D154F813
:100CD0003D0B016841F400710160202004F81E09F9
:100CE000E67766770020C7E7FFE70220C4E7000049
:100CF000020010000000FFFF10B586B00021009137
:100D000001910291039100680F4988421AD10F4C5A
:100D1000A06940F00800A061A069694600F00800E1
:100D20000490C020009012200190032003900848F6
:100D3000FFF78CFDE06940F40010E061E06900F429
:100D40000010049006B010BD005400400010024096
:100D5000000C0140024881680278114481607047AC
:100D600004000020074810B5016841F0100101603F
:100D7000032000F067F80F2000F006F800F024F8D8
:100D8000002010BD0020024070B50D4D04464FF408
:100D90007A712878B1FBF0F00A490968B1FBF0F0EC
:100DA00000F0BEFA48B9102C07D200222146501E8E
:100DB00000F028F800206C6070BD012070BD0000BC
:100DC00004000020100000200C4808B5816941F0A3
:100DD00001018161816901F001010091C16941F066
:100DE0008051C161C06900F08050009004484168A2
:100DF00021F0E06141F00071416008BD0010024047
:100E000000000140F0B40E4B1B680C46C3F30223F4
:100E1000C3F10705042D00D90425191D072901D2A6
:100E2000002300E0DB1E012606FA05F1491E2140E1
:100E300099409E40761E16403143F0BC00F00ABD3A
:100E40000CED00E0064900F0070208684FF6FF03CA
:100E5000184040EA0220034A10430860704700002F
:100E60000CED00E00000FA052DE9F0470F46050003
:100E700061D0434E306800F00700B84209D23068B4
:100E800020F0070038433060306800F00700B842B7
:100E900051D128683B4C810712D5400703D56068C3
:100EA00040F4E06060602878000703D5606840F493
:100EB000605060606068A96820F0F00008436060DE
:100EC0002878C00728D06868012810D02168022837
:100ED00010D0890700292EDA616821F0030101434F
:100EE0006160FFF7A9FD804641F288390DE0216875
:100EF0008903EFE78901EDE7FFF79EFDA0EB08010D
:100F0000494502D90320BDE8F0876068696800F0B0
:100F10000C00B0EB810FEFD1306800F00700B84251
:100F20000BD9306820F0070038433060306800F09B
:100F30000700B84201D00120E5E72878400705D531
:100F40006068E96820F4E060084360602878000782
:100F500006D56068296920F4605040EAC1006060ED
:100F600000F028F86168084AC1F30311515CC840D9
:100F70000649086006480068FFF706FF0020C2E740
:100F800000200240001002406A19000810000020F2
:100F9000080000200448054900684968044AC1F374
:100FA0000221515CC8407047100000200010024030
:100FB0007A1900080E4A51680E4801F00C03042B00
:100FC00011D0082B0FD10C48C1F38343C903C05C77
:100FD0000AD55168084AC1F34041921E515C054A46
:100FE0005043B0FBF1F0704704494843704700009C
:100FF0000010024000127A005A19000800093D0052
:101000002DE9F84F040070D02078C04DC00749D0BA
:101010006868C0F38100012807D06868C0F38100C8
:10102000022809D16868C00306D52868800339D52D
:1010300060680028E7D035E06068B0F5803F0BD0ED
:1010400010B1B0F5A02F11D0286820F480302860AE
:10105000286820F4802002E0286840F4803028606E
:10106000606890B1FFF7E8FC06460AE0286840F4A3
:1010700080202860F0E700BFFFF7DEFC801B6428BB
:1010800073D828688003F7D50CE0FFF7D5FC064637
:1010900005E000BFFFF7D0FC801B6428F0D828686B
:1010A0008003F7D420789A4E80074FF001094FF063
:1010B000000839D5686810F00C0F07D06868C0F3D5
:1010C0008100022809D16868C00306D42868800717
:1010D00014D52069012808D110E02069B0B1C6F804
:1010E0000090FFF7A9FC074605E00AE1FFF7A4FC22
:1010F000C01B0228C4D828688007F7D52868616912
:1011000020F0F80040EAC10028600DE0C6F8008039
:10111000FFF792FC074604E0FFF78EFCC01B022895
:1011200023D828688007F7D4207800072CD5794881
:10113000A169D9B1C0F80090FFF77EFC074604E032
:10114000FFF77AFCC01B02280FD8686A8007F7D522
:1011500071484FF4FA510068B0FBF1F0009000BF05
:101160000098411E0091FAD20EE080E0C0F80080A5
:10117000FFF762FC074604E0FFF75EFCC01B022895
:1011800075D8686A8007F7D42078400760D5E86989
:101190000027C00008D4E86940F08050E861E869A1
:1011A000012700F0805000905C480168C90513D405
:1011B0000168834641F480710160FFF73DFC82467F
:1011C00006E000BFFFF738FCA0EB0A0064284ED809
:1011D000DBF80000C005F5D5E06801280AD008B1A9
:1011E000052813D0286A20F001002862286A20F020
:1011F000040002E0286A40F001002862E06841F241
:10120000883B98B1FFF718FC82460BE0286A40F053
:1012100004002862EEE700BFFFF70EFCA0EB0A0116
:1012200059455AD8286A8007F6D50CE0FFF704FC28
:10123000824605E0FFF700FCA0EB0A0159454CD8B7
:10124000286A8007F6D41FB1E86920F08050E86171
:10125000E06988B36968C1F38101022944D002289A
:10126000C6F8608004D0FFF7E7FB044638E034E0BE
:10127000FFF7E2FB074604E0FFF7DEFBC01B022896
:101280002BD828688001F7D4206AB0F5803F05D1BB
:101290006868A16820F4003008436860D4E9080158
:1012A0000843696821F4741108436860C6F86090C7
:1012B000FFF7C2FB044606E025E000BFFFF7BCFBDA
:1012C000001B022809D828688001F7D51BE000BF61
:1012D000FFF7B2FB001B022802D90320BDE8F88FFC
:1012E00028688001F4D40EE00128F7D06868226AEB
:1012F00000F48031914204D1616A00F47010884298
:1013000001D00120EAE70020E8E7000000100240D9
:101310000000424280044242100000200070004061
:1013200010B5401EB0F1807F01D3012010BD4FF0F9
:10133000E02460610F21601700F08CFA0020A061AA
:1013400007202061002010BDFEE701684A69D243F2
:1013500052050FD46FF480624A61002140F8301FBB
:10136000202242738173026942F004020261017318
:101370000120704700207047F8B50446C06A1E4639
:101380000D461746082807D0012805D010F5803FE4
:1013900002D0206B122804D12068016841F48071CA
:1013A0000160134600224FF001112046009600F024
:1013B0005DF840B120680068C00502D54FF40070A8
:1013C00020640320F8BD2069B0F5804F0ED00620C0
:1013D000216800EAD51040F0F000086133463A4633
:1013E0000B49204600F08AF878B902E005F0FE00CB
:1013F00000E0E8B221680861054933463A46891F92
:10140000204600F07BF80028DCD00120F8BD000069
:101410000800010070B516460D4604461EE0204641
:10142000FFF793FF08B1012070BD681C16D0FFF7CD
:1014300003FB801BA84200D885B920684069C043DF
:1014400040070BD5002044F8300F20216173A073B2
:10145000216941F0200121612073E4E7206840699F
:10146000C0434007DBD4002070BD00002DE9F047E9
:10147000984617460D460446C1F30746DDF820900E
:101480002AE000BFB8F1FF3F26D0FFF7D5FAA0EB66
:101490000901414502D8B8F1000F1DD12068012E85
:1014A00016D0806925EA00000004000C12D000204C
:1014B000B84211D1002044F8300F20216173A0738D
:1014C000216941F02001216120730120BDE8F087EE
:1014D0004069E7E70120EBE72068012E0AD0806928
:1014E00025EA00000004000C06D00020B842C9D054
:1014F0000020EBE74069F3E70120F7E72DE9F0472B
:10150000984616460D4604464FF000094FF0200A53
:10151000C1F3074723E020684069C043400515D464
:101520002068016841F40071016021686FF48060F7
:101530004861C4F8309084F83DA084F83E90216C56
:1015400041F00401216484F83C9021E0701C06D035
:10155000FFF772FAA0EB0800B04203D816B1012FD2
:101560001FD021E02068012F15D0806925EA0000F6
:101570000004000C18D000BF44F8309F84F80DA080
:1015800084F80E90216941F02001216184F80C90CB
:101590000120BDE8F087406925EA00000004000C46
:1015A000EAD12068406901E02068806925EA0000EE
:1015B0000004000CAFD1ECE770B516460D460446AA
:1015C0001EE02046FFF7C1FE08B1012070BD681C77
:1015D00016D0FFF731FA801BA84200D885B92068E1
:1015E0004069C04300060BD5002044F8300F20218D
:1015F0006173A073216941F0200121612073E4E748
:1016000020684069C0430006DBD4002070BDFEE7BF
:10161000FEE7704738B50C46026807A16846FEF73A
:10162000D7FD012205212046FEF7DDFF6946204651
:10163000FEF7FEFF38BD0000256400002DE9F041F3
:101640000E4602240846FEF725FF012804D0022892
:1016500004D0032820D10EE000241DE00025641CE6
:10166000E4B2022C00D900243220FFF7DDF86D1C13
:10167000022DF4DD10E000250A2708E0641CE4B226
:10168000022C00D900241420FFF7CEF86D1C3089FD
:10169000B0FBF7F0A842F1DA2046BDE8F0817047D0
:1016A0002DE9F84F0C46DDE90B8B0746994692462B
:1016B00058460A99FFF7C2FF002855D0012829D0C3
:1016C000022878D14046FEF733FF002211464046FB
:1016D000FEF789FF3BA14046FEF7AAFF0122052144
:1016E0004046FEF780FF3C250DE001234246494677
:1016F00020460095FEF7DDFF012342465146204675
:101700000095FFF733F858460A99FFF797FF02282C
:10171000EBD050E04046FEF70BFF0022114640465A
:10172000FEF761FF2BA14046FEF782FF0122052153
:101730004046FEF758FF642604F108050DE000233B
:101740004246494628460096FEF7B3FF002342462C
:10175000514628460096FFF709F858460A99FFF7C0
:101760006DFF0128EBD026E04046FEF7E1FE0022A7
:1017700011464046FEF737FF1AA14046FEF758FFD4
:10178000012205214046FEF72EFF28250DE00A2301
:1017900042464946201D0095FEF78BFF0A2342462C
:1017A0005146201D0095FEF7E1FF58460A99FFF7C4
:1017B00045FF0028EBD094E8070087E80700BDE864
:1017C000F88F000054696D65286D696E7574652920
:1017D0003A00000048756D69646974792825293AD2
:1017E0000000000054656D70657261747572652843
:1017F00043656C73697573293A000000FFF7AABA54
:1018000010B590B028216846FEF766FD14210AA89D
:10181000FEF762FD022000900120049010200024B9
:10182000059007946846FFF7EBFB08B172B6FEE738
:101830000F20CDE90A040C940D9400210AA80E94FF
:10184000FFF712FB002801D072B6FEE710B010BD02
:101850007047FEE70907090E002804DB00F1E020CD
:1018600080F80014704700F00F0000F1E02080F8CD
:10187000141D704786B0FFF775FAFFF7C1FF00240B
:101880002F4801940394816941F0080181618169C5
:1018900001F008010491816941F0040181618069CE
:1018A000284D00F0040004904FF4E0400090012027
:1018B000029069462846FEF7C9FF244B22484FF4A0
:1018C000804618602248C3E90104C3E903465C610D
:1018D0009C61DC6118461C62FFF7B4F808B172B66F
:1018E000FEE704201949009014234E2201F1540010
:1018F000FEF728FE1548324629466030FEF7C7FD40
:1019000012484FF4005229466C30FEF7C0FD0F48D4
:101910004FF4805229467830FEF7B9FD0B4C0D4D3F
:1019200054340A4B28787833CDE90040A3F11802EB
:1019300002F10C0101F11800FFF7B2FEF1E700001F
:1019400000100240000C0140005400401400002030
:10195000A086010000000020010202030405060722
:1019600008090A0B0C0D0E0F1010000000000000FB
:10197000000001020304060708090000000001023C
:1019800003040000A4190008000000201400000057
:1019900028010008B819000814000020F40600000F
:1019A00044010008000000000100000010000000D9
:0819B000000000000024F40017
:04000005080000ED02
:00000001FF
