:020000040800F2
:1000000008070020910100083F1B00082518000880
:100010003D1B000865050008B31B00080000000038
:10002000000000000000000000000000431B00086A
:10003000E906000800000000411B0008451B0008FD
:10004000AB010008AB010008AB010008AB010008E0
:10005000AB010008AB010008AB010008AB010008D0
:10006000AB010008AB010008AB010008AB010008C0
:10007000AB010008AB010008AB010008AB010008B0
:10008000AB010008AB010008AB010008AB010008A0
:10009000AB010008AB010008AB010008AB01000890
:1000A000AB010008AB010008AB010008AB01000880
:1000B000AB010008AB010008AB010008AB01000870
:1000C000AB010008AB010008AB010008AB01000860
:1000D000AB010008AB010008AB010008AB01000850
:1000E000AB010008AB010008AB01000800F002F80A
:1000F00000F03FF80AA090E8000C82448344AAF183
:100100000107DA4501D100F034F8AFF2090EBAE880
:100110000F0013F0010F18BFFB1A43F0010318473B
:10012000CC1B0000EC1B0000103A24BF78C878C13B
:10013000FAD8520724BF30C830C144BF04680C60ED
:10014000704700000023002400250026103A28BF35
:1001500078C1FBD8520728BF30C148BF0B60704739
:10016000642900F07D80002070471FB51FBD10B5C9
:1001700010BD00F052F91146FFF7F7FF01F02AFD1C
:1001800000F070F903B4FFF7F2FF03BC00F078F958
:100190000948804709480047FEE7FEE7FEE7FEE71B
:1001A000FEE7FEE7FEE7FEE7FEE7FEE70448054957
:1001B000054A064B70470000B11B0008ED0000081F
:1001C0000801002008070020080300200803002081
:1001D0000FB41CB5074B06AA7B44694600900598EE
:1001E00000F003F90020694600F012F91CBC5DF82C
:1001F00014FB0000350200002DE9F0410E460446D4
:10020000002020622046E168884730B3252805D0C9
:10021000D4E901219047206A401CF2E7E1682046BA
:1002200000278847050018D0A5F14100192802D8F9
:1002300020354FF400673246294620462760FFF7F5
:100240008FFF40B1012804D0F61D26F007060836BE
:10025000D8E7361DD6E72846DAE7206ABDE8F08100
:100260002DE9F0410646002410687529314616A58F
:1002700010D0AFF30080002802DA404213A507E057
:1002800031688A0701D512A502E0490704D511A5F6
:10029000012401E0AFF3008000210A2206F12407C7
:1002A00009E0B0FBF2FCB0FBF2F302FB1C003030C3
:1002B00078541846491C0028F3D123462A46304674
:1002C000BDE8F04100F032B8000000002D00000051
:1002D0002B000000200000004FF0000200B5134684
:1002E00094469646203922BFA0E80C50A0E80C5056
:1002F000B1F12001BFF4F7AF090728BFA0E80C5007
:1003000048BF0CC05DF804EB890028BF40F8042BFF
:1003100008BF704748BF20F8022B11F0804F18BF6C
:1003200000F8012B70477047704770472DE9F04780
:100330000D4699469246044600F124080168880655
:1003400004D5E06921F01001216000E00120A842FD
:1003500001DD471B00E00027A1697A1902EB0900C3
:10036000081AA0612078C00602D42046AFF30080AE
:10037000002608E0D4E901211AF806009047206A17
:10038000401C761C20624E45F4DB2078C0060AD55E
:100390002046AFF3008006E0D4E9012130209047E9
:1003A000206A401C2062381EA7F10107F4DC07E038
:1003B000D4E9012118F805009047206A401C20620A
:1003C000281EA5F10105F3DC2046AFF3008020785C
:1003D000000602D50220BDE8F0870120FBE70000FF
:1003E00001694A1C02610878704700B58FB0CDE9F9
:1003F00001310021059105497944CDE903101146E9
:100400006846FFF7F9FE0FB000BD0000E5FFFFFFF3
:100410000A6802F8010B0A607047754600F02CF874
:10042000AE4605006946534620F00700854618B0E1
:1004300020B5FFF7BBFEBDE820404FF000064FF0AF
:1004400000074FF000084FF0000B21F00701AC4609
:10045000ACE8C009ACE8C009ACE8C009ACE8C00928
:100460008D46704710B50446AFF300802046BDE8C6
:100470001040FFF787BE000000487047A80000202A
:1004800001491820ABBEFEE72600020070470000BD
:1004900070B5044600688168C943C90717D18168EF
:1004A00021F00101816000F05DFC05460AE000BF1B
:1004B00000F058FC401B022804D920688068C04323
:1004C000C00706D020688068C043C007F0D0002075
:1004D00070BDA06A40F01000A062E06A40F0010028
:1004E000E062012070BD0000F8B5002604460096C9
:1004F00000688168C943C9072DD0816841F00101B6
:100500008160164816490068B0FBF1F000E0401E1B
:1005100000900028FBD100F025FC054616E000BF46
:1005200000F020FC401B022810D920688068C043DE
:10053000C0070BD0A06A40F01000A062E06A40F053
:100540000100E06284F824600120F8BD2068806822
:10055000C043C007E4D10020F8BD00001400002013
:1005600040420F00FEE710B50022012100F087F89D
:10057000BDE81040052000F0F3BA10B5044602981B
:10058000216022716371A0712820A0720620E071A1
:100590000C202072142060720820E072322000F0DB
:1005A000DFFA00223321204600F069F800223321CF
:1005B000204600F064F8052000F0D2FA0022322133
:1005C000204600F05CF8052000F0CAFA0022202145
:1005D000204600F054F8052000F0C2FAE17900222C
:1005E000204600F04CF8217A0022204600F047F81F
:1005F000617A0022204600F042F8A17A00222046CB
:1006000000F03DF800220121204600F038F8204695
:100610000022BDE81040022100F031B830B4447926
:1006200000238C4201D8641EE1B28479944201D83F
:10063000641EE2B232B1012A06D0022A06D0032A91
:1006400006D007E00B4605E0403102E0143100E03F
:100650005431CBB230BC43F08001002200F00FB81F
:10066000012200F00CB870B50C46054603E02846A0
:10067000641CFFF7F5FF21780029F8D170BD7CB527
:1006800006460807040EF07A01F0F00518B145F0AF
:10069000080544F00804012A01D02AB108E045F019
:1006A000010544F0010403E025F0010524F00104F4
:1006B00045F004008DF80400012000F051FA8DF897
:1006C000055044F004008DF80600012000F048FABF
:1006D0004FF47A708DF8074000903179042301AA15
:1006E000306800F009FC7CBD70470000F8B50024BC
:1006F000009490F824202546012A12D0012280F887
:1007000024204A681F23072A0DD20668776B521EE1
:1007100002EB820293409F430B6893401F43776331
:1007200019E00220F8BD06680D2A0AD2376BD21FE5
:1007300002EB820293409F430B6893401F43376351
:1007400009E0F76A0D3A02EB820293409F430B687F
:1007500093401F43F7620A68072306680A2A0AD3F0
:10076000F7680A3A02EB420293409F438B6893403A
:100770001F43F76008E0376902EB420293409F4352
:100780008B6893401F4337610A68102A01D0112AF1
:1007900020D1124B02689A4217D193681B0219D4D8
:1007A000936843F4000393600968102912D10C493F
:1007B0000C4A0968B1FBF2F101EB8101490000E04C
:1007C000491E00910029FBD104E0816A41F020011B
:1007D0008162012480F824502046F8BD00240140A5
:1007E0001400002040420F000068C06C70470000F9
:1007F0002DE9F0414FF0000704003D467ED0A06A8D
:10080000002628B9E66284F82460204600F07EF8CD
:100810002046FFF73DFEA16AC90600D420B1A06AB8
:1008200040F01000A06269E0A16A21F4885141F013
:100830000201A1626268E169237B0A4347EA43013E
:100840000A43A1684FF48077B94209D0012907D043
:100850005FF0000194F814C0BCF1010F02D00AE06F
:100860003946F7E7F3B1A36A43F02003A362E36AD2
:1008700043F00103E3622368D3F804C02CF4694C0D
:100880004CEA010CC3F804C021688B68DFF870C023
:1008900003EA0C0313438B60A168B9420BD0012912
:1008A00009D00CE0DFF85CC0A3690CEB43330B43C9
:1008B00043F40061DFE7218A0D05A5F58015216865
:1008C000CB6A23F470032B43CB62216889680E4BFB
:1008D0001940914208D1E662A16A21F0020141F07B
:1008E0000101A162BDE8F081A06A20F0020040F0A1
:1008F0001000A062E06A40F00100E0620120F1E730
:10090000FDF7E1FF00E0FFFFFE0E1FFF00B585B021
:100910000021009101910291039100680E498842E3
:1009200018D10E48816941F400718161816901F437
:1009300000710491816941F0080181618069694613
:1009400000F0080004900220009003200190044869
:1009500000F018F905B000BD00240140001002406D
:10096000000C01402DE9F84300270D46044600978E
:1009700000F0F8F9804620688168C90508D5A06AAA
:1009800040F02000A06284F824700120BDE8F883C4
:100990004168C90503D4C06A10F4700F2AD0022040
:1009A00000F0F8FB3B490968B1FBF0F620680369E9
:1009B00039490B424FEA61014FEAA1121FD1C368C6
:1009C0004FEA611C13EA0C0F19D103690B4225D1C0
:1009D000C068104222D1142023E0681C0AD02DB137
:1009E00000F0C0F9A0EB0800A84203D92068006815
:1009F000800725D5206800688007EED52DE00369C3
:100A00000B4202D1C168114206D0026923490A4251
:100A100006D1C068084203D1542002E0292000E03A
:100A2000FC204643009816E0681C11D02DB100F060
:100A300099F9A0EB0800A8420AD90098B04207D261
:100A4000A06A40F00400A06284F8247003209DE7AF
:100A50000098401C0090B042E6D321686FF012006D
:100A60000860A06A40F40070A06220688068C0F34B
:100A7000424007280CD1207B50B9A06A20F4807036
:100A8000A062A06AC00403D4A06A40F00100A06282
:100A900000207BE71400002024499224499224007E
:100AA00070B5044690F8240001280DD0012084F888
:100AB00024002046FFF718FD02004FF0000005D08B
:100AC00084F82400104670BD022070BDA16A40F277
:100AD0000123994341F48071A1621F4D23681F498E
:100AE000AB4218D10E6816F4702F14D0A66A46F4E3
:100AF0008016A6620E68760505D5A66A26F400560D
:100B000046F48056A662A66AF6040AD5E66A26F07E
:100B10000606E66206E0A66A26F48016A6625E680D
:100B2000E9E7E06284F824006FF0020018602068B2
:100B30008368C3F34243072B05D1A84208D1096853
:100B400011F4702F04D0816841F480118160B9E7FD
:100B5000816841F4A001F9E7002801400424014024
:100B600070B5044600F0FEF80546601C02D004484B
:100B70000078044400F0F6F8401BA042FAD370BDA0
:100B8000080000202DE9F84FDFF8B8910024A9F102
:100B9000040B23460F2709F1040AABF1040EC9E048
:100BA0000125A5402A40AA427DD1674ED1F804C054
:100BB000ACEB0608B44532D014DCBCF1030F3AD0DC
:100BC00009DCBCF1000F2AD0BCF1010F1CD0BCF134
:100BD000020F31D11DE0BCF1110F17D0BCF1120F83
:100BE0002AD119E0B8F5881F19D006DCB8F5803F86
:100BF00015D0B8F5801F1FD111E0B8F5001F0ED039
:100C0000B8F5041F18D10AE0CB6815E0CB681B1DAE
:100C100012E0CB6808330FE0CB680C330CE08B6834
:100C20002BB1012B4FF0080303D0456104E00423EE
:100C300002E0056100E00023FF2A01D8064601E03A
:100C400000F104064FEA840501D9A5F12005D6F884
:100C5000008007FA05FC28EA0C0803FA05F548EAC3
:100C60000508C6F800804D68ED0062D5374DAE69C5
:100C700046F00106AE61AD6924F0030605F00105FA
:100C80000095334D06EB050CDCF80850A607360F2F
:100C900007FA06F825EA0805DFF8B880404503D1D1
:100CA0004FF0000817E044E0DFF8AC80404502D187
:100CB0004FF001080FE0DFF8A480404502D14FF06B
:100CC000020808E0DFF89880404502D14FF00308A1
:100CD00001E04FF0040808FA06F848EA0508CCF8E5
:100CE00008804D68D9F80060ED024D4601D51643E5
:100CF00000E096432E604D68DAF80060AD0255467C
:100D000001D5164300E096432E604D68DBF8006085
:100D1000AD035D4601D5164300E096432E604D6855
:100D2000DEF80060ED03754601D5164300E09643FA
:100D30002E60641C0D682A46E5407FF431AFBDE8A3
:100D4000F88F00000804014000001110001002405C
:100D50000000014000080140000C0140001001406B
:100D6000001401400148806870470000080000201E
:100D700070B5040025D094F83D00002520B984F812
:100D80003C50204600F04EF9242084F83D002068B5
:100D9000016821F0010101602068016841F400410F
:100DA00001602068016821F40041016000F050FBFF
:100DB0004D4A6168914201D84C4900E04C49884253
:100DC00001D2012070BD4B492368B0FBF1F15E6890
:100DD00026F03F060E435E606368934206D94FF4E7
:100DE000967359434FF47A73B1FBF3F12368491CAE
:100DF0001E6A26F03F06314319626168914210D89D
:100E00004900401EB0FBF1F2521CC2F30B02042A4F
:100E100001D2042022E0B0FBF1F0401CC0F30B0033
:100E20001CE0A268F2B301EBC10303EB0116431E01
:100E3000B3FBF6F35B1C43F480431B0549D092B32C
:100E400001EBC10202EB0111401EB0FBF1F0401CAE
:100E5000C0F30B0040F4804040F400402168CA69B0
:100E60004CF6FF739A431043C861D4E9071001435D
:100E70002068026822F0C00211430160D4E9030136
:100E800001432068826848F2FF339A43114381602E
:100E9000D4E9050108432168CA6822F0FF02104323
:100EA000C86001E00EE016E02068016841F0010131
:100EB00001602564202084F83D00256384F83E50BD
:100EC000002070BD01EB4106431EB3FBF6F35B1C33
:100ED000B3E70120C2E701EB4101401EB0FBF1F096
:100EE000401CC0F30B00B7E7A086010080841E0001
:100EF00000093D0040420F002DE9F84F1F46904683
:100F00008A460446DDF82890FFF72CFF054694F842
:100F10003D0020287FD11923012240492046009519
:100F200000F012FD002876D194F83C00012872D020
:100F3000012084F83C0020680168C90703D10168DA
:100F400041F0010101602068016821F40061016045
:100F5000212084F83D00102084F83E0000262664FD
:100F6000C4F824806785608D20852D48E0622B467B
:100F70004A465146204600F06DFC90B92068416910
:100F80008069009036E02A464946204600F082FDFE
:100F900050B1206C042804D12068016841F400712C
:100FA00001600120BDE8F88F606A2168007808615F
:100FB000606A401C6062618D491E6185218D491EF9
:100FC00089B2218522685369DB435B070BD451B199
:100FD00000781061606A401C6062608D401E608510
:100FE000208D401E20852A464946204600F080FC80
:100FF0000028CED1208D0028C5D154F83D0B0168C2
:1010000041F400710160202004F81E09E67766773C
:101010000020C7E7FFE70220C4E70000020010003D
:101020000000FFFF10B586B00021009101910291F0
:10103000039100680F4988421AD10F4CA06940F013
:101040000800A061A069694600F008000490C02073
:10105000009012200190032003900848FFF792FDB2
:10106000E06940F40010E061E06900F400100490D1
:1010700006B010BD0054004000100240000C0140BA
:10108000024881680278114481607047080000209E
:10109000074810B5016841F010010160032000F01D
:1010A00067F80F2000F006F800F024F8002010BDCB
:1010B0000020024070B50D4D04464FF47A71287837
:1010C000B1FBF0F00A490968B1FBF0F000F096FBC3
:1010D00048B9102C07D200222146501E00F028F8F3
:1010E00000206C6070BD012070BD00000800002071
:1010F000140000200C4808B5816941F001018161AC
:10110000816901F001010091C16941F08051C16123
:10111000C06900F0805000900448416821F0E0610F
:1011200041F00071416008BD001002400000014024
:10113000F0B40E4B1B680C46C3F30223C3F1070542
:10114000042D00D90425191D072901D2002300E030
:10115000DB1E012606FA05F1491E214099409E40FA
:10116000761E16403143F0BC00F024BD0CED00E0CB
:10117000064900F0070208684FF6FF03184040EAEE
:101180000220034A10430860704700000CED00E0A5
:101190000000FA0510B501460020234C012922D099
:1011A000022939D010291DD161682268D20119D5D0
:1011B0001E48C1F38342C903805C0AD561681B4A9B
:1011C000C1F34041921E515C194AB2FBF1F1484310
:1011D00001E0184948436168490203D440000321F3
:1011E000B0FBF1F010BD226AC2F30121012903D145
:1011F000920701D5C80310BD022905D1626A920782
:1012000002D549F6404010BD0329FCD1216889036D
:10121000F9D54FF2244010BD00F02AF96168C1F3FE
:101220008131491C4900DBE700100240C41C000862
:1012300000127A0000093D002DE9F84305460078C8
:10124000354CC00754D0E0690026C00008D4E069DE
:1012500040F08050E061E069012600F0805000908D
:101260002E480168C90512D40168804641F4807196
:101270000160FFF777FD074605E000BFFFF772FD4D
:10128000C01B642823D8D8F80000C005F6D5206A12
:1012900010F4407021D0A98801F4407181421CD023
:1012A000206A1F49012220F440700A6000220A606F
:1012B0002062C00711D0FFF755FD074641F288387C
:1012C00008E000BFFFF74EFDC11B414502D90320D6
:1012D000BDE8F883206A8007F4D5206A696820F4A5
:1012E0004070084320621EB1E06920F08050E06148
:1012F0002878800705D56068A96820F44040084335
:1013000060602878C00605D56068E96820F4800030
:10131000084360600020DBE70010024000700040DE
:10132000400442422DE9F0470F46050061D0434E8C
:10133000306800F00700B84209D2306820F007009A
:1013400038433060306800F00700B84251D1286857
:101350003B4C810712D5400703D5606840F4E0603C
:1013600060602878000703D5606840F460506060D2
:101370006068A96820F0F000084360602878C00722
:1013800028D06868012810D02168022810D0890769
:1013900000292EDA616821F0030101436160FFF743
:1013A000E1FC804641F288390DE021688903EFE7CE
:1013B0008901EDE7FFF7D6FCA0EB0801494502D90A
:1013C0000320BDE8F0876068696800F00C00B0EBAE
:1013D000810FEFD1306800F00700B8420BD93068B8
:1013E00020F0070038433060306800F00700B84252
:1013F00001D00120E5E72878400705D56068E96855
:1014000020F4E060084360602878000706D5606833
:10141000296920F4605040EAC100606000F038F8AB
:101420006168084AC1F30311515CC840064908606D
:1014300006480068FFF73EFE0020C2E70020024099
:1014400000100240D41C0008140000200C000020F2
:101450000448054900684968044AC1F30221515C07
:10146000C84070471400002000100240E41C00082F
:101470000448054900684968044AC1F3C221515C27
:10148000C84070471400002000100240E41C00080F
:101490000E4A51680E4801F00C03042B11D0082BA2
:1014A0000FD10C48C1F38343C903C05C0AD551680E
:1014B000084AC1F34041921E515C054A5043B0FBBB
:1014C000F1F07047044948437047000000100240A3
:1014D00000127A00B21C000800093D002DE9F84F07
:1014E000040070D02078C04DC00749D06868C0F3B0
:1014F0008100012807D06868C0F38100022809D163
:101500006868C00306D52868800339D5606800285C
:10151000E7D035E06068B0F5803F0BD010B1B0F592
:10152000A02F11D0286820F480302860286820F48B
:10153000802002E0286840F480302860606890B124
:10154000FFF710FC06460AE0286840F48020286077
:10155000F0E700BFFFF706FC801B642873D82868FB
:101560008003F7D50CE0FFF7FDFB064605E000BF62
:10157000FFF7F8FB801B6428F0D828688003F7D4B5
:1015800020789A4E80074FF001094FF0000839D5B6
:10159000686810F00C0F07D06868C0F3810002285B
:1015A00009D16868C00306D42868800714D520696B
:1015B000012808D110E02069B0B1C6F80090FFF70B
:1015C000D1FB074605E00AE1FFF7CCFBC01B022870
:1015D000C4D828688007F7D52868616920F0F8002A
:1015E00040EAC10028600DE0C6F80080FFF7BAFBB2
:1015F000074604E0FFF7B6FBC01B022823D8286883
:101600008007F7D4207800072CD57948A169D9B193
:10161000C0F80090FFF7A6FB074604E0FFF7A2FB27
:10162000C01B02280FD8686A8007F7D571484FF4AD
:10163000FA510068B0FBF1F0009000BF0098411E25
:101640000091FAD20EE080E0C0F80080FFF78AFB3C
:10165000074604E0FFF786FBC01B022875D8686ABE
:101660008007F7D42078400760D5E8690027C000DC
:1016700008D4E86940F08050E861E869012700F08B
:10168000805000905C480168C90513D40168834606
:1016900041F480710160FFF765FB824606E000BF00
:1016A000FFF760FBA0EB0A0064284ED8DBF80000CF
:1016B000C005F5D5E06801280AD008B1052813D087
:1016C000286A20F001002862286A20F0040002E065
:1016D000286A40F001002862E06841F2883B98B136
:1016E000FFF740FB82460BE0286A40F004002862C6
:1016F000EEE700BFFFF736FBA0EB0A0159455AD8C9
:10170000286A8007F6D50CE0FFF72CFB824605E03F
:10171000FFF728FBA0EB0A0159454CD8286A80073F
:10172000F6D41FB1E86920F08050E861E06988B321
:101730006968C1F38101022944D00228C6F860809B
:1017400004D0FFF70FFB044638E034E0FFF70AFB54
:10175000074604E0FFF706FBC01B02282BD82868C9
:101760008001F7D4206AB0F5803F05D16868A16890
:1017700020F4003008436860D4E908010843696830
:1017800021F4741108436860C6F86090FFF7EAFA24
:10179000044606E025E000BFFFF7E4FA001B02283C
:1017A00009D828688001F7D51BE000BFFFF7DAFAF7
:1017B000001B022802D90320BDE8F88F28688001A9
:1017C000F4D40EE00128F7D06868226A00F4803172
:1017D000914204D1616A00F47010884201D0012066
:1017E000EAE70020E8E70000001002400000424263
:1017F00080044242140000200070004010B5401EDA
:10180000B0F1807F01D3012010BD4FF0E024606172
:101810000F21601700F0CEF90020A06107202061A1
:10182000002010BDFEE701684A69D24352050FD47B
:101830006FF480624A61002140F8301F2022427319
:101840008173026942F00402026101730120704752
:1018500000207047F8B50446C06A1E460D4617467C
:10186000082807D0012805D010F5803F02D0206B52
:10187000122804D12068016841F480710160134688
:1018800000224FF001112046009600F05DF840B1B3
:1018900020680068C00502D54FF400702064032062
:1018A000F8BD2069B0F5804F0ED00620216800EA0F
:1018B000D51040F0F000086133463A460B49204607
:1018C00000F08AF878B902E005F0FE0000E0E8B226
:1018D00021680861054933463A46891F204600F0D1
:1018E0007BF80028DCD00120F8BD000008000100D2
:1018F00070B516460D4604461EE02046FFF793FFDE
:1019000008B1012070BD681C16D0FFF72BFA801BB0
:10191000A84200D885B920684069C04340070BD56C
:10192000002044F8300F20216173A073216941F039
:10193000200121612073E4E720684069C04340072B
:10194000DBD4002070BD00002DE9F0479846174613
:101950000D460446C1F30746DDF820902AE000BF9B
:10196000B8F1FF3F26D0FFF7FDF9A0EB0901414593
:1019700002D8B8F1000F1DD12068012E16D0806961
:1019800025EA00000004000C12D00020B84211D15A
:10199000002044F8300F20216173A073216941F0C9
:1019A0002001216120730120BDE8F0874069E7E74D
:1019B0000120EBE72068012E0AD0806925EA0000AB
:1019C0000004000C06D00020B842C9D00020EBE78C
:1019D0004069F3E70120F7E72DE9F04798461646FE
:1019E0000D4604464FF000094FF0200AC1F30747A7
:1019F00023E020684069C043400515D42068016891
:101A000041F40071016021686FF480604861C4F89E
:101A1000309084F83DA084F83E90216C41F00401A0
:101A2000216484F83C9021E0701C06D0FFF79AF9FD
:101A3000A0EB0800B04203D816B1012F1FD021E05F
:101A40002068012F15D0806925EA00000004000CF1
:101A500018D000BF44F8309F84F80DA084F80E9091
:101A6000216941F02001216184F80C900120BDE83A
:101A7000F087406925EA00000004000CEAD12068E4
:101A8000406901E02068806925EA00000004000C3C
:101A9000AFD1ECE770B516460D4604461EE0204671
:101AA000FFF7C1FE08B1012070BD681C16D0FFF71A
:101AB00059F9801BA84200D885B920684069C04305
:101AC00000060BD5002044F8300F20216173A0736D
:101AD000216941F0200121612073E4E72068406919
:101AE000C0430006DBD4002070BD00003EB50024DA
:101AF00011480094019402940E498460016001250C
:101B00000573047505614FF460214460C161FEF7FF
:101B10006FFE08B172B6FEE70920CDE900056946FF
:101B200002940548FEF7E2FD002801D072B6FEE7F8
:101B30003EBD00000024014018000020FEE7FEE743
:101B400070477047FFF79CBA30B593B028216846BC
:101B5000FEF7C2FB14210AA8FEF7BEFB00240120F9
:101B60000F94022504900095102011940590109474
:101B7000129407946846FFF7B1FC08B172B6FEE70D
:101B80000F20CDE90A040C940D9400210AA80E94AC
:101B9000FFF7C8FB08B172B6FEE70FA80F951194C6
:101BA000FFF74AFB002801D072B6FEE713B030BD44
:101BB0007047FEE70907090E002804DB00F1E0206A
:101BC00080F80014704700F00F0000F1E02080F86A
:101BD000141D704708B5FFF75BFAFFF7B5FF2E48F5
:101BE000816941F008018161816901F0080100917A
:101BF000816941F004018161806900F00400009076
:101C0000FFF774FF264825494FF4804201602549BB
:101C1000416000218160C0E9031241618161C161BD
:101C20000162FFF7A5F808B172B6FEE71C483C3820
:101C3000FEF736FF02201A49009010234E22A1F130
:101C40000C00FEF79AFC4FF47A75174C6E1014488E
:101C500029463C38FEF786FE11483C38FEF7C4FDA5
:101C600082B21148228011A1801CFEF7B1FA0C4803
:101C70000C38FEF778FC0A48002211460C38FEF7B3
:101C8000CDFC09490648891C0C38FEF7ECFC3046AF
:101C9000FEF766FFDBE70000001002400054004042
:101CA00054000020A08601000000002025640000F0
:101CB000010202030405060708090A0B0C0D0E0FAA
:101CC0001010010202030405060708090A0B0C0D97
:101CD0000E0F1010000000000000000001020304BD
:101CE0000607080900000000010203040C1D00089B
:101CF000000000201800000028010008241D000832
:101D000018000020F0060000440100080000000058
:101D100000000000010000001000000000000000B2
:041D20000024F400A7
:04000005080000ED02
:00000001FF
