:020000040800F2
:100000002807002091010008E31A000839170008AA
:10001000E11A0008DD0500089F1C00080000000030
:10002000000000000000000000000000171B000896
:10003000A907000800000000E51A0008451C000898
:10004000AB010008AB010008AB010008AB010008E0
:10005000AB010008AB010008AB010008AB010008D0
:10006000AB010008AB010008AB010008AB010008C0
:10007000AB010008AB010008AB010008AB010008B0
:10008000AB010008AB010008AB010008AB010008A0
:10009000AB010008AB010008AB010008AB01000890
:1000A000AB010008AB010008AB010008AB01000880
:1000B000AB010008AB010008AB010008AB01000870
:1000C000AB010008AB010008AB010008AB01000860
:1000D000AB010008AB010008AB010008AB01000850
:1000E000AB070008AB010008AB01000800F002F804
:1000F00000F03FF80AA090E8000C82448344AAF183
:100100000107DA4501D100F034F8AFF2090EBAE880
:100110000F0013F0010F18BFFB1A43F0010318473B
:100120004025000060250000103A24BF78C878C13F
:10013000FAD8520724BF30C830C144BF04680C60ED
:10014000704700000023002400250026103A28BF35
:1001500078C1FBD8520728BF30C148BF0B60704739
:10016000642900F07D80002070471FB51FBD10B5C9
:1001700010BD00F052F91146FFF7F7FF01F0A0FDA6
:1001800000F070F903B4FFF7F2FF03BC00F078F958
:100190000948804709480047FEE7FEE7FEE7FEE71B
:1001A000FEE7FEE7FEE7FEE7FEE7FEE70448054957
:1001B000054A064B704700009D1C0008ED00000832
:1001C0002801002028070020280300202803002001
:1001D0000FB41CB5074B06AA7B44694600900598EE
:1001E00000F003F90020694600F012F91CBC5DF82C
:1001F00014FB0000350200002DE9F0410E460446D4
:10020000002020622046E168884730B3252805D0C9
:10021000D4E901219047206A401CF2E7E1682046BA
:1002200000278847050018D0A5F14100192802D8F9
:1002300020354FF400673246294620462760FFF7F5
:100240008FFF40B1012804D0F61D26F007060836BE
:10025000D8E7361DD6E72846DAE7206ABDE8F08100
:100260002DE9F0410646002410687529314616A58F
:1002700010D0AFF30080002802DA404213A507E057
:1002800031688A0701D512A502E0490704D511A5F6
:10029000012401E0AFF3008000210A2206F12407C7
:1002A00009E0B0FBF2FCB0FBF2F302FB1C003030C3
:1002B00078541846491C0028F3D123462A46304674
:1002C000BDE8F04100F032B8000000002D00000051
:1002D0002B000000200000004FF0000200B5134684
:1002E00094469646203922BFA0E80C50A0E80C5056
:1002F000B1F12001BFF4F7AF090728BFA0E80C5007
:1003000048BF0CC05DF804EB890028BF40F8042BFF
:1003100008BF704748BF20F8022B11F0804F18BF6C
:1003200000F8012B70477047704770472DE9F04780
:100330000D4699469246044600F124080168880655
:1003400004D5E06921F01001216000E00120A842FD
:1003500001DD471B00E00027A1697A1902EB0900C3
:10036000081AA0612078C00602D42046AFF30080AE
:10037000002608E0D4E901211AF806009047206A17
:10038000401C761C20624E45F4DB2078C0060AD55E
:100390002046AFF3008006E0D4E9012130209047E9
:1003A000206A401C2062381EA7F10107F4DC07E038
:1003B000D4E9012118F805009047206A401C20620A
:1003C000281EA5F10105F3DC2046AFF3008020785C
:1003D000000602D50220BDE8F0870120FBE70000FF
:1003E00001694A1C02610878704700B58FB0CDE9F9
:1003F00001310021059105497944CDE903101146E9
:100400006846FFF7F9FE0FB000BD0000E5FFFFFFF3
:100410000A6802F8010B0A607047754600F02CF874
:10042000AE4605006946534620F00700854618B0E1
:1004300020B5FFF7BBFEBDE820404FF000064FF0AF
:1004400000074FF000084FF0000B21F00701AC4609
:10045000ACE8C009ACE8C009ACE8C009ACE8C00928
:100460008D46704710B50446AFF300802046BDE8C6
:100470001040FFF787BE000000487047C80000200A
:1004800001491820ABBEFEE72600020070470000BD
:1004900070B5044600688168C943C90717D18168EF
:1004A00021F00101816000F03BFC05460AE000BF3D
:1004B00000F036FC401B022804D920688068C04345
:1004C000C00706D020688068C043C007F0D0002075
:1004D00070BDA06A40F01000A062E06A40F0010028
:1004E000E062012070BD0000F8B5002604460096C9
:1004F00000688168C943C9072DD0816841F00101B6
:100500008160164816490068B0FBF1F000E0401E1B
:1005100000900028FBD100F003FC054616E000BF68
:1005200000F0FEFB401B022810D920688068C04301
:10053000C0070BD0A06A40F01000A062E06A40F053
:100540000100E06284F824600120F8BD2068806822
:10055000C043C007E4D10020F8BD00001C0000200B
:1005600040420F001FB501600B468280002181715F
:1005700001810120CDE90021CDE90201694618463B
:1005800000F0D4FA1FBD000070B5044600F0C8FBAF
:100590000546A188206800F0B9FB28B1A07908B110
:1005A0000020A071A07970BD0B490868281A142892
:1005B000F8D3A07910B1012804D00AE00120A0717D
:1005C000258106E02089281AB0F57A7F01D902201A
:1005D000A0710D60E6E7000000000020FEE710B506
:1005E0000022012100F087F8BDE81040052000F04E
:1005F0007DBA10B504460298216022716371A07122
:100600002820A0720620E0710C2020721420607255
:100610000820E072322000F069FA002233212046DF
:1006200000F069F800223321204600F064F805202C
:1006300000F05CFA00223221204600F05CF8052030
:1006400000F054FA00222021204600F054F8052042
:1006500000F04CFAE1790022204600F04CF8217AB3
:100660000022204600F047F8617A0022204600F080
:1006700042F8A17A0022204600F03DF80022012134
:10068000204600F038F820460022BDE81040022144
:1006900000F031B830B4447900238C4201D8641E94
:1006A000E1B28479944201D8641EE2B232B1012AE7
:1006B00006D0022A06D0032A06D007E00B4605E042
:1006C000403102E0143100E05431CBB230BC43F091
:1006D0008001002200F00FB8012200F00CB870B5C4
:1006E0000C46054603E02846641CFFF7F5FF217819
:1006F0000029F8D170BD7CB506460807040EF07AD3
:1007000001F0F00518B145F0080544F00804012A8D
:1007100001D02AB108E045F0010544F0010403E0EE
:1007200025F0010524F0010445F004008DF80400D3
:10073000012000F0DBF98DF8055044F004008DF83D
:100740000600012000F0D2F94FF47A708DF80740CE
:1007500000903179042301AA306800F0ABFB7CBD26
:100760002DE9FC4104461D4616460F46089800F048
:100770009FF880B220802A46314601F0F7FA2080A7
:10078000024608A16846FFF723FD012205213846ED
:10079000FFF780FF69463846FFF7A1FF2088BDE8D4
:1007A000FC8100002564000070474FF4805000F089
:1007B000B1B90000F8B50024009490F82420254633
:1007C000012A12D0012280F824204A681F23072A18
:1007D0000DD20668776B521E02EB820293409F4354
:1007E0000B6893401F43776319E00220F8BD066849
:1007F0000D2A0AD2376BD21F02EB820293409F432D
:100800000B6893401F43376309E0F76A0D3A02EB28
:10081000820293409F430B6893401F43F7620A682C
:10082000072306680A2A0AD3F7680A3A02EB42024B
:1008300093409F438B6893401F43F76008E03769FC
:1008400002EB420293409F438B6893401F43376102
:100850000A68102A01D0112A20D1124B02689A424C
:1008600017D193681B0219D4936843F40003936073
:100870000968102912D10C490C4A0968B1FBF2F140
:1008800001EB8101490000E0491E00910029FBD1E4
:1008900004E0816A41F020018162012480F8245043
:1008A0002046F8BD002401401C00002040420F00FB
:1008B0000068C06C704700002DE9F0414FF0000760
:1008C00004003D467ED0A06A002628B9E66284F87E
:1008D0002460204600F07EF82046FFF7D9FDA16A8B
:1008E000C90600D420B1A06A40F01000A06269E0FF
:1008F000A16A21F4885141F00201A1626268E169B4
:10090000237B0A4347EA43010A43A1684FF48077F7
:10091000B94209D0012907D05FF0000194F814C052
:10092000BCF1010F02D00AE03946F7E7F3B1A36A40
:1009300043F02003A362E36A43F00103E362236808
:10094000D3F804C02CF4694C4CEA010CC3F804C081
:1009500021688B68DFF870C003EA0C0313438B60D7
:10096000A168B9420BD0012909D00CE0DFF85CC0C6
:10097000A3690CEB43330B4343F40061DFE7218AA7
:100980000D05A5F580152168CB6A23F470032B4370
:10099000CB62216889680E4B1940914208D1E6620A
:1009A000A16A21F0020141F00101A162BDE8F081DC
:1009B000A06A20F0020040F01000A062E06A40F05F
:1009C0000100E0620120F1E7FDF7E1FF00E0FFFF39
:1009D000FE0E1FFF00B585B000210091019102912C
:1009E000039100680E49884218D10E48816941F48C
:1009F00000718161816901F400710491816941F0A4
:100A0000080181618069694600F0080004900220B5
:100A1000009003200190044800F088F805B000BD64
:100A20000024014000100240000C014070B5044653
:100A300090F8240001280DD0012084F824002046DD
:100A4000FFF752FD02004FF0000005D084F82400AB
:100A5000104670BD022070BDA16A40F20123994387
:100A600041F48071A1621F4D23681F49AB4218D128
:100A70000E6816F4702F14D0A66A46F48016A6628B
:100A80000E68760505D5A66A26F4005646F480560B
:100A9000A662A66AF6040AD5E66A26F00606E662AB
:100AA00006E0A66A26F48016A6625E68E9E7E062C0
:100AB00084F824006FF00200186020688368C3F394
:100AC0004243072B05D1A84208D1096811F4702FC1
:100AD00004D0816841F480118160B9E7816841F4F4
:100AE000A001F9E7002801400424014070B5044644
:100AF00000F016F90546601C02D004480078044452
:100B000000F00EF9401BA042FAD370BD1000002087
:100B100070470000044910B50A68024202D008601C
:100B2000FFF7F6FF10BD0000140401402DE9F84F57
:100B3000DFF8B8910024A9F1040B23460F2709F12F
:100B4000040AABF1040EC9E00125A5402A40AA42DF
:100B50007DD1674ED1F804C0ACEB0608B44532D065
:100B600014DCBCF1030F3AD009DCBCF1000F2AD031
:100B7000BCF1010F1CD0BCF1020F31D11DE0BCF162
:100B8000110F17D0BCF1120F2AD119E0B8F5881F48
:100B900019D006DCB8F5803F15D0B8F5801F1FD1FD
:100BA00011E0B8F5001F0ED0B8F5041F18D10AE007
:100BB000CB6815E0CB681B1D12E0CB6808330FE053
:100BC000CB680C330CE08B682BB1012B4FF0080382
:100BD00003D0456104E0042302E0056100E0002346
:100BE000FF2A01D8064601E000F104064FEA840519
:100BF00001D9A5F12005D6F8008007FA05FC28EAFE
:100C00000C0803FA05F548EA0508C6F800804D68A7
:100C1000ED0062D5374DAE6946F00106AE61AD69B3
:100C200024F0030605F001050095334D06EB050C95
:100C3000DCF80850A607360F07FA06F825EA08057B
:100C4000DFF8B880404503D14FF0000817E044E0DA
:100C5000DFF8AC80404502D14FF001080FE0DFF82B
:100C6000A480404502D14FF0020808E0DFF89880E8
:100C7000404502D14FF0030801E04FF0040808FAA4
:100C800006F848EA0508CCF808804D68D9F80060F5
:100C9000ED024D4601D5164300E096432E604D68A7
:100CA000DAF80060AD02554601D5164300E09643E0
:100CB0002E604D68DBF80060AD035D4601D516433C
:100CC00000E096432E604D68DEF80060ED03754647
:100CD00001D5164300E096432E60641C0D682A4639
:100CE000E5407FF431AFBDE8F88F00000804014013
:100CF00000001110001002400000014000080140F7
:100D0000000C0140001001400014014080680840C0
:100D100000D0012070470AB1016170470904FBE768
:100D200001488068704700001000002070B5040082
:100D300025D094F83D00002520B984F83C50204689
:100D400000F04EF9242084F83D002068016821F06D
:100D5000010101602068016841F4004101602068E0
:100D6000016821F40041016000F00CFB4D4A61680C
:100D7000914201D84C4900E04C49884201D20120FF
:100D800070BD4B492368B0FBF1F15E6826F03F0669
:100D90000E435E606368934206D94FF496735943DD
:100DA0004FF47A73B1FBF3F12368491C1E6A26F0F5
:100DB0003F06314319626168914210D84900401ED4
:100DC000B0FBF1F2521CC2F30B02042A01D2042040
:100DD00022E0B0FBF1F0401CC0F30B001CE0A26865
:100DE000F2B301EBC10303EB0116431EB3FBF6F3B1
:100DF0005B1C43F480431B0549D092B301EBC10255
:100E000002EB0111401EB0FBF1F0401CC0F30B00DF
:100E100040F4804040F400402168CA694CF6FF73FA
:100E20009A431043C861D4E907100143206802685F
:100E300022F0C00211430160D4E90301014320689C
:100E4000826848F2FF339A4311438160D4E9050177
:100E500008432168CA6822F0FF021043C86001E01D
:100E60000EE016E02068016841F001010160256490
:100E7000202084F83D00256384F83E50002070BD9A
:100E800001EB4106431EB3FBF6F35B1CB3E7012005
:100E9000C2E701EB4101401EB0FBF1F0401CC0F382
:100EA0000B00B7E7A086010080841E0000093D000A
:100EB00040420F002DE9F84F1F4690468A460446EF
:100EC000DDF82890FFF72CFF054694F83D00202818
:100ED0007FD11923012240492046009500F0BEFC35
:100EE000002876D194F83C00012872D0012084F8C3
:100EF0003C0020680168C90703D1016841F0010185
:100F000001602068016821F400610160212084F8FB
:100F10003D00102084F83E0000262664C4F824809A
:100F20006785608D20852D48E0622B464A465146F4
:100F3000204600F019FC90B9206841698069009052
:100F400036E02A464946204600F02EFD50B1206C7E
:100F5000042804D12068016841F400710160012077
:100F6000BDE8F88F606A216800780861606A401CFB
:100F70006062618D491E6185218D491E89B221857E
:100F800022685369DB435B070BD451B100781061D1
:100F9000606A401C6062608D401E6085208D401E2E
:100FA00020852A464946204600F02CFC0028CED158
:100FB000208D0028C5D154F83D0B016841F4007123
:100FC0000160202004F81E09E67766770020C7E755
:100FD000FFE70220C4E70000020010000000FFFF4E
:100FE00010B586B000210091019102910391006833
:100FF0000F4988421AD10F4CA06940F00800A06147
:10100000A069694600F008000490C02000901220FA
:101010000190032003900848FFF788FDE06940F441
:101020000010E061E06900F40010049006B010BD0B
:101030000054004000100240000C0140024881684A
:10104000027811448160704710000020074810B5F5
:10105000016841F010010160032000F075F80F20D5
:1010600000F006F800F024F8002010BD0020024037
:1010700070B50D4D04464FF47A712878B1FBF0F04D
:101080000A490968B1FBF0F000F042FB48B9102CA6
:1010900007D200222146501E00F036F800206C6076
:1010A00070BD012070BD0000100000201C00002059
:1010B0000C4808B5816941F001018161816901F045
:1010C00001010091C16941F08051C161C06900F026
:1010D000805000900448416821F0E06141F00071C7
:1010E000416008BD0010024000000140002809DBFB
:1010F00000F01F02012191404009800000F1E02032
:10110000C0F8001170470000F0B40E4B1B680C468D
:10111000C3F30223C3F10705042D00D90425191DCB
:10112000072901D2002300E0DB1E012606FA05F1A3
:10113000491E214099409E40761E16403143F0BC26
:1011400000F0AEBD0CED00E0064900F007020868B3
:101150004FF6FF03184040EA0220034A104308609C
:10116000704700000CED00E00000FA052DE9F8439F
:1011700005460078354CC00754D0E0690026C00011
:1011800008D4E06940F08050E061E069012600F099
:10119000805000902E480168C90512D4016880462D
:1011A00041F480710160FFF7BBFD074605E000BF19
:1011B000FFF7B6FDC01B642823D8D8F80000C0058F
:1011C000F6D5206A10F4407021D0A98801F440714E
:1011D00081421CD0206A1F49012220F440700A601D
:1011E00000220A602062C00711D0FFF799FD074670
:1011F00041F2883808E000BFFFF792FDC11B41456E
:1012000002D90320BDE8F883206A8007F4D5206A5C
:10121000696820F44070084320621EB1E06920F044
:101220008050E0612878800705D56068A96820F4BF
:101230004040084360602878C00605D56068E968CA
:1012400020F48000084360600020DBE700100240CB
:1012500000700040400442422DE9F0470F4605006F
:1012600061D0434E306800F00700B84209D23068C0
:1012700020F0070038433060306800F00700B842C3
:1012800051D128683B4C810712D5400703D56068CF
:1012900040F4E06060602878000703D5606840F49F
:1012A000605060606068A96820F0F00008436060EA
:1012B0002878C00728D06868012810D02168022843
:1012C00010D0890700292EDA616821F0030101435B
:1012D0006160FFF725FD804641F288390DE0216805
:1012E0008903EFE78901EDE7FFF71AFDA0EB08019D
:1012F000494502D90320BDE8F0876068696800F0BD
:101300000C00B0EB810FEFD1306800F00700B8425D
:101310000BD9306820F0070038433060306800F0A7
:101320000700B84201D00120E5E72878400705D53D
:101330006068E96820F4E06008436060287800078E
:1013400006D56068296920F4605040EAC1006060F9
:1013500000F028F86168084AC1F30311515CC840E5
:101360000649086006480068FFF782FE0020C2E7D1
:101370000020024000100240462600081C00002009
:10138000140000200448054900684968044AC1F374
:101390000221515CC84070471C0000200010024030
:1013A000562600080E4A51680E4801F00C03042B23
:1013B00011D0082B0FD10C48C1F38343C903C05C83
:1013C0000AD55168084AC1F34041921E515C054A52
:1013D0005043B0FBF1F070470449484370470000A8
:1013E0000010024000127A003626000800093D0075
:1013F0002DE9F84F040070D02078C04DC00749D0C7
:101400006868C0F38100012807D06868C0F38100D4
:10141000022809D16868C00306D52868800339D539
:1014200060680028E7D035E06068B0F5803F0BD0F9
:1014300010B1B0F5A02F11D0286820F480302860BA
:10144000286820F4802002E0286840F4803028607A
:10145000606890B1FFF764FC06460AE0286840F433
:1014600080202860F0E700BFFFF75AFC801B64284B
:1014700073D828688003F7D50CE0FFF751FC0646C7
:1014800005E000BFFFF74CFC801B6428F0D82868FB
:101490008003F7D420789A4E80074FF001094FF06F
:1014A000000839D5686810F00C0F07D06868C0F3E1
:1014B0008100022809D16868C00306D42868800723
:1014C00014D52069012808D110E02069B0B1C6F810
:1014D0000090FFF725FC074605E00AE1FFF720FC36
:1014E000C01B0228C4D828688007F7D5286861691E
:1014F00020F0F80040EAC10028600DE0C6F8008046
:10150000FFF70EFC074604E0FFF70AFCC01B0228A9
:1015100023D828688007F7D4207800072CD579488D
:10152000A169D9B1C0F80090FFF7FAFB074604E0C3
:10153000FFF7F6FBC01B02280FD8686A8007F7D5B3
:1015400071484FF4FA510068B0FBF1F0009000BF11
:101550000098411E0091FAD20EE080E0C0F80080B1
:10156000FFF7DEFB074604E0FFF7DAFBC01B0228AB
:1015700075D8686A8007F7D42078400760D5E86995
:101580000027C00008D4E86940F08050E861E869AD
:10159000012700F0805000905C480168C90513D411
:1015A0000168834641F480710160FFF7B9FB824610
:1015B00006E000BFFFF7B4FBA0EB0A0064284ED89A
:1015C000DBF80000C005F5D5E06801280AD008B1B5
:1015D000052813D0286A20F001002862286A20F02C
:1015E000040002E0286A40F001002862E06841F24D
:1015F000883B98B1FFF794FB82460BE0286A40F0E5
:1016000004002862EEE700BFFFF78AFBA0EB0A01A7
:1016100059455AD8286A8007F6D50CE0FFF780FBB9
:10162000824605E0FFF77CFBA0EB0A0159454CD848
:10163000286A8007F6D41FB1E86920F08050E8617D
:10164000E06988B36968C1F38101022944D00228A6
:10165000C6F8608004D0FFF763FB044638E034E04E
:10166000FFF75EFB074604E0FFF75AFBC01B0228AA
:101670002BD828688001F7D4206AB0F5803F05D1C7
:101680006868A16820F4003008436860D4E9080164
:101690000843696821F4741108436860C6F86090D3
:1016A000FFF73EFB044606E025E000BFFFF738FBEE
:1016B000001B022809D828688001F7D51BE000BF6D
:1016C000FFF72EFB001B022802D90320BDE8F88F8C
:1016D00028688001F4D40EE00128F7D06868226AF7
:1016E00000F48031914204D1616A00F470108842A4
:1016F00001D00120EAE70020E8E7000000100240E6
:1017000000004242800442421C0000200070004061
:1017100010B5401EB0F1807F01D3012010BD4FF005
:10172000E02460610F21601700F0BAFA0020A06188
:1017300007202061002010BDFEE701684A69D243FE
:1017400052050FD46FF480624A61002140F8301FC7
:10175000202242738173026942F004020261017324
:101760000120704700207047F8B50446C06A1E4645
:101770000D461746082807D0012805D010F5803FF0
:1017800002D0206B122804D12068016841F48071D6
:101790000160134600224FF001112046009600F030
:1017A0005DF840B120680068C00502D54FF40070B4
:1017B00020640320F8BD2069B0F5804F0ED00620CC
:1017C000216800EAD51040F0F000086133463A463F
:1017D0000B49204600F08AF878B902E005F0FE00D7
:1017E00000E0E8B221680861054933463A46891F9E
:1017F000204600F07BF80028DCD00120F8BD000076
:101800000800010070B516460D4604461EE020464D
:10181000FFF793FF08B1012070BD681C16D0FFF7D9
:101820007FFA801BA84200D885B920684069C04370
:1018300040070BD5002044F8300F20216173A073BE
:10184000216941F0200121612073E4E720684069AB
:10185000C0434007DBD4002070BD00002DE9F047F5
:10186000984617460D460446C1F30746DDF820901A
:101870002AE000BFB8F1FF3F26D0FFF751FAA0EBF6
:101880000901414502D8B8F1000F1DD12068012E91
:1018900016D0806925EA00000004000C12D0002058
:1018A000B84211D1002044F8300F20216173A07399
:1018B000216941F02001216120730120BDE8F087FA
:1018C0004069E7E70120EBE72068012E0AD0806934
:1018D00025EA00000004000C06D00020B842C9D060
:1018E0000020EBE74069F3E70120F7E72DE9F04737
:1018F000984616460D4604464FF000094FF0200A60
:10190000C1F3074723E020684069C043400515D470
:101910002068016841F40071016021686FF4806003
:101920004861C4F8309084F83DA084F83E90216C62
:1019300041F00401216484F83C9021E0701C06D041
:10194000FFF7EEF9A0EB0800B04203D816B1012F63
:101950001FD021E02068012F15D0806925EA000002
:101960000004000C18D000BF44F8309F84F80DA08C
:1019700084F80E90216941F02001216184F80C90D7
:101980000120BDE8F087406925EA00000004000C52
:10199000EAD12068406901E02068806925EA0000FA
:1019A0000004000CAFD1ECE770B516460D460446B6
:1019B0001EE02046FFF7C1FE08B1012070BD681C83
:1019C00016D0FFF7ADF9801BA84200D885B9206872
:1019D0004069C04300060BD5002044F8300F202199
:1019E0006173A073216941F0200121612073E4E754
:1019F00020684069C0430006DBD4002070BD0000B1
:101A00003EB500240D480094019402940A49846074
:101A1000016001250573047505614FF46021446080
:101A2000C161FEF749FF0920CDE90005694602942E
:101A30000248FEF7BFFE3EBD00240140200000200A
:101A40002DE9F04186B000242148009401940294CD
:101A50000394816941F008018161816901F0080105
:101A60000491816941F0040181618069DFF864803B
:101A700000F004004FF48076049000223146404686
:101A8000FFF749F93001009013480125CDE9010520
:101A9000124F69463846FFF749F868038DE8310070
:101AA00069463846FFF742F80220CDE90240CDE909
:101AB000006569464046FFF739F8002211462820A4
:101AC000FFF722FB2820FFF711FB06B0BDE8F081ED
:101AD000001002400008014000001110000C0140FD
:101AE000FEE7FEE7704770B5054614460846FEF768
:101AF0004BFD10B12088401C208020880321B0FBC2
:101B0000F1F201FB1200002804D0012802D00228C3
:101B100000D0284670BD70472DE9F84F1646DDE924
:101B20000BA5DDF828B00C46804699465246314652
:101B30005846FFF7D8FF06F10C0720B3012802D062
:101B400002285ED13EE04846FEF749FD00221146DC
:101B50004846FEF79FFD2FA14846FEF7C0FD6523CE
:101B600000224946201D0095FEF7FAFD52463146F7
:101B70005846FFF7B8FF012843D13846FEF704FD69
:101B80000028ECD03DE04846FEF729FD0022114632
:101B90004846FEF77FFD23A14846FEF7A0FD292316
:101BA0000A224946A01C0095FEF7DAFD524631464E
:101BB0005846FFF798FF20BB3846FEF7E5FC0028A3
:101BC000EDD01EE04846FEF70AFD002211464846C9
:101BD000FEF760FD17A14846FEF781FD3D23012277
:101BE000494620460095FEF7BBFD52463146584611
:101BF000FFF779FF022804D13846FEF7C5FC00281C
:101C0000ECD02168C8F80010A188A8F80410BDE83D
:101C1000F88F000048756D69646974792825293A40
:101C20000000000054656D706572617475726528FE
:101C300043293A0054696D65286D696E757465298C
:101C40003A000000FFF7FAB930B593B02821684692
:101C5000FEF742FB14210AA8FEF73EFB00240120F8
:101C60000F94022504900095102011940590109473
:101C7000129407946846FFF7BBFB0F20CDE90A04D6
:101C80000C940D9400210AA80E94FFF7E5FA0FA812
:101C90000F951194FFF76AFA13B030BD7047FEE755
:101CA0000907090E002804DB00F1E02080F8001489
:101CB000704700F00F0000F1E02080F8141D70471D
:101CC00086B0FFF7C3F9FFF7BFFFFFF7B9FE234860
:101CD00021494FF480420160214941600021816027
:101CE000C0E9031241618161C1610162FFF71EF821
:101CF000FFF786FE19483038FEF798FE0220174994
:101D0000009010234E2201F15400FEF772FC154C96
:101D100012484FF4005221466030FEF723FC0F4872
:101D2000A21421466C30FEF71DFC0C4D0E4E303DCA
:101D3000B41E0A4B2078CDE900060B49543303F159
:101D40000C02891C029503A8FFF7E6FE0398606069
:101D5000BDF810002081ECE7005400405000002046
:101D6000A0860100000C0140060000202DE9F04192
:101D70000D460646501B00F04AFA04460F46304610
:101D800000F05CFA00220A4B00F0BCF822463B4609
:101D900000F068FA06460C46284600F04FFA324634
:101DA000234600F007F800F005FA80B2BDE8F081A4
:101DB0000074AF4010B591EA030F48BF83F00043B1
:101DC00000F15683841A71EB030C05D2121943EB10
:101DD0000C03001B61EB0C01DFF824E14FEA115406
:101DE000A4EB135C1EEA430F18BF9EEA445F73D056
:101DF00023EA0E03DCF1200E21EA045143F48013A0
:101E000032D322FA0CFE10EB0E0023FA0CFE41EB4B
:101E10000E01CCF1200E03FA0EFE10EB0E0051F174
:101E20000001B1F5801FCCF1200E32D201EB04513C
:101E300012FA0EF2BDE8104058BF7047401C38BF80
:101E40005FEA420218BF7047002814BF20F001006B
:101E500041F100014FEA410313F5001F38BF7047FD
:101E6000A1F1C04100F0F6BA012A43EB0302ACF144
:101E7000200CDCF11F0E32BF4FF0000E23FA0CF3E2
:101E800010EB030041EB0451B4EB115FD0D0A1EB98
:101E9000045101F5801149085FEA300001EB04515B
:101EA0000ED350F1000038BF12FA0EFE08D1BDE883
:101EB0001040C9E7401C38BF5FEA4202CAD1C3E7FD
:101EC000BDE810404FEA410313F5001F38BF7047CB
:101ED000A1F1C04100F0BEBA9EEA445F08D011EA09
:101EE0005E0FBDE8104004BF01F0004100207047C4
:101EF000BDE8104070B500F05FFA00BF64FBBE3E65
:101F00000000E0FF2DE9C04130B4DFF8A0C23CEA98
:101F1000111418BF3CEA131400F0EC8081EA0305A9
:101F20001CEA111444EAD57418BF1CEA131500F01A
:101F3000C780A4EB05044FF0004545EAC12145EAFE
:101F4000C32341EA505143EA525304F17F7499424A
:101F500004F500344FEAC0204FEAC22208BF904285
:101F600000F09C804FEA13650FF24016765D4FEA51
:101F7000134506FB05F7C7F1807706FB07F74FEA25
:101F8000D737A7FB03687642C8F58038A7FB06CE93
:101F900038BFA8F1010807FB08E64FF0000EA6FBCA
:101FA000028CE6FB03CEDCF1000CCEF1004E38BF14
:101FB000AEF1010EA6FB0C584FF000074FF00005E4
:101FC000E6FB0E87A1FB08C6A0FB07CE16EB0E06AC
:101FD00045F10005E1FB076515F1E04E7EBFA4F574
:101FE00080345FEA46066D4116F1800745F1000531
:101FF0004FEA17274FEA066647EA0567A6F1DE466D
:10200000B6F1805F4FEA15251FD9384624F0010C40
:1020100005EBC471BCF1FE6F01EB0C1102D8F0BCF2
:10202000BDE8008124425CBF01F5801E9EEAC47FAA
:1020300002D4F0BCBDE80081244238D4F0BCA1F148
:10204000C041BDE8004100F005BA4FEAD22242EAA1
:1020500043524FEAD323A7FB02864FEAD02040EA3F
:10206000415007FB03661EEA0E0F4FEAD12105FB24
:10207000026658BFA6EB0056B6EB00564FEA520E6A
:102080004EEAC37E18EB0E0E56EB530EBDD518EB81
:1020900002085E417F1C55F10005B6E74FF480153C
:1020A0004FF000074FF000064FF00008ADE7F0BC1E
:1020B0004FF0000001F1C04101F00041BDE8008196
:1020C00011EA0C1F0CEA131500D00CE013EA0C1FE8
:1020D00000F025804FF00000F0BC81EA030101F020
:1020E0000041BDE80081F0BCBDE8004181EA030188
:1020F00000F0B0B9F0BCBDE8004170B500F05CF98B
:10210000097EFC3E00F007B881EA03014FF00000B1
:1021100001F00041704781EA030100F09BB9F0BC77
:10212000BDE800414FF0000021497047FFFDFBF979
:10213000F7F5F4F2F0EEEDEBE9E8E6E4E3E1E0DEFA
:10214000DDDBDAD8D7D5D4D3D1D0CFCDCCCBCAC86C
:10215000C7C6C5C4C2C1C0BFBEBDBCBBBAB9B8B793
:10216000B6B5B4B3B2B1B0AFAEADACABAAA9A8A886
:10217000A7A6A5A4A3A3A2A1A09F9F9E9D9C9C9B54
:102180009A999998979796959594939392919190FF
:102190008F8F8E8E8D8C8C8B8B8A89898888878790
:1021A0008685858484838382828181800000FF0705
:1021B0000000F87F4FEA1153A3F58063D3F11E03AB
:1021C000A8BFD3F1200C08DB4FF0004242EAC12245
:1021D00052EA505232FA03F0704709420BD4102BE6
:1021E000C4BF0020704703F5787CBCF1FF3F05D0E9
:1021F0004FF0FF3070474FF00000704770B500F0AF
:10220000DBF800BF4992248000207047F0E710F00F
:10221000004248BF4042B0FA80F310FA03F10AD0FE
:10222000C3F11D0303F580634FEA415002EB0352F3
:1022300002EBD12170474FF000007047B0FA80F3F5
:1022400010FA03F10AD0C3F11D0303F580634FEACE
:1022500041504FEA035202EBD12170474FF000008A
:1022600070470000DFF848C170B51CEA111E1EBFA0
:102270001CEA13159EEA0C0F95EA0C0F00F06F8014
:1022800081EA030423EA4C134EEAD47E21EA4C117E
:1022900041F4801143F48013AE44A1FB024CA0FB37
:1022A0000365AEF17F7E361955EB0C05A1FB034C9F
:1022B0004CF10003A0FB021C16EB0C06654153F128
:1022C0000003094218BF46F0010613F4007F0BD14A
:1022D0004FEA03314FEA0530340341EA155140EA31
:1022E00016506FF003020AE04FEAC3214FEAC520FF
:1022F000F40241EA555140EA56506FF0020202EBF7
:102300002E4201EB025585EACE710AD05FEA440CF9
:1023100018BF24F0004450F1000041F1000120EA10
:10232000D47040F2FE7C624500D270BDA84214BF5A
:102330004FF080444FF04044002E08BF0024BEF10F
:10234000806FA8BFA1F1C041BDE8704080F28280DB
:102350004FF0000001F1C04101F0004170479EEADA
:102360000C0F0CEA131518BF95EA0C0F06D04FF0AE
:10237000000081EA030E0EF0004170BD00F01CF871
:102380008900013E00F007B800F009B84FEA430C9D
:102390005FEA5C5C08D081EA030100F05BB84FEAB9
:1023A000410C5FEA5C5CF6D14FF0000001497047D8
:1023B0000000FF070000F87F0EF1020E2EF0030E62
:1023C0005EF8046B364205D4012A43EB030515F58C
:1023D000001F12D8012841EB010C1CF5001F0CD87E
:1023E0000ED14FEAD17C15F5001F0CEB4C0C0CF113
:1023F000020C08BF4CEBD37C04E04FF0080C01E06A
:102400004FEAD37C0CEB4C0526FA05F606F00706DE
:10241000B6F1040C06D20EEB860CBDE870404CF011
:10242000010C6047DFE80CF0090B02024FF000419D
:102430004FF00000A1F5002170BD1946104601289B
:1024400051EB010418BFD4F5001484BF002001F043
:10245000004170BD0808A0F500114FEA3101704736
:1024600010B591EA030F48BF83F000433FF5AAACD3
:10247000841A71EB030C07D212198CF0004C43EB59
:102480000C03001B61EB0C01DFF8A4E14FEA1154CF
:10249000A4EB135C1EEA430F18BF9EEA445F00F0F2
:1024A000B08023EA6E03524221EA0451C3EB6E036B
:1024B00038BF5B1EDCF1200E25D322FA0CFE10EB98
:1024C0000E0043FA0CFE41EB0E01CCF1200E03FA94
:1024D0000EFE10EB0E0051F10001CCF1200E29D4BC
:1024E00012FA0EF201EB0451BDE8104058BF7047DC
:1024F000401C1CBFB2F1004F704700280CBF491CA4
:1025000020F00100704712EB020E43EB030218BFEC
:102510004FF0010E4EEA4202ACF1200CDCF11E0E2F
:1025200054D943FA0CFE10EB0E0051F1FF31CCF1FF
:102530001E0ED5D50EF1010E12FA0EFE404141EBF2
:10254000010101EB445C5FEA5C5C10D910EBDE70CA
:1025500001EB045138BFBEF1004FBDE8104018BF79
:10256000704700280CBF491C20F00100704730D292
:102570004FEAD42C11F5001124F400641BD0B1FAF9
:1025800081F20B3AA41AA41ED2F12003914030FA32
:1025900003F31943904001EBCC71002C01EB045183
:1025A000BDE81040A8BF704701F1C0414FF00000E6
:1025B00001F000417047B0FA80F310FA03F100D146
:1025C00010BDE41A173C4805C90AE4E701EB0451C1
:1025D00010BD491001EB0451BDE810404FEA300036
:1025E00002E04FF0000170474A0008BF0042F8D0F7
:1025F000B2F5001F28BF704701F000414FF0000006
:1026000070479EEA445F07D011EA5E0FBDE81040B4
:1026100004BF002100207047BDE8104070B5FFF7EF
:10262000CBFE00BF40DFF63E83F00041104670470E
:102630000000E0FF010202030405060708090A0B77
:102640000C0D0E0F10100000000000000000010231
:10265000030406070809000000000102030400004B
:10266000802600080000002020000000280100084B
:10267000A0260008200000200807000044010008F0
:10268000000000000000000000000000000000004A
:102690000100000010000000000000000024F40011
:04000005080000ED02
:00000001FF
