:020000040800F2
:1000000058080020A1010008AB330008CB2E0008DF
:10001000A9330008A7130008BD380008000000003D
:10002000000000000000000000000000893400080B
:1000300081170008000000003D340008E13400088A
:10004000BB010008BB010008BB010008BB010008A0
:10005000BB010008BB010008BB010008BB01000890
:10006000BB010008BB010008BB010008BB01000880
:10007000BB010008BB010008BB010008BB01000870
:10008000BB010008BB010008BB010008BB01000860
:10009000BB010008BB010008BB010008BB01000850
:1000A000BB010008BB010008BB010008BB01000840
:1000B000BB01000849350008BB010008BB0100086E
:1000C000BB010008BB010008BB010008BB01000820
:1000D000BB010008BB010008BB010008BB01000810
:1000E000BB010008BB010008BB01000800F002F8DA
:1000F00000F047F80AA090E8000C82448344AAF17B
:100100000107DA4501D100F03CF8AFF2090EBAE878
:100110000F0013F0010F18BFFB1A43F0010318473B
:10012000D0480000F0480000103A24BF78C878C1D9
:10013000FAD8520724BF30C830C144BF04680C60ED
:10014000704700000023002400250026103A28BF35
:1001500078C1FBD8520728BF30C148BF0B60704739
:10016000662904F0E483002070471FB500F070FB9F
:1001700004000020002103F081FDE0601FBD10B5E8
:1001800010BD00F065FC1146FFF7EFFF03F060FCC7
:1001900000F083FC03B4FFF7F2FF03BC00F0C6FCE1
:1001A0000948804709480047FEE7FEE7FEE7FEE70B
:1001B000FEE7FEE7FEE7FEE7FEE7FEE70448054947
:1001C000054A064B7047000047350008ED0000085F
:1001D000580200205808002058040020580400202D
:1001E0000FB41CB5074B06AA7B44694600900598DE
:1001F00000F015FB0020694600F024FB1CBC5DF8F4
:1002000014FB00005906000070B5044685690068BB
:10021000C10601D5302600E02026C00707D070BDFA
:10022000D4E9012130469047206A401C20626D1EAF
:10023000F6D570BD70B5044685690078C00707D152
:1002400070BDD4E9012120209047206A401C206223
:100250006D1EF6D570BD2DE9F0474FF0000A8946B6
:100260000446C0F820A02046E1688847002876D0E0
:10027000252806D0D4E901219047206A401C20623D
:10028000F1E7E168204600258847C4F81CA006462F
:100290000027C4F818A02A2E09D0304603F033FBFB
:1002A00038B304EB8708303EC8F8186019E059F8F5
:1002B000041B204604EB87029161E1688847012F07
:1002C000064618D1E069002820DA25F020051DE057
:1002D000D8F8180000EB800006EB40003038C8F872
:1002E00018002046E1688847064603F00CFB00280A
:1002F000EED1012F0AD02E2E08D12046E168884782
:100300007F1C0646022F45F02005C4DBA0690028AB
:1003100003DA404245F00105A061E80701D025F06D
:100320001005B6B1A6F14100192802D8203645F4CF
:1003300000654A463146204625604D46FFF710FFCE
:1003400058B1012806D0ED1D25F0070000F108097D
:1003500089E704E005F1040985E730468AE7206A69
:10036000BDE8F08710B5431C02E010F8011B71B125
:100370008107FAD14FF0013202C88C1A8C4314EA7B
:10038000C211F9D0C01A0A0603D0C01E10BDC01A8F
:1003900010BD0A0401D0801E10BD0902FCD0401E11
:1003A00010BD4FF0000200B5134694469646203922
:1003B00022BFA0E80C50A0E80C50B1F12001BFF41E
:1003C000F7AF090728BFA0E80C5048BF0CC05DF884
:1003D00004EB890028BF40F8042B08BF704748BFD2
:1003E00020F8022B11F0804F18BF00F8012B704746
:1003F00070477047704770472DE9FF4F0C461E4607
:100400004FF0FF378BB0D2E90001DDF860800A9031
:100410008A46C1F30A5505B93D46002108464FF00A
:100420000000BAF1000F00F4400005DA00EB800094
:100430004FF4400101EA50004FEA9059B9F1010F21
:1004400000DDB9460A9850EA4A000ED044F6105032
:10045000A5F2FF3545432F14B8F1000F1ED07542A9
:10046000291E1EDDC9F100021CE0B8F1010F4FF09A
:10047000000001D0302103E0F24305E02154401C8C
:10048000B042FBDB30460022002121540B99C1F819
:100490000880C1E900200FB0BDE8F08FBD1B6D1CC6
:1004A000DEE74A4600DA694206A800F05BFA06ABCE
:1004B00093E8070003AB83E8070050460A9900F071
:1004C0003CFB8DE80700A0F500501F380090039812
:1004D000002D0ADD42F21F014A460844002303A909
:1004E0000390684600F0A5FD09E0A0F500504A46DB
:1004F0001F38002303A90390684600F0AFFD8DE884
:1005000007000004000C03D04FF0FF30410800E06A
:100510001046B8F1000F03D00022009215461EE0ED
:10052000751E05D400F098F9303262556D1EF9D56C
:10053000B3460122084302D000227F1C04E0207849
:10054000302801D100227F1E002A099784D01DE0A7
:10055000112D07DA00F080F9303262556D1C50EA37
:100560000102F5D1084302D00098C8B10EE0002185
:10057000681E05E0235C625C63542254401E491CE3
:100580008142F7DBAB46A81B401E0990002004F80F
:100590000B000B98099AC0F80880C0E9002B7AE795
:1005A00011264FF0000857E72DE9F04F8846044622
:1005B000D21D22F0070191B0D1E90001CDE90A0175
:1005C00003F07DF902460B98C00F01D02D2007E003
:1005D0002068810701D52B2002E0202101EAC0001C
:1005E000032A099001D0072A05DB0346414620462D
:1005F00000F078F90BE12078800601D5E06900E091
:100600000620B8F1650F814606D0B8F1660F18D004
:10061000B8F1670F70D131E00020B9F1110F0090EF
:1006200001DB112301E009F101030AAA01A90CA8C9
:10063000FFF7E2FEDDE90C70002609F101058346B3
:1006400047E001204B4600904FF000470AAA01A95D
:100650000CA8FFF7D1FEDDE90DB00C995D46002630
:1006600010B909F101000D18B9EB050003D4C0F170
:10067000FF3609F10105A5EB09002BE0B9F1010FE7
:1006800001DA4FF001090020B9F1110F009048463E
:1006900001DD112300E003460AAA01A90CA8FFF717
:1006A000ABFEDDE90C704D4600268346207800073E
:1006B0000AD4AB4500DA5D4601A8012D04DD4119DD
:1006C00011F8011C302907D04F4502DA17F1040F49
:1006D00004DA012082460FE06D1EEEE7002F02DCF7
:1006E000ED1B3E4403E0781CA84200DD7D1CB81BD6
:1006F00000F1010A4FF000472078000703D4AA4513
:1007000001DB4FF0FF3A0021B7F1004F0DF1430834
:100710008DF8431024D002202B23002F01DA7F42D2
:100720002D230A21021EA0F1010000DC5FB197FB1E
:10073000F1FC97FBF1F201FB1C7C17460CF1300C2D
:1007400008F801CDEEE7A8F1010003702188090542
:1007500001D5452100E06521A0F1010800F8011C48
:1007600009980FA9A1EB0807FF1D00B1012041194D
:1007700001EBEA70A1693844081A401EA061207894
:10078000C00602D42046FFF73FFD099828B1D4E9FE
:1007900001219047206A401C20622078C00622D5A3
:1007A0002046FFF731FD1EE0002E04DBB34502DDDD
:1007B00001A8805D00E03020D4E901219047206A43
:1007C000401C2062761CAAF101005FEA000A0AD1EF
:1007D00000F03EF8C0680168405CD4E90121904710
:1007E000206A401C2062281EA5F10105DCDC07E020
:1007F000D4E9012118F8010B9047206A401C2062BF
:10080000381EA7F10107F3DC2046FFF713FD032094
:1008100011B041E601694A1C02610878704700B5D1
:100820008FB0CDE901310021059105497944CDE929
:10083000031011466846FFF70EFD0FB000BD000023
:10084000E5FFFFFF0A6802F8010B0A60704700002D
:10085000004870471802002030B5B0F10A024FEA94
:10086000900E71F100034EEA817EB0EB0E0061EB59
:1008700091014FEA101E4EEA017E10EB0E0041EB93
:1008800011114FEA102E4EEA016E10EB0E0041EBF3
:1008900011214FEA104E4EEA014E10EB0E0041EBD3
:1008A0001141401841F100014FEAD00040EA417087
:1008B0004FEAD10110EB80054FEA810444EA9074BD
:1008C00044EB01046D1944EB0404521BA3414FF0A7
:1008D000000348BF0A3200D530BD401C41F1000181
:1008E00030BD00002DE9F0411F4604460326016893
:1008F000072A01F4006004DB08B116A505E016A57F
:1009000003E008B115A500E015A521F01000206056
:10091000A069C01EA0610FB1401EA0612046FFF774
:1009200073FC4FB1D4E9012138469047206A401C3E
:100930002062C01C206206E0206AFAE7D4E90121A7
:1009400015F8010B9047761EF8D22046FFF772FC8F
:10095000BDE8F0814E414E006E616E00494E46008A
:10096000696E66002DE9F047814616468AB0354823
:1009700078440DC88DE80D0032487844801C03ACE3
:100980000DC884E80D0041F69B300844372190FBE8
:10099000F1F290FBF1F5A5F1800501FB12041B3C7F
:1009A00002D56442012000E00020DFF898A08046D4
:1009B0000027FA44AAF1BE0A0EE0E0070AD0324648
:1009C000684607EB470101230AEB810100F046FB73
:1009D0008DE8070064107F1C002CEED1194F7F4476
:1009E000AE3F19E0E80715D007EB04100DF1180A27
:1009F00090E80E008AE80E00C068F04201D1981914
:100A000008903246012306A903A800F027FB03AB98
:100A100083E807006D10641C002DE3D14FF0010343
:100A200032466946B8F1000F03A802D000F001FB7E
:100A300001E000F013FBC9E90001C9F808200AB081
:100A4000BDE8F0876440000000487047F8010020CE
:100A50007546FFF7F9FFAE4605006946534620F09C
:100A60000700854618B020B5FFF7A8FBBDE8204079
:100A70004FF000064FF000074FF000084FF0000B5A
:100A800021F00701AC46ACE8C009ACE8C009ACE80D
:100A9000C009ACE8C0098D46704710B50446AFF3F5
:100AA00000802046BDE81040FFF774BB4FF0013CCA
:100AB00050F8042B51F8043B9A4221D1A2EB0C03CD
:100AC000934313EACC1317D150F8042B51F8043B8D
:100AD0009A4215D1A2EB0C03934313EACC130BD12A
:100AE00050F8042B51F8043B9A4209D1A2EB0C03B5
:100AF000934313EACC13DBD04FF00000704700BFE4
:100B0000D01A01BAB1FA81F101F0180122FA01F00C
:100B1000CB40C1F12001DBB2C0B2C01A2CFA01F304
:100B2000D11A914311EAC311E6D170470149182047
:100B3000ABBEFEE72600020070475FEA400C08BF2C
:100B400091F0000F4FEA8C234FEAC12243EA515142
:100B50004FEA1C5018BF00F5F0404FEA300018BFB4
:100B600041F000415FEA6C5C00F02980BCF1FF3F7E
:100B700008BF40F080407047130C06BF12044FF0CE
:100B8000100C4FF0000C130E04BF12020CF1080CF5
:100B9000130F04BF12010CF1040C930F04BF920059
:100BA0000CF1020CD30F04BF52000CF1010C1146E2
:100BB0004FF00002A0F11F00A0EB0C00704711F0F5
:100BC000004F08BF704731F000413FF4D5AF0B0C28
:100BD00006BF09044FF0100C4FF0000C0B0E04BFC1
:100BE00009020CF1080C0B0F04BF09010CF1040CF5
:100BF0008B0F04BF89000CF1020CCB0F04BF49001E
:100C00000CF1010CCCF12003A0EB0C0022FA03F351
:100C100002FA0CF241EA030100F10100704720F0F2
:100C20007F4C80EA030023F07F47ACEB070303F51A
:100C30007C5300F0004003F1FF032DE980494FEAA7
:100C4000154B09B44FEA144325EA0B4E24EA034836
:100C50000FF2042606EB132749083E785FEA3202BA
:100C600003FB0667C7F5000707FB06F64FEA543794
:100C70004FEAD64606F1020607FB066CCCF1005C93
:100C80004FEA1C472CEA074C07FB06F40CFB06F561
:100C900004EB15464FEA961634BF00204FF0004093
:100CA0004FEAD13706FB07FC4FEA1C4C0CFB0BF755
:100CB000D21B03FB0CF761EB07010CFB0EF7B0EB4B
:100CC000074072EB17420CFB08F734BFA2EB074258
:100CD000B2EB074261EB17414FEA0C444FEA910730
:100CE00006FB07FC4FEA1C4C0CFB0BF7B0EBC740B4
:100CF00072EB573203FB0CF734BFA2EBC742B2EBE7
:100D0000C74261EB57310CFB0EF7B0EBC70072EB3B
:100D100057720CFB08F734BFA2EBC702B2EBC70255
:100D200061EB5771039F4FEA816141EA921104EB35
:100D3000CC044FEAD1374FEA826206FB07FC42EA55
:100D400090124FEA80604FEA1C4C0CFB0BF7D21B51
:100D500003FB0CF761EB07010CFB0EF7B0EB074050
:100D600072EB17420CFB08F734BFA2EB0742B2EB61
:100D7000074261EB17414FEA8C554FEA910704EBAC
:100D80009C2406FB07FC4FEA1C4C0CFB0BF7B0EB5A
:100D9000C74072EB573203FB0CF734BFA2EBC742DC
:100DA000B2EBC74261EB57310CFB0EF7B0EBC7005B
:100DB00072EB57720CFB08F734BFA2EBC702B2EB21
:100DC000C70261EB577115EB4C254FEA816141EA8F
:100DD00092114FEA82624FEAD13742EA901206FB43
:100DE00007FC44F100044FEA80604FEA1C4C0CFB06
:100DF0000BF7D21B03FB0CF761EB07010CFB0EF7A3
:100E0000B0EB074072EB17420CFB08F734BFA2EBC4
:100E10000742B2EB074261EB174115EB1C154FEA95
:100E2000813141EA92414FEA823242EA90424FEAEE
:100E300080304FEA0C7644F1000448EA03434EEA5E
:100E40000B484FF0000EB2EB080C71EB030724BF08
:100E5000624639464EEB0E0E4FF0000B0018524121
:100E600049414BEB0B0BB2EB080C71EB03077BF129
:100E7000000B24BF624639464EEB0E0E4FF0000BBE
:100E80000018524149414BEB0B0BB2EB080C71EBD4
:100E900003077BF1000B24BF624639464EEB0E0E72
:100EA00051EA020718BF46F0010616EB0E7655F11F
:100EB000000254F1000103D5BDE88901BDE80088B6
:100EC000BDE88901BDE80048B619524141EB010176
:100ED000A3F10103704780807F7E7D7C7B7A7978E7
:100EE000777676757473727171706F6E6E6D6C6CEF
:100EF0006B6A6A6968686766666564646363626191
:100F00006160605F5F5E5E5D5D5C5C5B5B5A5A5911
:100F1000595858575756565555555454535352527D
:100F20005251515050504F4F4F4E4E4D4D4D4C4CD5
:100F30004C4B4B4B4A4A4A4949494848484747471E
:100F4000474646464545454444444443434343425B
:100F5000424242414141002B9C4630D477002BD085
:100F60001CB54FEA370703B44FF010004FF01001E3
:100F7000BAF1000F06D0BCF1000FDCBF40F0080052
:100F800040F008014FF000000FBCBDE810400BF12D
:100F9000010BBBF1010F08BF5FEA170722BF12F177
:100FA000010211F101014FF0004143F1000300F093
:100FB000004043EA00007047F9D35708D0E746EAFB
:100FC000064613F1400F4FEA16461FDD13F1200FBE
:100FD000DFBF16430A46002120335B42BED0C3F177
:100FE000200746EA064602FA07F74FEA164646EA9F
:100FF0000706C3F1200722FA03F201FA07F721FAE4
:1010000003F14FF0000342EA0702A7E746EA0206AF
:1010100046EA06464FEA164646EA0106BCBF46EADD
:101020000646360C4FF000034FF000024FF000016F
:1010300094E72DE9804C9A46934670B491E83800C5
:1010400007C831EA400C48BF34EA430C03D5FFF728
:10105000E6FDFFF780FFF0BCBDE8008C2DE9804C79
:101060009A46934670B491E8380007C810F0804F54
:1010700008BF13F0804F03D100F005F8FFF76BFFB6
:10108000F0BCBDE8008C20F07F4780EA030023F02D
:101090007F4C07EB0C03A3F57C5300F00040A3F159
:1010A000FE0392F0000F00F0B38095F0000F00F007
:1010B00077802DE901494FEA11404FEA144621EAB1
:1010C000004800FB06FC24EA064708FB06F607FB7F
:1010D00008F800FB07F718EB06484CEB164C4FEAF4
:1010E000124B18EB07484FEA15464CEB174022EA23
:1010F0000B4E0BFB06FC25EA06470EFB06F607FB2C
:101100000EFE0BFB07F71EEB064E4CEB164C4FF09A
:1011100000061EEB074E4CEB174B18EB0B0840F18B
:10112000000018EB0E0B58EB000840F100008F1A7E
:101130004FF000013CBFC943661B14BFB5EB040C64
:1011400000213CBFC943F61B4FEA17444EEA8E0EFE
:1011500027EA04454FEA1C4704FB07622CEA074CC8
:1011600005FB07F70CFB05F604FB0CFC16EB07462A
:1011700042EB174216EB0C4642EB1C421BEB0606F9
:1011800058EB0202414146EA9E0601D5BDE80189BD
:10119000B619524141EB0101A3F10103BDE80189F8
:1011A0004FEA14454FEA114724EA054621EA074C65
:1011B00005FB07F406FB07F70CFB06F105FB0CFC2F
:1011C00011EB074144EB17444FEA124711EB0C4176
:1011D00044EB1C4422EA074C05FB07F206FB07F729
:1011E0000CFB06F605FB0CFC16EB074642EB174220
:1011F00016EB0C4642EB1C456A1854F1000148BF3F
:101200007047B619524141EB0101A3F10103704748
:1012100095F0000F37D04FEA11424FEA144721EA08
:10122000024624EA074C02FB07F106FB07F70CFB1A
:1012300006F402FB0CFC14EB074441EB17414FEAA8
:10124000154714EB0C4441EB1C4125EA074C02FB0B
:1012500007F506FB07F70CFB06F602FB0CFC16EB8A
:10126000074645EB174516EB0C4645EB1C42121999
:1012700051F1000148BF7047B619524141EB0101DD
:10128000A3F1010370474FEA14454FEA114724EADE
:10129000054621EA074C05FB07F106FB07F70CFBA7
:1012A00006F24FF0000605FB0CFC12EB074241EB87
:1012B000174112EB0C4251EB1C4148BF704792188A
:1012C00041EB0101A3F101037047000070B5044632
:1012D00000688168C943C90717D1816821F00101FD
:1012E000816000F0FFFC05460AE000BF00F0FAFC58
:1012F000401B022804D920688068C043C00706D07C
:1013000020688068C043C007F0D0002070BDA06A8C
:1013100040F01000A062E06A40F00100E0620120AD
:1013200070BD0000F8B5002604460096006881688C
:10133000C943C9072DD0816841F001018160164879
:1013400016490068B0FBF1F000E0401E0090002854
:10135000FBD100F0C7FC054616E000BF00F0C2FC60
:10136000401B022810D920688068C043C0070BD0FA
:10137000A06A40F01000A062E06A40F00100E06264
:1013800084F824600120F8BD20688068C043C0074D
:10139000E4D10020F8BD00003400002040420F00DE
:1013A000016082807047FEE710B50022012100F045
:1013B00087F8BDE81040052000F080BB10B504465A
:1013C0000298216022716371A0712820A07206200A
:1013D000E0710C202072142060720820E07232202C
:1013E00000F06CFB00223321204600F069F8002257
:1013F0003321204600F064F8052000F05FFB002256
:101400003221204600F05CF8052000F057FB002256
:101410002021204600F054F8052000F04FFBE17930
:101420000022204600F04CF8217A0022204600F0ED
:1014300047F8617A0022204600F042F8A17A0022A3
:10144000204600F03DF800220121204600F038F847
:1014500020460022BDE81040022100F031B830B42F
:10146000447900238C4201D8641EE1B2847994420D
:1014700001D8641EE2B232B1012A06D0022A06D097
:10148000032A06D007E00B4605E0403102E01431A4
:1014900000E05431CBB230BC43F08001002200F0B8
:1014A0000FB8012200F00CB870B50C46054603E0F9
:1014B0002846641CFFF7F5FF21780029F8D170BD9C
:1014C0007CB506460807040EF07A01F0F00518B165
:1014D00045F0080544F00804012A01D02AB108E0CB
:1014E00045F0010544F0010403E025F0010524F076
:1014F000010445F004008DF80400012000F0DEFA3C
:101500008DF8055044F004008DF80600012000F02D
:10151000D5FA4FF47A708DF80740009031790423A2
:1015200001AA306800F0A8FC7CBD01F091B910B5AB
:10153000036800225A624FF47A7303E00268546A27
:101540009C42FCD3491E89B2F8D210BD0368002228
:101550005A620068426A8A42FCD370470068FFF70B
:10156000E6BF0068FFF7F2BF30B48260838001609D
:1015700030BC0846FFF7D9BF2DE9F04107460025EA
:1015800000F057F800240126384600F061F80021E9
:10159000384600F0C0F801213846FFF7E2FF384630
:1015A00000F047F8384600F00FF818B106FA04F0DA
:1015B0002843C5B232213846FFF7D3FF641C082CFC
:1015C000E2DB2846BDE8F0818188806800F078BBC6
:1015D00070B5044600F04DF801212046FFF7BEFF2C
:1015E000CC21204600F066F84421204600F062F845
:1015F000C8212046FFF7B2FF204600F03AF801214B
:101600002046FFF7ABFFCC21204600F053F8BE2167
:10161000204600F04FF82046FFF7AEFF0546204673
:10162000FFF7AAFF45EA0020000903F02BF8E0606D
:1016300070BD1FB500210091019102910391818835
:101640000091012102918068694600F049FA1FBDAE
:101650001FB50021009101910291039181880091B1
:1016600001210191022103918068694600F038FA56
:101670001FBD70B505460024FFF7EAFF002128468C
:1016800000F049F84FF4F0712846FFF76AFF28464A
:10169000FFF7CFFF50212846FFF763FF2846FFF7EB
:1016A00093FF00B901244FF4C8712846FFF759FF92
:1016B000204670BD2DE9F0410E460746FFF7C8FFF2
:1016C0000024012505FA04F03042384611D0FFF716
:1016D000BFFF0021384600F01EF801213846FFF711
:1016E00040FF3846FFF7A5FF32213846FFF739FFA4
:1016F0000CE0FFF7ADFF0021384600F00CF8322176
:101700003846FFF72EFF3846FFF793FF641C082C7E
:10171000D8DBBDE8F08183880A468068194600F06E
:10172000DCBA00007CB5054614460E46184600F0AB
:10173000A7F802F0A7FF02F085FF80B222463146EB
:1017400002F078FA02F09EFF044602F0EDFE024637
:101750000B4609A16846FEF743FD012205212846F4
:10176000FFF77DFE69462846FFF79EFE642000F0E5
:10177000A5F920467CBD000025322E3266200000EF
:1017800070470000F8B50024009490F82420254606
:10179000012A12D0012280F824204A681F23072A38
:1017A0000DD20668776B521E02EB820293409F4374
:1017B0000B6893401F43776319E00220F8BD066869
:1017C0000D2A0AD2376BD21F02EB820293409F434D
:1017D0000B6893401F43376309E0F76A0D3A02EB49
:1017E000820293409F430B6893401F43F7620A684D
:1017F000072306680A2A0AD3F7680A3A02EB42026C
:1018000093409F438B6893401F43F76008E037691C
:1018100002EB420293409F438B6893401F43376122
:101820000A68102A01D0112A20D1124B02689A426C
:1018300017D193681B0219D4936843F40003936093
:101840000968102912D10C490C4A0968B1FBF2F160
:1018500001EB8101490000E0491E00910029FBD104
:1018600004E0816A41F020018162012480F8245063
:101870002046F8BD002401403400002040420F0003
:101880000068C06C704700002DE9F0414FF0000780
:1018900004003D467ED0A06A002628B9E66284F89E
:1018A0002460204600F07EF82046FFF70FFDA16A75
:1018B000C90600D420B1A06A40F01000A06269E01F
:1018C000A16A21F4885141F00201A1626268E169D4
:1018D000237B0A4347EA43010A43A1684FF4807718
:1018E000B94209D0012907D05FF0000194F814C073
:1018F000BCF1010F02D00AE03946F7E7F3B1A36A61
:1019000043F02003A362E36A43F00103E362236828
:10191000D3F804C02CF4694C4CEA010CC3F804C0A1
:1019200021688B68DFF870C003EA0C0313438B60F7
:10193000A168B9420BD0012909D00CE0DFF85CC0E6
:10194000A3690CEB43330B4343F40061DFE7218AC7
:101950000D05A5F580152168CB6A23F470032B4390
:10196000CB62216889680E4B1940914208D1E6622A
:10197000A16A21F0020141F00101A162BDE8F081FC
:10198000A06A20F0020040F01000A062E06A40F07F
:101990000100E0620120F1E7FDF7E1FF00E0FFFF59
:1019A000FE0E1FFF00B585B000210091019102914C
:1019B000039100680E49884218D10E48816941F4AC
:1019C00000718161816901F400710491816941F0C4
:1019D000080181618069694600F0080004900220D6
:1019E000009003200190044800F07AF805B000BD93
:1019F0000024014000100240000C014070B5044674
:101A000090F8240001280DD0012084F824002046FD
:101A1000FFF788FC02004FF0000005D084F8240096
:101A2000104670BD022070BDA16A40F201239943A7
:101A300041F48071A1621F4D23681F49AB4218D148
:101A40000E6816F4702F14D0A66A46F48016A662AB
:101A50000E68760505D5A66A26F4005646F480562B
:101A6000A662A66AF6040AD5E66A26F00606E662CB
:101A700006E0A66A26F48016A6625E68E9E7E062E0
:101A800084F824006FF00200186020688368C3F3B4
:101A90004243072B05D1A84208D1096811F4702FE1
:101AA00004D0816841F480118160B9E7816841F414
:101AB000A001F9E7002801400424014070B5044664
:101AC00000F010F90546601C02D004480078044478
:101AD00000F008F9401BA042FAD370BD2800002096
:101AE0002DE9F84FDFF8B8910024A9F1040B234643
:101AF0000F2709F1040AABF1040EC9E00125A54046
:101B00002A40AA427DD1674ED1F804C0ACEB06084A
:101B1000B44532D014DCBCF1030F3AD009DCBCF17F
:101B2000000F2AD0BCF1010F1CD0BCF1020F31D143
:101B30001DE0BCF1110F17D0BCF1120F2AD119E032
:101B4000B8F5881F19D006DCB8F5803F15D0B8F578
:101B5000801F1FD111E0B8F5001F0ED0B8F5041F8B
:101B600018D10AE0CB6815E0CB681B1D12E0CB68EA
:101B700008330FE0CB680C330CE08B682BB1012BE2
:101B80004FF0080303D0456104E0042302E005613F
:101B900000E00023FF2A01D8064601E000F1040618
:101BA0004FEA840501D9A5F12005D6F8008007FA8F
:101BB00005FC28EA0C0803FA05F548EA0508C6F80A
:101BC00000804D68ED0062D5374DAE6946F00106E4
:101BD000AE61AD6924F0030605F001050095334DB3
:101BE00006EB050CDCF80850A607360F07FA06F8D6
:101BF00025EA0805DFF8B880404503D14FF000081A
:101C000017E044E0DFF8AC80404502D14FF0010816
:101C10000FE0DFF8A480404502D14FF0020808E051
:101C2000DFF89880404502D14FF0030801E04FF003
:101C3000040808FA06F848EA0508CCF808804D6858
:101C4000D9F80060ED024D4601D5164300E09643F9
:101C50002E604D68DAF80060AD02554601D5164396
:101C600000E096432E604D68DBF80060AD035D46F2
:101C700001D5164300E096432E604D68DEF8006003
:101C8000ED03754601D5164300E096432E60641CB3
:101C90000D682A46E5407FF431AFBDE8F88F0000BB
:101CA0000804014000001110001002400000014033
:101CB00000080140000C01400010014000140140E8
:101CC0008068084000D001207047C26821EA020302
:101CD0000A4043EA0241016170470AB1016170475D
:101CE0000904FBE7014880687047000028000020D5
:101CF00070B5040025D094F83D00002520B984F883
:101D00003C50204600F04EF9242084F83D00206825
:101D1000016821F0010101602068016841F400417F
:101D200001602068016821F40041016000F00CFBB3
:101D30004D4A6168914201D84C4900E04C498842C3
:101D400001D2012070BD4B492368B0FBF1F15E6800
:101D500026F03F060E435E606368934206D94FF457
:101D6000967359434FF47A73B1FBF3F12368491C1E
:101D70001E6A26F03F06314319626168914210D80D
:101D80004900401EB0FBF1F2521CC2F30B02042AC0
:101D900001D2042022E0B0FBF1F0401CC0F30B00A4
:101DA0001CE0A268F2B301EBC10303EB0116431E72
:101DB000B3FBF6F35B1C43F480431B0549D092B39D
:101DC00001EBC10202EB0111401EB0FBF1F0401C1F
:101DD000C0F30B0040F4804040F400402168CA6921
:101DE0004CF6FF739A431043C861D4E907100143CE
:101DF0002068026822F0C00211430160D4E90301A7
:101E000001432068826848F2FF339A43114381609E
:101E1000D4E9050108432168CA6822F0FF02104393
:101E2000C86001E00EE016E02068016841F00101A1
:101E300001602564202084F83D00256384F83E502D
:101E4000002070BD01EB4106431EB3FBF6F35B1CA3
:101E5000B3E70120C2E701EB4101401EB0FBF1F006
:101E6000401CC0F30B00B7E7A086010080841E0071
:101E700000093D0040420F002DE9F84F1F469046F3
:101E80008A460446DDF82890FFF72CFF054694F8B3
:101E90003D0020287FD1192301224049204600958A
:101EA00001F0A6F8002876D194F83C00012872D001
:101EB000012084F83C0020680168C90703D101684B
:101EC00041F0010101602068016821F400610160B6
:101ED000212084F83D00102084F83E00002626646E
:101EE000C4F824806785608D20852D48E0622B46EC
:101EF0004A465146204601F001F890B920684169F0
:101F00008069009036E02A464946204601F016F9DD
:101F100050B1206C042804D12068016841F400719C
:101F200001600120BDE8F88F606A216800780861CF
:101F3000606A401C6062618D491E6185218D491E69
:101F400089B2218522685369DB435B070BD451B109
:101F500000781061606A401C6062608D401E608580
:101F6000208D401E20852A464946204601F014F85F
:101F70000028CED1208D0028C5D154F83D0B016832
:101F800041F400710160202004F81E09E6776677AD
:101F90000020C7E7FFE70220C4E7000002001000AE
:101FA0000000FFFF10B586B0002100910191029161
:101FB000039100680F4988421AD10F4CA06940F084
:101FC0000800A061A069694600F008000490C020E4
:101FD000009012200190032003900848FFF780FD35
:101FE000E06940F40010E061E06900F40010049042
:101FF00006B010BD0054004000100240000C01402B
:1020000002488168027811448160704728000020EE
:10201000074810B5016841F010010160032000F08D
:1020200075F80F2000F006F800F024F8002010BD2D
:102030000020024070B50D4D04464FF47A712878A7
:10204000B1FBF0F00A490968B1FBF0F000F052FB77
:1020500048B9102C07D200222146501E00F036F855
:1020600000206C6070BD012070BD000028000020C1
:10207000340000200C4808B5816941F001018161FC
:10208000816901F001010091C16941F08051C16194
:10209000C06900F0805000900448416821F0E06180
:1020A00041F00071416008BD001002400000014095
:1020B000002809DB00F01F02012191404009800047
:1020C00000F1E020C0F8001170470000F0B40E4BA2
:1020D0001B680C46C3F30223C3F10705042D00D986
:1020E0000425191D072901D2002300E0DB1E01266B
:1020F00006FA05F1491E214099409E40761E164081
:102100003143F0BC01F0EFBB0CED00E0064900F0FC
:10211000070208684FF6FF03184040EA0220034A0E
:1021200010430860704700000CED00E00000FA0565
:102130002DE9F84305460078354CC00754D0E069D6
:102140000026C00008D4E06940F08050E061E069FA
:10215000012600F0805000902E480168C90512D475
:102160000168804641F480710160FFF7BBFD0746BE
:1021700005E000BFFFF7B6FDC01B642823D8D8F8E0
:102180000000C005F6D5206A10F4407021D0A9885F
:1021900001F4407181421CD0206A1F49012220F4C1
:1021A00040700A6000220A602062C00711D0FFF769
:1021B00099FD074641F2883808E000BFFFF792FD1D
:1021C000C11B414502D90320BDE8F883206A80077E
:1021D000F4D5206A696820F44070084320621EB17B
:1021E000E06920F08050E0612878800705D56068BC
:1021F000A96820F44040084360602878C00605D5EF
:102200006068E96820F48000084360600020DBE734
:102210000010024000700040400442422DE9F047A7
:102220000F46050061D0434E306800F00700B84209
:1022300009D2306820F0070038433060306800F081
:102240000700B84251D128683B4C810712D540079E
:1022500003D5606840F4E06060602878000703D52B
:10226000606840F4605060606068A96820F0F00029
:10227000084360602878C00728D06868012810D01B
:102280002168022810D0890700292EDA616821F020
:10229000030101436160FFF725FD804641F2883963
:1022A0000DE021688903EFE78901EDE7FFF71AFDEB
:1022B000A0EB0801494502D90320BDE8F08760681A
:1022C000696800F00C00B0EB810FEFD1306800F0CE
:1022D0000700B8420BD9306820F00700384330605F
:1022E000306800F00700B84201D00120E5E7287807
:1022F000400705D56068E96820F4E0600843606045
:102300002878000706D56068296920F4605040EA03
:10231000C100606000F038F86168084AC1F3031139
:10232000515CC8400649086006480068FFF782FE15
:102330000020C2E70020024000100240444900088B
:10234000340000202C00002004480549006849683A
:10235000044AC1F30221515CC84070473400002098
:1023600000100240544900080448054900684968C3
:10237000044AC1F3C221515CC840704734000020B8
:1023800000100240544900080E4A51680E4801F0FE
:102390000C03042B11D0082B0FD10C48C1F383433D
:1023A000C903C05C0AD55168084AC1F34041921E76
:1023B000515C054A5043B0FBF1F070470449484373
:1023C000704700000010024000127A0034490008F3
:1023D00000093D002DE9F84F040070D02078C04D71
:1023E000C00749D06868C0F38100012807D0686839
:1023F000C0F38100022809D16868C00306D52868A7
:10240000800339D560680028E7D035E06068B0F512
:10241000803F0BD010B1B0F5A02F11D0286820F468
:1024200080302860286820F4802002E0286840F48A
:1024300080302860606890B1FFF754FC06460AE0DF
:10244000286840F480202860F0E700BFFFF74AFCCE
:10245000801B642873D828688003F7D50CE0FFF749
:1024600041FC064605E000BFFFF73CFC801B6428EA
:10247000F0D828688003F7D420789A4E80074FF070
:1024800001094FF0000839D5686810F00C0F07D02B
:102490006868C0F38100022809D16868C00306D4C7
:1024A0002868800714D52069012808D110E0206928
:1024B000B0B1C6F80090FFF715FC074605E00AE149
:1024C000FFF710FCC01B0228C4D828688007F7D586
:1024D0002868616920F0F80040EAC10028600DE03A
:1024E000C6F80080FFF7FEFB074604E0FFF7FAFBA3
:1024F000C01B022823D828688007F7D4207800075B
:102500002CD57948A169D9B1C0F80090FFF7EAFB52
:10251000074604E0FFF7E6FBC01B02280FD8686AF5
:102520008007F7D571484FF4FA510068B0FBF1F01D
:10253000009000BF0098411E0091FAD20EE080E0AA
:10254000C0F80080FFF7CEFB074604E0FFF7CAFBA8
:10255000C01B022875D8686A8007F7D42078400726
:1025600060D5E8690027C00008D4E86940F08050D1
:10257000E861E869012700F0805000905C4801683C
:10258000C90513D40168834641F480710160FFF7E7
:10259000A9FB824606E000BFFFF7A4FBA0EB0A0000
:1025A00064284ED8DBF80000C005F5D5E0680128A6
:1025B0000AD008B1052813D0286A20F0010028624B
:1025C000286A20F0040002E0286A40F00100286236
:1025D000E06841F2883B98B1FFF784FB82460BE04C
:1025E000286A40F004002862EEE700BFFFF77AFB9C
:1025F000A0EB0A0159455AD8286A8007F6D50CE0A5
:10260000FFF770FB824605E0FFF76CFBA0EB0A01C9
:1026100059454CD8286A8007F6D41FB1E86920F0E4
:102620008050E861E06988B36968C1F381010229DB
:1026300044D00228C6F8608004D0FFF753FB04465C
:1026400038E034E0FFF74EFB074604E0FFF74AFBB3
:10265000C01B02282BD828688001F7D4206AB0F567
:10266000803F05D16868A16820F4003008436860A5
:10267000D4E908010843696821F4741108436860CB
:10268000C6F86090FFF72EFB044606E025E000BF89
:10269000FFF728FB001B022809D828688001F7D51E
:1026A0001BE000BFFFF71EFB001B022802D903201E
:1026B000BDE8F88F28688001F4D40EE00128F7D037
:1026C0006868226A00F48031914204D1616A00F4A2
:1026D0007010884201D00120EAE70020E8E70000FE
:1026E00000100240000042428004424234000020B8
:1026F0000070004010B5401EB0F1807F01D3012072
:1027000010BD4FF0E02460610F21601701F0EBF87D
:102710000020A06107202061002010BD7047704795
:1027200070B590F83C20012A26D0012480F83C4066
:10273000022280F83D2003685A689D6822F07006E6
:102740000A6832435A600D4B02689A4208D0B2F1CF
:10275000804F05D00A4B9A4202D00A4B9A4204D1CC
:10276000496825F080031943916080F83D400021BD
:1027700080F83C10084670BD022070BD002C01405E
:10278000000400400008004010B5040003D094F895
:102790003D0010B107E0012010BD002084F83C008E
:1027A000204600F01FF8022084F83D00211D20681B
:1027B00000F0D0FE012084F8460084F83E0084F842
:1027C0003F0084F8400084F8410084F8420084F817
:1027D000430084F8440084F8450084F83D0000205C
:1027E00010BD000008B501681648B1F1804F14D043
:1027F000154A914219D1C16941F00201C161C06914
:10280000002200F00200009002211D20FFF75EFC74
:10281000BDE808401D20FFF74BBCC16941F0010134
:10282000C161C06900F0010009E0084A914207D186
:10283000C16941F00401C161C06900F00400009069
:1028400008BD0000001002400004004000080040E5
:1028500090F83D10012901D001207047022180F835
:102860003D1000680B49884208D0B0F1804F05D078
:102870000949884202D00949884204D1816801F09F
:102880000701062903D0016841F001010160002021
:1028900070470000002C0140000400400008004088
:1028A00090F83D10012901D001207047022180F8E5
:1028B0003D100168CA6842F00102CA6000680B4915
:1028C000884208D0B0F1804F05D00949884202D033
:1028D0000849884204D1816801F00701062903D024
:1028E000016841F00101016000207047002C0140A7
:1028F000000400400008004070B5044690F83C0019
:102900000025012817D0012684F83C60022084F8B5
:102910003D002068826822F0770222F47F428260C4
:102920000868502838D00DDC20284FD005DC90B343
:10293000102811D14AE0022070BD302846D040282E
:102940000AD13BE060282FD070280DD0B0F5805F11
:1029500003D0B0F5005F12D0012584F83D6000205F
:1029600084F83C00284670BDCB68D1E9012120687D
:1029700000F033FE2068816841F0770109E0CB6800
:10298000D1E90121206800F028FE2068816841F427
:1029900080418160E1E719E0CA684968206800F079
:1029A000D1FE5021206806E0CA684968206800F01E
:1029B000DAFE6021206800F01AFECEE7CA68496896
:1029C000206800F0BFFE40212068F4E7226801463D
:1029D0001046F0E7704770B50446006801694FF093
:1029E0000005C943890715D4C168C943890711D4B3
:1029F000E91E016101202077206880698007204658
:102A000002D0FFF7E7FF04E000F0BCF8204600F03A
:102A10004EF9257720680169C943490717D4C16871
:102A2000C943490713D46FF00401016102202077E4
:102A30002068806910F4407F204602D0FFF7CAFF6B
:102A400004E000F09FF8204600F031F92577206877
:102A50000169C943090716D4C168C943090712D4DB
:102A60006FF008010161042020772068C0698007A9
:102A7000204602D0FFF7AEFF04E000F083F82046C6
:102A800000F015F9257720680169C943C90617D4F4
:102A9000C168C943C90613D46FF010010161082051
:102AA00020772068C06910F4407F204602D0FFF7ED
:102AB00091FF04E000F066F8204600F0F8F8257772
:102AC00020680169C943C90708D1C168C943C9075A
:102AD00004D1891E0161204600F038F9206801699F
:102AE000C943090609D4C168C943090605D46FF072
:102AF000800101612046FFF711FE20680169C9438A
:102B0000490609D4C168C943490605D46FF040019C
:102B10000161204600F020F920680169C943890657
:102B20000BD4C168C943890607D46FF02001016145
:102B30002046BDE87040FFF7F2BD70BD00B585B01E
:102B4000002100910191029103910068B0F1804F42
:102B500011D10A48816941F00401816180696946A7
:102B600000F00400049001200090022001900390E6
:102B70000348FEF7B5FF05B000BD0000001002409D
:102B800000080140704770B5044690F83C000026EC
:102B90000D4601280FD0012084F83C006AB1042AB8
:102BA0001DD0082A2FD00C2A3FD00126002084F8FF
:102BB0003C00304670BD022070BD206800F020FD52
:102BC0002068816941F0080181612068816921F0F4
:102BD00004018161206881692A69114311E020683C
:102BE00000F036FD2068816941F400618161206850
:102BF000816921F480618161206881692A6941EAE3
:102C000002218161D2E7206800F04EFD2068C16991
:102C100041F00801C1612068C16921F00401C1616E
:102C20002068C1692A69114311E0206800F068FD3D
:102C30002068C16941F40061C1612068C16921F463
:102C40008061C1612068C1692A6941EA0221C161CC
:102C5000ACE710B5040003D094F83D0010B107E0D4
:102C6000012010BD002084F83C00204600F01EF832
:102C7000022084F83D00211D206800F06BFC01203B
:102C800084F8460084F83E0084F83F0084F8400051
:102C900084F8410084F8420084F8430084F844003A
:102CA00084F8450084F83D00002010BD704770474F
:102CB00010B50446022249B104290ED0082913D0C8
:102CC00094F84100012816D0012010BD94F83E0070
:102CD0000128F9D184F83E200FE094F83F00012844
:102CE000F2D184F83F2008E094F840000128EBD1AD
:102CF00084F8402001E084F841200122206800F09F
:102D00005FFC0F492068884203D1426C42F40042C4
:102D100042642068884208D0B0F1804F05D009494C
:102D2000884202D00849884204D1816801F0070135
:102D3000062903D0016841F001010160002010BDA7
:102D4000002C01400004004000080040014901201F
:102D50000870704700000020704770B5040004D070
:102D600094F84100002510B106E0012070BD84F800
:102D70004050204600F024F8242084F841002068C8
:102D8000C16821F40051C160204600F0FFFC2068BA
:102D9000016921F4904101612068416921F02A0113
:102DA00041612068C16841F40051C1606564202020
:102DB00084F8410084F842006563002070BD000083
:102DC00030B585B000240094019402940394006807
:102DD0001449884224D11448816941F480418161B9
:102DE000816901F480410491816941F004018161AC
:102DF00080690E4D00F0040004904FF400700090C4
:102E0000022001900320039069462846FEF768FEE1
:102E10002815CDE90004694628460294FEF760FEB5
:102E200005B030BD003801400010024000080140EC
:102E30002DE9F843044690F841001F4616460D461A
:102E4000202802D00220BDE8F8837DB176B10020B1
:102E50006064212084F84100FEF744FFA684804688
:102E6000E684A068B0F5805F02D003E00120EAE7C5
:102E7000206910B12E4600250EE000260CE08021CE
:102E8000204600F0DFFCA0B9AEB116F8010B2168B6
:102E90004860E08C401EE084E08C43464FF0000226
:102EA00000970028EBD14FF04001204600F0CAFC0B
:102EB00030B10320C7E735F8020BC0F30800E6E79E
:102EC000202084F841000020BDE7FEE701684A6940
:102ED000D24352050FD46FF480624A61002140F85A
:102EE000301F202242738173026942F004020261A2
:102EF000017301207047002070470000F8B50446B8
:102F0000C06A1E460D461746082807D0012805D07E
:102F100010F5803F02D0206B122804D12068016890
:102F200041F480710160134600224FF001112046E8
:102F3000009600F05DF840B120680068C00502D539
:102F40004FF4007020640320F8BD2069B0F5804F75
:102F50000ED00620216800EAD51040F0F00008618C
:102F600033463A460B49204600F08AF878B902E029
:102F700005F0FE0000E0E8B221680861054933462B
:102F80003A46891F204600F07BF80028DCD001205B
:102F9000F8BD00000800010070B516460D46044655
:102FA0001EE02046FFF792FF08B1012070BD681CAB
:102FB00016D0FEF797FE801BA84200D885B920687E
:102FC0004069C04340070BD5002044F8300F202152
:102FD0006173A073216941F0200121612073E4E74E
:102FE00020684069C0434007DBD4002070BD00006A
:102FF0002DE9F047984617460D460446C1F30746AB
:10300000DDF820902AE000BFB8F1FF3F26D0FEF7A0
:1030100069FEA0EB0901414502D8B8F1000F1DD1AE
:103020002068012E16D0806925EA00000004000CFB
:1030300012D00020B84211D1002044F8300F2021D6
:103040006173A073216941F0200121612073012087
:10305000BDE8F0874069E7E70120EBE72068012E33
:103060000AD0806925EA00000004000C06D0002088
:10307000B842C9D00020EBE74069F3E70120F7E749
:103080002DE9F047984616460D4604464FF00009D4
:103090004FF0200AC1F3074723E020684069C0438E
:1030A000400515D42068016841F400710160216871
:1030B0006FF480604861C4F8309084F83DA084F8D3
:1030C0003E90216C41F00401216484F83C9021E0A1
:1030D000701C06D0FEF706FEA0EB0800B04203D835
:1030E00016B1012F1FD021E02068012F15D0806973
:1030F00025EA00000004000C18D000BF44F8309FFF
:1031000084F80DA084F80E90216941F0200121611E
:1031100084F80C900120BDE8F087406925EA0000A2
:103120000004000CEAD12068406901E02068806951
:1031300025EA00000004000CAFD1ECE770B516469C
:103140000D4604461EE02046FFF7C0FE08B10120F0
:1031500070BD681C16D0FEF7C5FD801BA84200D8C4
:1031600085B920684069C04300060BD5002044F8AB
:10317000300F20216173A073216941F0200121618A
:103180002073E4E720684069C0430006DBD40020D8
:1031900070BD00003EB500240D48009401940294D7
:1031A0000A498460016001250573047505614FF4C7
:1031B00060214460C161FEF767FB0920CDE900058D
:1031C000694602940248FEF7DDFA3EBD0024014044
:1031D000380000202DE9F04385B0002425480094F4
:1031E000019402940394816941F020018161816915
:1031F00001F020010491816941F00401816181693C
:1032000001F004010491816941F008018161806944
:10321000DFF8648000F0080004900022022140469C
:10322000FEF75BFDDFF854904FF408470022394663
:103230004846FEF752FD02250126CDE900566946B3
:103240004046CDE90245FEF74BFCCDE900766946E4
:103250004846CDE90245FEF743FCE80200900848E5
:10326000CDE9010669464846FEF73AFC05B0BDE8DF
:10327000F08300000010024000080140000C0140F3
:103280000000111010B58EB0002407940894099422
:103290000A940B941C2168460C94FDF782F8174899
:1032A0004FF0804101604FF4FA51C0E901146321ED
:1032B000C0E903148461FFF767FA4FF48050079068
:1032C00007A90E48FFF718FB0C48FFF7C2FC0B9448
:1032D0000BA90A480C94FFF723FA602000901920EC
:1032E000CDE901040022694604480494FFF74BFC31
:1032F0000248FFF723FC0EB010BD0000BC00002008
:1033000010B586B0002412480094019402940394EE
:1033100004940E490594016041F61F41C0E901146F
:1033200044F61F61C0E903148461FFF72DFA4FF4DE
:103330008050009069460648FFF7DEFA049404A91D
:1033400003480594FFF7ECF906B010BD00040040F7
:103350000401002010B586B00024124800940194A6
:103360000294039404940E49059401604721C0E936
:1033700001144FF6FF71C0E903148461FFF704FAEA
:103380004FF48050009069460648FFF7B5FA049460
:1033900004A904480594FFF7C3F906B010BD000066
:1033A000000800404C010020FEE7FEE72DE9F04157
:1033B00001F048FA1D4D0646296901F043FAE96813
:1033C00001F074F9696904468846A86801F06EF94D
:1033D00007463146686801F069F9394601F0D0F8CE
:1033E000214601F0CDF804461148844201DD04462F
:1033F00003E014F1FF4F00D300243146404601F0B2
:10340000BFF8C5E904600B4DE86801F03BF92146BF
:1034100001F04CF901F088F80022074B00F0ECFCB9
:1034200000F042FE29684863BDE8F08100000020FA
:103430000000C842BC000020000059407047000056
:1034400010B50446084601F06FF802460B4608A185
:103450002046FCF7C5FE2046FCF784FF214682B2D9
:10346000BDE810404FF0FF330648FFF7E1BC000015
:1034700054656D70657261747572653A20252E32DF
:10348000660A000094010020704700002DE9F04119
:10349000044615460E460846FDF786FF00221146F3
:1034A0003046FDF7DCFF0AA13046FDF7FDFF06E0E0
:1034B0002B4629220A213046FEF734F90746A18817
:1034C0002068FEF7FDFB0028F2D13846BDE8F08108
:1034D00054656D70657261747572652843293A0090
:1034E000FEF78EBD30B593B028216846FCF759FF32
:1034F00014210AA8FCF755FF002401200F94109412
:103500001194010412948DE8130004904FF4E0101C
:10351000CDE90810022507956846FEF75BFF0F20EE
:10352000CDE90A056802CDE90C4002210AA80E94F3
:10353000FEF774FE4FF4404011900F950FA8FEF770
:10354000F7FD13B030BD70470148FFF744BA0000E3
:1035500004010020F0B50268164B174C174D4FF0D0
:103560008047984205D0B84203D0A04201D0A8427B
:1035700003D122F070064A683243984205D0B8421F
:1035800003D0A04201D0A84203D122F44074CA68FB
:1035900022434C6922F08002224302608A68C262A0
:1035A0000A688262984201D109690163012141617F
:1035B000F0BD0000002C0140000400400008004065
:1035C00010B501F01F030121046A99408C43046285
:1035D000016A9A401143016210BD10B5846842EA45
:1035E000032224F47F440A432243826010BD826890
:1035F00022F070020A4342F0070181607047000028
:1036000030B5036A026A22F00102026242688469EC
:1036100024F073050C682C4323F002058B682B43C0
:103620000A4DA8420BD123F00805CB6822F4407262
:103630002B434D6923F0040315438A692A434260F2
:10364000846149684163036230BD0000002C014081
:1036500030B5026A036A23F0100303624368846989
:103660000D6824F4E64444EA05248D6822F0200223
:1036700042EA05120B4DA8420ED1CD6822F080021D
:1036800042EA05124D6923F4406343EA85038D69DC
:1036900022F0400243EA8503436084614968816304
:1036A000026230BD002C014030B5036A026A22F488
:1036B000807202624268C46923F4007324F07305C7
:1036C0000C682C438D6843EA05230C4DA8420ED1AB
:1036D000CD6823F4006343EA05234D6922F4405288
:1036E00042EA05128D6923F4806342EA05124260C2
:1036F000C4614968C163036230BD0000002C014011
:1037000030B5046A026A22F4805202624268C369D8
:103710000D6823F4E64343EA05238D6824F400543E
:1037200044EA0534064DA84204D14D6922F4804292
:1037300042EA85124260C36149680164046230BD97
:10374000002C014010B5036A046A24F001040462ED
:10375000846924F0F00444EA021423F00A020A43C4
:103760008461026210BD10B5036A046A24F010047B
:103770000462846923F0A00324F4704444EA023212
:1037800043EA01118261016210BD000070B5044678
:1037900000680169E26821F4405111430161216927
:1037A000A0680843616908432168CA6841F20C6354
:1037B0009A430243CA6020684169A26921F44071BA
:1037C000114341611E492068884202D1FEF7CCFDB9
:1037D00001E0FEF7B9FD00EBC00101EB00126068EB
:1037E00064218000B2FBF0F3B3FBF1F36FF0180635
:1037F0007343B2FBF0F5B2FBF0F605EB8305322321
:1038000003EB0515B5FBF1F5B6FBF1F605F0F00598
:1038100005EB0615B2FBF0F6B2FBF0F0B0FBF1F0F1
:103820006FF01802504306EB800003EB0010B0FB72
:10383000F1F0216800F00F002844886070BD00009E
:10384000003801402DE9F041984617460E460446DF
:10385000069D27E0681C25D02DB1FEF743FAA0EBAA
:103860000800A8421ED920680C3050E8001F21F43F
:10387000D07140E80012002AF5D12068143050E8D9
:10388000001F21F0010140E80012002AF5D120209C
:1038900084F8410084F84200002084F840000320AE
:1038A000BDE8F0812068006836EA000004D00020FE
:1038B000B842CFD00020F3E70120F9E7FEE7490046
:1038C00050EAC12018BF04204A0D18BF40F0010083
:1038D00040F2FF72B2EB515F08BF40F002000128D6
:1038E00008BF052070470907090E002804DB00F116
:1038F000E02080F80014704700F00F0000F1E02095
:1039000080F8141D704730380A2801D20120704712
:103910000020704710B5802000F050F800242020CF
:1039200000F06CF8641C462CF9DB10BD10B5322099
:10393000FEF7C4F8302000F041F80520FEF7BEF88D
:10394000302000F03BF80120FEF7B8F8302000F0FE
:1039500035F80A20FEF7B2F8202000F02FF80A20F0
:10396000FEF7ACF8282000F029F80120FEF7A6F8B1
:10397000082000F023F80120FEF7A0F8012000F055
:103980001DF80120FEF79AF80120FEF797F80620AF
:1039900000F014F80120FEF791F8BDE810400C206B
:1039A00000F00CB810B1012805D102E041F080010F
:1039B00001E041F0C001C8B2AFF300801CB500F0D7
:1039C000F00141F00C028DF8042041F008010001E3
:1039D0008DF8051040F00C018DF8061040F008003D
:1039E0008DF8070064200090042301AA4E210248AC
:1039F000FEF742FA1CBD0000680000201CB500F074
:103A0000F00141F00D028DF8042041F009010001A0
:103A10008DF8051040F00D018DF8061040F00900FA
:103A20008DF8070064200090042301AA4E2102486B
:103A3000FEF722FA1CBD00006800002010B5044605
:103A400002E0641CFFF7DAFF20780028F9D110BDEE
:103A50000EB5FEF7DDFAFFF745FDFFF7BBFB644847
:103A60006249002501606349C0E901154FF48041B6
:103A7000C0E9035145618561C5610562FEF738F90A
:103A8000FFF788FBFFF7FEFB5C485B4901604FF4E2
:103A9000E131C0E901150C21C560C0E9045185611F
:103AA000C561FFF75AF9FFF72BFCFFF753FC5048AD
:103AB0003038FDF7A3FF02204D49009010234E221D
:103AC00001F5BA70FDF77AFC4C489038FEF7E8FE35
:103AD000DFF82C814FF48052444641464948FDF7B7
:103AE0005FFC434800215430FFF7E2F8FFF71EFF68
:103AF00042494FF400434839224601F19C00FDF74A
:103B000033FD404C404F203C3E4EDFF800914FF4D7
:103B10007A7AE761207848B101A8A169FFF790FCA3
:103B20004FF400614046FEF7D0F82570B188306848
:103B3000FEF7C6F838B12E4A3248303A02F5D27153
:103B4000FFF7A4FCE0612D485430FDF741FDA06172
:103B5000FFF7E0FE00210846FFF724FF2CA0FFF747
:103B60006DFFE06900F0E0FC02460B462BA101A8C6
:103B7000FCF736FB01A8FFF761FF02210120FFF7E8
:103B800011FF28A0FFF75AFF0B210120FFF70AFFC2
:103B9000DF20FFF733FF0C210120FFF703FF23A0F5
:103BA000FFF74CFFD4E90601FFF700FCA06900F025
:103BB000BBFC02460B4619A101A8FCF711FBC6206D
:103BC000FFF7FCFE01A8FFF739FFA069B84201DC4E
:103BD000012203E01649884204DB00220221484604
:103BE000FEF77BF85046FDF769FF93E7005400406D
:103BF00068000020A08601000038014094010020E8
:103C0000000C0140200000200000C84100080140D5
:103C1000536574706F696E743A20000025322E323D
:103C20006600000054203D2000000000430000001A
:103C30000000F0412DE9F0410D460646501B00F012
:103C400060FA04460F46304600F072FA00220A4B32
:103C500000F0D2F822463B4600F07EFA06460C46BB
:103C6000284600F065FA3246234600F01DF800F0C1
:103C70001BFA80B2BDE8F0810074AF4010B5002996
:103C80000AD00878002807D005487844FCF70EFFD2
:103C9000002801D0002010BD0248784410BD00006B
:103CA000860D00007E0D000010B591EA030F48BF9D
:103CB00083F0004300F15683841A71EB030C05D2A4
:103CC000121943EB0C03001B61EB0C01DFF824E13C
:103CD0004FEA1154A4EB135C1EEA430F18BF9EEA8F
:103CE000445F73D023EA0E03DCF1200E21EA045175
:103CF00043F4801332D322FA0CFE10EB0E0023FAA9
:103D00000CFE41EB0E01CCF1200E03FA0EFE10EB7F
:103D10000E0051F10001B1F5801FCCF1200E32D21E
:103D200001EB045112FA0EF2BDE8104058BF704783
:103D3000401C38BF5FEA420218BF7047002814BF1A
:103D400020F0010041F100014FEA410313F5001F8B
:103D500038BF7047A1F1C04100F0F6BA012A43EB29
:103D60000302ACF1200CDCF11F0E32BF4FF0000E4D
:103D700023FA0CF310EB030041EB0451B4EB115F99
:103D8000D0D0A1EB045101F5801149085FEA300061
:103D900001EB04510ED350F1000038BF12FA0EFEB1
:103DA00008D1BDE81040C9E7401C38BF5FEA4202B5
:103DB000CAD1C3E7BDE810404FEA410313F5001F25
:103DC00038BF7047A1F1C04100F0BEBA9EEA445F1F
:103DD00008D011EA5E0FBDE8104004BF01F00041B9
:103DE00000207047BDE8104070B500F05FFA00BFDA
:103DF00064FBBE3E0000E0FF2DE9C04130B4DFF8B7
:103E0000A0C23CEA111418BF3CEA131400F0EC8085
:103E100081EA03051CEA111444EAD57418BF1CEAB0
:103E2000131500F0C780A4EB05044FF0004545EAE8
:103E3000C12145EAC32341EA505143EA525304F1F8
:103E40007F74994204F500344FEAC0204FEAC22241
:103E500008BF904200F09C804FEA13650FF24016B5
:103E6000765D4FEA134506FB05F7C7F1807706FB41
:103E700007F74FEAD737A7FB03687642C8F58038C3
:103E8000A7FB06CE38BFA8F1010807FB08E64FF0F4
:103E9000000EA6FB028CE6FB03CEDCF1000CCEF19B
:103EA000004E38BFAEF1010EA6FB0C584FF00007D4
:103EB0004FF00005E6FB0E87A1FB08C6A0FB07CE6E
:103EC00016EB0E0645F10005E1FB076515F1E04E26
:103ED0007EBFA4F580345FEA46066D4116F1800787
:103EE00045F100054FEA17274FEA066647EA0567DE
:103EF000A6F1DE46B6F1805F4FEA15251FD9384698
:103F000024F0010C05EBC471BCF1FE6F01EB0C1148
:103F100002D8F0BCBDE8008124425CBF01F5801EE0
:103F20009EEAC47F02D4F0BCBDE80081244238D4AC
:103F3000F0BCA1F1C041BDE8004100F005BA4FEA74
:103F4000D22242EA43524FEAD323A7FB02864FEA2A
:103F5000D02040EA415007FB03661EEA0E0F4FEAED
:103F6000D12105FB026658BFA6EB0056B6EB005602
:103F70004FEA520E4EEAC37E18EB0E0E56EB530E6E
:103F8000BDD518EB02085E417F1C55F10005B6E770
:103F90004FF480154FF000074FF000064FF0000877
:103FA000ADE7F0BC4FF0000001F1C04101F000416D
:103FB000BDE8008111EA0C1F0CEA131500D00CE0DB
:103FC00013EA0C1F00F025804FF00000F0BC81EADE
:103FD000030101F00041BDE80081F0BCBDE80041F3
:103FE00081EA030100F0B0B9F0BCBDE8004170B552
:103FF00000F05CF9097EFC3E00F007B881EA03019D
:104000004FF0000001F00041704781EA030100F029
:104010009BB9F0BCBDE800414FF00000214970475A
:10402000FFFDFBF9F7F5F4F2F0EEEDEBE9E8E6E47D
:10403000E3E1E0DEDDDBDAD8D7D5D4D3D1D0CFCD04
:10404000CCCBCAC8C7C6C5C4C2C1C0BFBEBDBCBB3D
:10405000BAB9B8B7B6B5B4B3B2B1B0AFAEADACAB38
:10406000AAA9A8A8A7A6A5A4A3A3A2A1A09F9F9E12
:104070009D9C9C9B9A9999989797969595949393C4
:10408000929191908F8F8E8E8D8C8C8B8B8A89895B
:1040900088888787868585848483838282818180DE
:1040A0000000FF070000F87F4FEA1153A3F580637B
:1040B000D3F11E03A8BFD3F1200C08DB4FF0004260
:1040C00042EAC12252EA505232FA03F070470942E2
:1040D0000BD4102BC4BF0020704703F5787CBCF1D3
:1040E000FF3F05D04FF0FF3070474FF000007047A2
:1040F00070B500F0DBF800BF4992248000207047C3
:10410000F0E710F0004248BF4042B0FA80F310FAE6
:1041100003F10AD0C3F11D0303F580634FEA415058
:1041200002EB035202EBD12170474FF000007047C1
:10413000B0FA80F310FA03F10AD0C3F11D0303F5BE
:1041400080634FEA41504FEA035202EBD12170479E
:104150004FF0000070470000DFF848C170B51CEA5E
:10416000111E1EBF1CEA13159EEA0C0F95EA0C0FD8
:1041700000F06F8081EA030423EA4C134EEAD47EF8
:1041800021EA4C1141F4801143F48013AE44A1FBA9
:10419000024CA0FB0365AEF17F7E361955EB0C0592
:1041A000A1FB034C4CF10003A0FB021C16EB0C0618
:1041B000654153F10003094218BF46F0010613F4AC
:1041C000007F0BD14FEA03314FEA0530340341EA57
:1041D000155140EA16506FF003020AE04FEAC3217E
:1041E0004FEAC520F40241EA555140EA56506FF0BB
:1041F000020202EB2E4201EB025585EACE710AD093
:104200005FEA440C18BF24F0004450F1000041F173
:10421000000120EAD47040F2FE7C624500D270BDFD
:10422000A84214BF4FF080444FF04044002E08BF16
:104230000024BEF1806FA8BFA1F1C041BDE870406D
:1042400080F282804FF0000001F1C04101F0004196
:1042500070479EEA0C0F0CEA131518BF95EA0C0F75
:1042600006D04FF0000081EA030E0EF0004170BD51
:1042700000F01CF88900013E00F007B800F009B812
:104280004FEA430C5FEA5C5C08D081EA030100F06E
:104290005BB84FEA410C5FEA5C5CF6D14FF000007E
:1042A000014970470000FF070000F87F0EF1020E81
:1042B0002EF0030E5EF8046B364205D4012A43EB60
:1042C000030515F5001F12D8012841EB010C1CF560
:1042D000001F0CD80ED14FEAD17C15F5001F0CEB56
:1042E0004C0C0CF1020C08BF4CEBD37C04E04FF0FB
:1042F000080C01E04FEAD37C0CEB4C0526FA05F6DE
:1043000006F00706B6F1040C06D20EEB860CBDE8EB
:1043100070404CF0010C6047DFE80CF0090B020222
:104320004FF000414FF00000A1F5002170BD19468B
:104330001046012851EB010418BFD4F5001484BFC6
:10434000002001F0004170BD0808A0F500114FEAFF
:104350003101704710B591EA030F48BF83F0004365
:104360003FF5AAAC841A71EB030C07D212198CF03A
:10437000004C43EB0C03001B61EB0C01DFF8A4E1E4
:104380004FEA1154A4EB135C1EEA430F18BF9EEAD8
:10439000445F00F0B08023EA6E03524221EA0451E8
:1043A000C3EB6E0338BF5B1EDCF1200E25D322FA6F
:1043B0000CFE10EB0E0043FA0CFE41EB0E01CCF1AB
:1043C000200E03FA0EFE10EB0E0051F10001CCF1AD
:1043D000200E29D412FA0EF201EB0451BDE8104070
:1043E00058BF7047401C1CBFB2F1004F70470028F7
:1043F0000CBF491C20F00100704712EB020E43EB8A
:10440000030218BF4FF0010E4EEA4202ACF1200C3D
:10441000DCF11E0E54D943FA0CFE10EB0E0051F1E4
:10442000FF31CCF11E0ED5D50EF1010E12FA0EFEA3
:10443000404141EB010101EB445C5FEA5C5C10D957
:1044400010EBDE7001EB045138BFBEF1004FBDE848
:10445000104018BF704700280CBF491C20F0010015
:10446000704730D24FEAD42C11F5001124F40064C7
:104470001BD0B1FA81F20B3AA41AA41ED2F1200388
:10448000914030FA03F31943904001EBCC71002CBA
:1044900001EB0451BDE81040A8BF704701F1C041D5
:1044A0004FF0000001F000417047B0FA80F310FABD
:1044B00003F100D110BDE41A173C4805C90AE4E72E
:1044C00001EB045110BD491001EB0451BDE810404F
:1044D0004FEA300002E04FF0000170474A0008BF89
:1044E0000042F8D0B2F5001F28BF704701F000412C
:1044F0004FF0000070479EEA445F07D011EA5E0F5C
:10450000BDE8104004BF002100207047BDE8104006
:1045100070B5FFF7CBFE00BF40DFF63E83F00041F1
:10452000104670470000E0FF43004FEAD30C4FEA0B
:104530003C0C43401FBF40070CF1605113F0FE4F8D
:1045400070471CF0006F03D100200CF00041704751
:104550000CF0004343EA507010B540EACC0000F084
:1045600026F900BF000000924FEA0001FFF7ECBE01
:104570004FF000414FF00000A1F50021704700000E
:1045800090EA010F48BF81F0004100F16281421AB8
:104590003CBF801A89184FEAD0524FF07F4C1CEA7A
:1045A000410FA2EBD15318BF9CEA026F00F03B8091
:1045B0004FF0004C4CEA00204CEA012121FA03FCA8
:1045C00010EB0C0C1ED202F1FF325FEA1C2040EB14
:1045D000C25038BF70471CF07F0F4FEA400C18BF25
:1045E000BCF17F4F38BF7047C3F12003994008BF2B
:1045F00020F00100BCF17F4F38BF7047A0F1C040F0
:1046000000F01BB94FEA3C00000A40EBC25028BF43
:104610001CF0FF0F4FEA400CE6D018BFBCF17F4FF3
:1046200038BF7047EAE79CEA026F05D010EA5C0FDA
:1046300008BF00F00040704710B500F0B8F800BFA8
:1046400064FBBE3EC10DD1F19E0206DB4FEA0023A2
:1046500043F0004323FA02F07047004207D54FEAC7
:104660004001B1F1FE4F02D24FF00000704710B58B
:1046700000F09DF849922480002070476FEA2000E6
:1046800070470000B0FA80F310FA03F2C3F19D0303
:104690000AD0D90501EB1220530638BF704700F14C
:1046A000010008BF20F00100704700004FF47F0CAC
:1046B0001CEAD0121EBF1CEAD11392EA0C0F93EA37
:1046C0000C0F00F0478090EA010F48BF42F480725F
:1046D0004FF0004C4CEA00204CEA012102EB0302AF
:1046E000A0FB0113A2F50002002918BF43F001034B
:1046F0005B0028BF4FEA330342EB22425FEA132CF0
:104700004CEBC2502EBFBCEB436FB2F57C0F704731
:104710004FEA036CBCF1004F08BF20F00100B2F576
:104720007C0F38BF70470BD582F0FF0212F5803F37
:10473000C8BF704700F1C040D8BF00F000407047CC
:1047400000F5000C5FEA4C0C48BF7047B0F1C04068
:1047500000F073B890EA010F0CEAD11348BF42F49D
:104760008072624538BF634504D280EA010000F0E0
:104770000040704710B500F01AF800BF8900013EF4
:1047800000F007B800F009B85FEA410C5FEA1C6C62
:1047900008D080EA010000F050B85FEA400C5FEA00
:1047A0001C6CF6D14FF00040A0F5800070470EF170
:1047B000020E2EF0030E5EF8044B244204D44FEA9E
:1047C0004102B2F17F4F11D84FEA4003B3F17F4F5E
:1047D0000CD80ED14FEAD07CB2F17F4F0CEB4C0CD1
:1047E0000CF1020C08BF4CEBD17C04E04FF0080C3C
:1047F00001E04FEAD17C0CEB4C0324FA03F404F003
:104800000704B4F1040C06D20EEB840CBDE8104092
:104810004CF0010C6047DFE80CF0070802024FF093
:104820000040A0F5800010BD0846420018BFD2F13C
:10483000807288BF00F0004010BDFF2141EAD050D7
:10484000C005704790EA010F48BF81F000413FF575
:104850009EAE421A04D882F00042A0EB020011443E
:104860004FEAD0524FF07F4C1CEA410FA2EBD153DC
:1048700018BF9CEA026F4AD04FF0004C4CEA00206F
:104880004CEA012121FA03FCB0EB0C0C0FD412F01E
:10489000FE0F36D05FEA4C001DD5001240EBC2502F
:1048A00038BF70471CF03F0F18BF70470BE0A2F1F4
:1048B00001025FEA1C2040EBC25038BF70471CF079
:1048C0007F0F18BF7047C3F12003994014BF401EEB
:1048D00020F00100704780084FEA122308BF70479C
:1048E000B0FA80FCA2EB0C02CCF1280C60FA0CF0C0
:1048F00093EA122F04BF00EBC25070474FEAC37017
:104900007047130A5FEADC1008BF7047F6E79CEABD
:10491000026F04D010EA5C0F08BF0020704710B58A
:10492000FFF745FF40DFF63E81F000407047FBF7A0
:104930003BBE010202030405060708090A0B0C0D21
:104940000E0F101000000000000000000102030420
:1049500006070809000000000102030402400000ED
:10496000000000A00000000005400000000000C89A
:10497000000000000C4000000000409C000000000F
:10498000194000000020BCBE0000000034400000C0
:10499000BFC91B8E00000004B5400000504BCFD0B3
:1049A0006607E2CF010000006C4100003E8251AA80
:1049B000DFEEA73401000000D9420000DCB5A0E220
:1049C0003A301F97FFFFFFFFB4450000FD25A0C848
:1049D000E9A3C14FFFFFFFFFFF3F00000000008081
:1049E00000000000FF3F0000000000800000000009
:1049F0002C4A0008000000203800000028010008B0
:104A0000644A000838000020200800004401000823
:104A10001C00000043000000F8FFFFFF0C00000036
:104A20000E0000000F0000002E000000000000003B
:104A30000000A0400AD7A33B000034420000000061
:104A40000000000000000000000000000000000066
:104A50000000000001000000100000000000000045
:044A60000024F4003A
:04000005080000ED02
:00000001FF
