:020000040800F2
:10000000D806002089010008A30E0008110E000880
:10001000A10E00081B0300083D0F000800000000AF
:10002000000000000000000000000000A70E000813
:100030001D06000800000000A50E0008A90E00081B
:10004000A3010008A3010008A3010008A301000800
:10005000A3010008A3010008A3010008A3010008F0
:10006000A3010008A3010008A3010008A3010008E0
:10007000A3010008A3010008A3010008A3010008D0
:10008000A3010008A3010008A3010008A3010008C0
:10009000A3010008A3010008A3010008A3010008B0
:1000A000A3010008A3010008A3010008A3010008A0
:1000B000A3010008A3010008A3010008A301000890
:1000C000A3010008A3010008A3010008A301000880
:1000D000A3010008A3010008A3010008A301000870
:1000E000A3010008A3010008A301000800F002F822
:1000F00000F03AF80AA090E8000C82448344AAF188
:100100000107DA4501D100F02FF8AFF2090EBAE885
:100110000F0013F0010F18BFFB1A43F0010318473B
:10012000C80E0000E80E0000103A24BF78C878C15D
:10013000FAD8520724BF30C830C144BF04680C60ED
:10014000704700000023002400250026103A28BF35
:1001500078C1FBD8520728BF30C148BF0B60704739
:100160001FB51FBD10B510BD00F09DF81146FFF77B
:10017000F7FF00F0F5FE00F0BBF803B4FFF7F2FF65
:1001800003BC00F0C3F80000094880470948004755
:10019000FEE7FEE7FEE7FEE7FEE7FEE7FEE7FEE737
:1001A000FEE7FEE704480549054A064B7047000094
:1001B000FD0E0008ED000008D8000020D806002041
:1001C000D8020020D80200200FB41CB5074B06AAA5
:1001D0007B4469460090059800F039F80020694694
:1001E00000F048F81CBC5DF814FB0000A100000002
:1001F0004FF0000200B5134694469646203922BFC0
:10020000A0E80C50A0E80C50B1F12001BFF4F7AF0A
:10021000090728BFA0E80C5048BF0CC05DF804EBEC
:10022000890028BF40F8042B08BF704748BF20F85A
:10023000022B11F0804F18BF00F8012B7047704758
:100240007047704701694A1C02610878704700B521
:100250008FB0CDE901310021059105497944CDE9FF
:1002600003101146684600F00AF80FB000BD000008
:10027000E5FFFFFF0A6802F8010B0A6070472DE9ED
:10028000F04106460024D6E90170F5688046304604
:1002900003E04146B847641C3046A8470028F8D11F
:1002A0002046BDE8F081754600F02CF8AE4605000A
:1002B0006946534620F00700854618B020B5FFF781
:1002C00071FFBDE820404FF000064FF000074FF0EF
:1002D00000084FF0000B21F00701AC46ACE8C00964
:1002E000ACE8C009ACE8C009ACE8C0098D4670476D
:1002F00010B50446AFF300802046BDE81040FFF77C
:100300003CBF0000004870477800002001491820D9
:10031000ABBEFEE7260002007047FEE72DE9F05F66
:100320000446DDE91090DDE90C65DDE90AC7DDE989
:100330000EEB4FF00008DDF84CA084F800806170EF
:10034000A2706360A4F808C0E76026826563A4F821
:1003500038E0C4F83CB0A4F8409060641298A4F867
:100360004800C4F84CA01498A4F85000282084F841
:100370005500062084F852000C2084F85300142005
:1003800084F85400322000F04BF90022332120463B
:1003900000F05CF8052000F043F9002233212046EC
:1003A00000F054F8052000F03BF9002232212046ED
:1003B00000F04CF8052000F033F994F852100022B8
:1003C000204600F043F894F853100022204600F035
:1003D0003DF894F854100022204600F037F894F8C5
:1003E00055100022204600F031F80022012120465D
:1003F00000F02CF82046BDE8F05F0022022100F05A
:1004000025B8000008B510A31B68009343788B4201
:1004100001D85B1ED9B28378934201D85B1EDAB251
:100420001DF8022011440278C9B2102A06D0002A11
:1004300003D141F0800100F009F808BD41F08001CE
:10044000002200F078F808BD0040145470B504464E
:100450000E090D4612B1012A04D008E021890022BC
:10046000606802E021890122606800F0DBF9218FD9
:10047000606B06F001020C3400F0D4F9A18EC6F3D3
:100480004002206B00F0CEF9A18FC6F38002A06B72
:1004900000F0C8F9B4F84410F208206C00F0C2F97A
:1004A000A1880022206800F0BDF9012000F0B8F812
:1004B000A1880122206800F0B5F9012000F0B0F811
:1004C000A1880022206800F0ADF9012000F0A8F812
:1004D00005F00102A18DA06A00F0A4F9A18EC5F378
:1004E0004002206B00F09EF9A18FC5F38002A06B43
:1004F00000F098F9B4F84410C5F3C002206C00F085
:1005000091F9A1880022206800F08CF9012000F008
:1005100087F8A1880122206800F084F9012000F00A
:100520007FF8A1880022206800F07CF9BDE87040C7
:10053000012000F075B870B50D46044612B1012ACD
:1005400004D008E021890022606802E021890122AC
:10055000606800F067F9218B606905F001020C34D6
:1005600000F060F9A18AC5F34002206900F05AF951
:10057000A18BC5F38002A06900F054F9A18CC5F3EA
:10058000C002206A00F04EF9A18DC5F30012A06AE6
:1005900000F048F9A18EC5F34012206B00F042F93B
:1005A000A18FC5F38012A06B00F03CF9EA09B4F802
:1005B0004410206C00F036F9A1880022206800F079
:1005C00031F9012000F02CF8A1880122206800F008
:1005D00029F9012000F024F8A1880022206800F009
:1005E00021F9BDE87040012000F01AB80278102A05
:1005F00004D0002A05D10122FFF728BF0122FFF70E
:100600009ABF704770B50C46054603E02846641C47
:10061000FFF7ECFF21780029F8D170BD704700008A
:1006200070B5044600F004F90546601C02D0044889
:100630000078044400F0FCF8401BA042FAD370BDDF
:10064000000000202DE9F84FDFF8B8910024A9F14F
:10065000040B23460F2709F1040AABF1040EC9E08D
:100660000125A5402A40AA427DD1674ED1F804C099
:10067000ACEB0608B44532D014DCBCF1030F3AD021
:1006800009DCBCF1000F2AD0BCF1010F1CD0BCF179
:10069000020F31D11DE0BCF1110F17D0BCF1120FC8
:1006A0002AD119E0B8F5881F19D006DCB8F5803FCB
:1006B00015D0B8F5801F1FD111E0B8F5001F0ED07E
:1006C000B8F5041F18D10AE0CB6815E0CB681B1DF4
:1006D00012E0CB6808330FE0CB680C330CE08B687A
:1006E0002BB1012B4FF0080303D0456104E0042334
:1006F00002E0056100E00023FF2A01D8064601E080
:1007000000F104064FEA840501D9A5F12005D6F8C9
:10071000008007FA05FC28EA0C0803FA05F548EA08
:100720000508C6F800804D68ED0062D5374DAE690A
:1007300046F00106AE61AD6924F0030605F001053F
:100740000095334D06EB050CDCF80850A607360F74
:1007500007FA06F825EA0805DFF8B880404503D116
:100760004FF0000817E044E0DFF8AC80404502D1CC
:100770004FF001080FE0DFF8A480404502D14FF0B0
:10078000020808E0DFF89880404502D14FF00308E6
:1007900001E04FF0040808FA06F848EA0508CCF82A
:1007A00008804D68D9F80060ED024D4601D516432A
:1007B00000E096432E604D68DAF80060AD025546C1
:1007C00001D5164300E096432E604D68DBF80060CB
:1007D000AD035D4601D5164300E096432E604D689B
:1007E000DEF80060ED03754601D5164300E0964340
:1007F0002E60641C0D682A46E5407FF431AFBDE8E9
:10080000F88F0000080401400000111000100240A1
:100810000000014000080140000C014000100140B0
:10082000001401400AB1016170470904FBE70000B0
:10083000014880687047000000000020024881687D
:10084000027811448160704700000020074810B50D
:10085000016841F010010160032000F067F80F20EB
:1008600000F006F800F024F8002010BD002002403F
:1008700070B50D4D04464FF47A712878B1FBF0F055
:100880000A490968B1FBF0F000F0AEFA48B9102C43
:1008900007D200222146501E00F028F800206C608C
:1008A00070BD012070BD0000000000200C00002081
:1008B0000C4808B5816941F001018161816901F04D
:1008C00001010091C16941F08051C161C06900F02E
:1008D000805000900448416821F0E06141F00071CF
:1008E000416008BD0010024000000140F0B40E4B12
:1008F0001B680C46C3F30223C3F10705042D00D97E
:100900000425191D072901D2002300E0DB1E012662
:1009100006FA05F1491E214099409E40761E164078
:100920003143F0BC00F00BBB0CED00E0064900F0D9
:10093000070208684FF6FF03184040EA0220034A06
:1009400010430860704700000CED00E00000FA055D
:100950002DE9F0470F46050061D0434E306800F0A6
:100960000700B84209D2306820F0070038433060F1
:10097000306800F00700B84251D128683B4C81072D
:1009800012D5400703D5606840F4E06060602878C5
:10099000000703D5606840F4605060606068A96833
:1009A00020F0F000084360602878C00728D068680D
:1009B000012810D02168022810D0890700292EDADA
:1009C000616821F0030101436160FFF731FF804658
:1009D00041F288390DE021688903EFE78901EDE7ED
:1009E000FFF726FFA0EB0801494502D90320BDE827
:1009F000F0876068696800F00C00B0EB810FEFD100
:100A0000306800F00700B8420BD9306820F00700CA
:100A100038433060306800F00700B84201D0012050
:100A2000E5E72878400705D56068E96820F4E060CC
:100A3000084360602878000706D56068296920F4BB
:100A4000605040EAC100606000F018F86168084A30
:100A5000C1F30311515CC8400649086006480068AC
:100A6000FFF706FF0020C2E700200240001002400E
:100A7000D60F00080C000020040000200E4A516828
:100A80000E4801F00C03042B11D0082B0FD10C4899
:100A9000C1F38343C903C05C0AD55168084AC1F356
:100AA0004041921E515C054A5043B0FBF1F0704743
:100AB00004494843704700000010024000127A00C9
:100AC000C60F000800093D002DE9F84F040070D062
:100AD0002078C04DC00749D06868C0F38100012864
:100AE00007D06868C0F38100022809D16868C00394
:100AF00006D52868800339D560680028E7D035E03E
:100B00006068B0F5803F0BD010B1B0F5A02F11D0C8
:100B1000286820F480302860286820F4802002E0D3
:100B2000286840F480302860606890B1FFF780FE4C
:100B300006460AE0286840F480202860F0E700BFFD
:100B4000FFF776FE801B642873D828688003F7D5EA
:100B50000CE0FFF76DFE064605E000BFFFF768FEFC
:100B6000801B6428F0D828688003F7D420789A4E38
:100B700080074FF001094FF0000839D5686810F080
:100B80000C0F07D06868C0F38100022809D168689B
:100B9000C00306D42868800714D52069012808D12D
:100BA00010E02069B0B1C6F80090FFF741FE07469B
:100BB00005E00AE1FFF73CFEC01B0228C4D8286804
:100BC0008007F7D52868616920F0F80040EAC10085
:100BD00028600DE0C6F80080FFF72AFE074604E013
:100BE000FFF726FEC01B022823D828688007F7D409
:100BF000207800072CD57948A169D9B1C0F80090B8
:100C0000FFF716FE074604E0FFF712FEC01B02289E
:100C10000FD8686A8007F7D571484FF4FA51006819
:100C2000B0FBF1F0009000BF0098411E0091FAD295
:100C30000EE080E0C0F80080FFF7FAFD074604E010
:100C4000FFF7F6FDC01B022875D8686A8007F7D445
:100C50002078400760D5E8690027C00008D4E8691B
:100C600040F08050E861E869012700F08050009072
:100C70005C480168C90513D40168834641F480715A
:100C80000160FFF7D5FD824606E000BFFFF7D0FD0B
:100C9000A0EB0A0064284ED8DBF80000C005F5D5AB
:100CA000E06801280AD008B1052813D0286A20F08E
:100CB00001002862286A20F0040002E0286A40F05F
:100CC00001002862E06841F2883B98B1FFF7B0FD6F
:100CD00082460BE0286A40F004002862EEE700BF7D
:100CE000FFF7A6FDA0EB0A0159455AD8286A8007EC
:100CF000F6D50CE0FFF79CFD824605E0FFF798FD76
:100D0000A0EB0A0159454CD8286A8007F6D41FB1D8
:100D1000E86920F08050E861E06988B36968C1F350
:100D20008101022944D00228C6F8608004D0FFF770
:100D30007FFD044638E034E0FFF77AFD074604E023
:100D4000FFF776FDC01B02282BD828688001F7D456
:100D5000206AB0F5803F05D16868A16820F40030B2
:100D600008436860D4E908010843696821F47411F4
:100D700008436860C6F86090FFF75AFD044606E035
:100D800025E000BFFFF754FD001B022809D82868A2
:100D90008001F7D51BE000BFFFF74AFD001B0228CA
:100DA00002D90320BDE8F88F28688001F4D40EE052
:100DB0000128F7D06868226A00F48031914204D19A
:100DC000616A00F47010884201D00120EAE7002037
:100DD000E8E7000000100240000042428004424266
:100DE0000C0000200070004010B5401EB0F1807F64
:100DF00001D3012010BD4FF0E02460610F21601786
:100E000000F09DF80020A06107202061002010BDA7
:100E1000FEE700002DE9F04385B000241D48009452
:100E2000019402940394816941F008018161816910
:100E300001F008010491816941F004018161806938
:100E4000DFF8548000F004004FF4004504900022C5
:100E500029464046FFF7E6FCDFF840904FF4F8578C
:100E6000002239464846FFF7DDFC009502260125A1
:100E70000396CDE9015469464046FFF7E3FB00972E
:100E80000396CDE9015469464846FFF7DBFB05B000
:100E9000BDE8F08300100240000C01400008014052
:100EA000FEE7FEE770477047FFF7C8BC10B590B08B
:100EB00028216846FFF79CF914210AA8FFF798F942
:100EC0000220009001200490102000240590079437
:100ED0006846FFF7F9FD08B172B6FEE70F20CDE9CD
:100EE0000A040C940D9400210AA80E94FFF730FD1B
:100EF000002801D072B6FEE710B010BD70470000A8
:100F000010B5002211460948FFF77CFA08A10748EE
:100F1000FFF778FB012200210448FFF773FA034929
:100F2000BDE8104058310148FFF76CBB10000020AD
:100F300044617461206C61203A000000FEE70907FB
:100F4000090E002804DB00F1E02080F8001470474F
:100F500000F00F0000F1E02080F8141D7047000041
:100F60008CB0FFF773FC4FF48060114B4110CDE95A
:100F70000731CDE909308010CDE90530C2010D49B6
:100F8000CDE90312C0004100CDE900130290022216
:100F900010210948FFF7C2F9FFF788FFFFF73AFF72
:100FA000054806A15830FFF70FF9FFF7A9FFF7E74B
:100FB00000080140000C01401000002068616861D9
:100FC00068610000010202030405060708090A0B14
:100FD0000C0D0E0F101000000000000000000102B8
:100FE000030406070809000008100008000000209C
:100FF0001000000028010008181000081000002050
:10100000C8060000440100080100000010000000B4
:08101000000000000024F400C0
:04000005080000ED02
:00000001FF
