:020000040800F2
:100000002005002001010008AF1D0008E1190008CB
:10001000AD1D00086B080008D32000080000000098
:10002000000000000000000000000000471E000863
:10003000650A000800000000451E0008491E00086F
:100040001B0100081B0100081B0100081B01000820
:100050001B0100081B0100081B0100081B01000810
:100060001B0100081B0100081B0100081B01000800
:100070001B0100081B0100081B0100081B010008F0
:100080001B0100081B0100081B0100081B010008E0
:100090001B0100081B0100081B0100081B010008D0
:1000A0001B0100081B0100081B0100081B010008C0
:1000B0001B0100081B0100081B0100081B010008B0
:1000C0001B0100081B0100081B0100081B010008A0
:1000D0001B0100081B0100081B0100081B01000890
:1000E0001B0100081B0100081B010008DFF80CD0F1
:1000F00000F088FB00480047352B00082005002051
:100100000648804706480047FEE7FEE7FEE7FEE7B1
:10011000FEE7FEE7FEE7FEE7FEE7FEE79B1E0008C0
:10012000ED000008202A04DB203A21FA02F0002129
:10013000704721FA02F3D040C2F1200291400843F7
:1001400019467047D2B201E000F8012B491EFBD2DC
:1001500070470022F6E710B513460A4604461946D2
:10016000FFF7F0FF204610BDF0B480EA0102D40F83
:100170004200B2EB410F02D20246084611464A0045
:1001800042D0C30DDDB2C1F3C752AD1A202D35DA0E
:10019000C1F3160141F4000204B15242C5F1200638
:1001A00002FA06F12A411044B3EBD05F23D0C4B168
:1001B000012DA0EBC35009DCF0BC4FF0004202EA75
:1001C000C352DBB200F5000000F048B9400000F176
:1001D000807000EBC350A0F1807040EAD1704900FC
:1001E00009E0490841EAC071A0EBC35000F50000E6
:1001F000400800EBC350F0BC00F027B96142012277
:1002000002EB4101001BF6E7F0BC704781F00041B2
:10021000AAE780F00040A7E780EA010210B502F0EB
:100220000043400022D04A001FD0010E01EB1261B2
:10023000C0F35600C2F3560240F4000042F400023C
:10024000A0FB022000047F39140400D0401C50EAB7
:10025000124001D44000491EC2B20C0604EBD0107B
:10026000401C4008802A02D003E0002010BD20F08E
:100270000100002900DA0020184310BD2DE9F04DDF
:1002800081EA030404F0004B21F0004514464FF0CE
:10029000000A23F0004150EA050220D054EA01028E
:1002A0001DD0C5F30A570246C5F31303C1F313006B
:1002B000C1F30A5640F4801543F48013A7EB0608F7
:1002C000101BD64608F2FD3873EB050002D308F187
:1002D000010801E092185B41B8F1000F03DA002039
:1002E0000146BDE8F08D00204FF48011064684469B
:1002F0000EE0171B73EB050705D3121B63EB050319
:1003000006434CEA010C49084FEA300092185B4161
:1003100050EA0107EDD152EA030012D082EA04004C
:1003200083EA0501084305D0101BAB4106D2012228
:10033000002306E000224FF0004302E06FF00102CC
:1003400053101AEB06004CEB085110EB0A0041EB7E
:100350000B01BDE8F04D00F0AFB896230022114626
:1003600000F07CB8C1F30A5210B5C1F3130140F29A
:10037000FF3341F480119A4201DA002010BD40F2AF
:1003800033439A42A2F2334203DC5242FFF7CAFEE1
:1003900010BD904010BD00F0004230F000400AD087
:1003A000C10D01F56071C0F3160042EA0151C208A7
:1003B00040071143704700200146704730B50B4697
:1003C000014600202022012409E021FA02F59D4285
:1003D00005D303FA02F5491B04FA02F52844151E59
:1003E000A2F10102F1DC30BD2DE9F05F05460020ED
:1003F00092469B4688460646814640241BE0284696
:10040000414647462246FFF78DFE53465A46C01ADC
:10041000914110D311461846224600F005FA2D1AD4
:1004200067EB01084F4622460120002100F0FCF94D
:1004300017EB00094E41201EA4F10104DFDC484601
:1004400031462A464346BDE8F09F0029A8BF7047C1
:10045000401C490008BF20F00100704710B4B0FAFA
:1004600080FC00FA0CF050EA010404BF10BC704795
:1004700049B1CCF1200421FA04F411FA0CF118BFAF
:10048000012121430843A3EB0C01CB1D4FEA00617E
:100490004FEA102042BF002010BC704700EBC35051
:1004A00010440029A4BF10BC7047401C490008BF7D
:1004B00020F0010010BC704710B5141E73F1000449
:1004C00008DA401C41F1000192185B411A4301D146
:1004D00020F0010010BD2DE9F04D92469B4611B170
:1004E000B1FA81F202E0B0FA80F22032904600F0D8
:1004F0009BF904460F4640EA0A0041EA0B015346C5
:100500005A46084313D0114653EA010019D0C8F1E6
:1005100040025046FFF706FE05460E465046594635
:10052000424600F081F9084305D0012004E020464E
:100530003946BDE8F08D0020054346EAE0762C43BD
:1005400037430A986305E40AA0EB08000022FD0A7D
:1005500044EA47540A3002D500200146E9E7010584
:1005600010196941DDE9084500196941BDE8F04D00
:10057000A2E72DE9FE4F804681EA0300C00F0C463A
:10058000009021F0004123F00045B8EB0200A941A2
:1005900005D24046214690461C460B46024623F0B3
:1005A0000040104347D0270DC7F30A00C3F30A5198
:1005B0000290401A019040286BDAC3F3130040F414
:1005C000801B0098924620B10023D2EB030A63EB14
:1005D0000B0B01985946C0F14002504600F024F937
:1005E00006460D4650465946019A00F02CF910EB8C
:1005F00008006141002487EA115284EAE7731A4334
:1006000040D0009A62B3019A012A4FEA075215DCE2
:10061000001B61EB02014FF0004202EA0752CDE9F4
:100620000042001C41F5801132462B46FFF753FF74
:1006300003B0BDE8F08F40462146F9E7001B61EBAF
:100640000201001C41F5801300185B412018A2F53F
:10065000001747EB030140EAD570B6196D4111E070
:100660006D084FEA360645EAC0754FEA0752001B8F
:1006700061EB0201001C41F5801149084FEA30008E
:100680000019514132462B4603B0BDE8F04FFFF749
:1006900013BF0098012240000023D0EB020263EB5D
:1006A000E073009821464FEAE074B8EB000061EB7C
:1006B0000401E9E783F000435BE781F0004158E77C
:1006C0002DE9FE4F81EA030404F0004421F00041CB
:1006D00000944FF0000B23F0004350EA01045ED079
:1006E00052EA03045BD0C3F30A54C1F30A552C4405
:1006F000A4F2F3340194A0FB0254C1F3130141F4BA
:100700008011C3F3130343F4801301FB024400FB85
:10071000034E840A970A44EA815447EA8357A4FBAC
:10072000076802958D0A05FB07854FEA932C04FBA9
:100730000C542705029D4FEA065847EA1637B5EBD9
:1007400008056EEB070C870E920E47EA811742EA06
:100750008312A7FB0201B6EB0B0164EB00042B0D27
:1007600043EA0C335E1844EB1C50DA465146E7FB73
:100770000201C5F313044FEA0B3343EA14534FEA63
:100780000432019C43EA0603A4F10C040294009C89
:10079000CDE900B4FFF79FFE03B0BDE8F08F002065
:1007A0000146F9E7C1F30A52C1F3130140F2FF33E6
:1007B00041F480119A4202DA00200146704740F26B
:1007C00033439A42A2F2334202DC5242FFF7AABC00
:1007D00000F02AB830B5041E71F1000404DB4FF0BC
:1007E0000044404264EB0101141E73F1000405DB78
:1007F0001C464FF00043524263EB0403994208BF8A
:10080000904230BD064C074D06E0E06840F0010321
:1008100094E8070098471034AC42F6D3FFF76AFC1F
:10082000782C0008982C0008202A04DB203A00FAD3
:1008300002F1002070479140C2F1200320FA03F337
:10084000194390407047202A06DBCB17203A41FA23
:1008500002F043EAE07306E041FA02F3D040C2F14D
:1008600020029140084319467047FEE700F020BF80
:1008700010B5036800225A624FF47A7303E00268ED
:10088000546A9C42FCD3491E89B2F8D210BD036859
:1008900000225A620068426A8A42FCD370470068AC
:1008A000FFF7E6BF0068FFF7F2BF30B482608380D5
:1008B000016030BC0846FFF7D9BF2DE9F04107467B
:1008C000002500F057F800240126384600F061F8B2
:1008D0000021384600F0C0F801213846FFF7E2FF5A
:1008E000384600F047F8384600F00FF818B106FA1D
:1008F00004F02843C5B232213846FFF7D3FF641C09
:10090000082CE2DB2846BDE8F0818188806800F091
:10091000ADB970B5044600F04DF801212046FFF74F
:10092000BEFFCC21204600F066F84421204600F0AE
:1009300062F8C8212046FFF7B2FF204600F03AF8DF
:1009400001212046FFF7ABFFCC21204600F053F8F1
:10095000BE21204600F04FF82046FFF7AEFF0546C7
:100960002046FFF7AAFF45EA00200009FFF7F5FC43
:10097000E06070BD1FB500210091019102910391CB
:1009800081880091012102918068694600F07EF81B
:100990001FBD1FB500210091019102910391818833
:1009A000009101210191022103918068694600F0C4
:1009B0006DF81FBD70B505460024FFF7EAFF002162
:1009C000284600F049F84FF4F0712846FFF76AFF17
:1009D0002846FFF7CFFF50212846FFF763FF284640
:1009E000FFF793FF00B901244FF4C8712846FFF7C1
:1009F00059FF204670BD2DE9F0410E460746FFF72E
:100A0000C8FF0024012505FA04F03042384611D011
:100A1000FFF7BFFF0021384600F01EF801213846DD
:100A2000FFF740FF3846FFF7A5FF32213846FFF7B2
:100A300039FF0CE0FFF7ADFF0021384600F00CF85D
:100A400032213846FFF72EFF3846FFF793FF641C2C
:100A5000082CD8DBBDE8F08183880A4680681946F7
:100A600000F009B97047000070B5044600F008F9BD
:100A70000546601C02D004480078044400F000F9E8
:100A8000401BA042FAD370BD1C0000202DE9F84F96
:100A9000DFF8B891002409F1040A0AF1040B234697
:100AA0000F270BF1040EC9E00125A5402A40AA42F8
:100AB0007DD1674ED1F804C0ACEB0608B44532D006
:100AC00014DCBCF1030F3AD009DCBCF1000F2AD0D2
:100AD000BCF1010F1CD0BCF1020F31D11DE0BCF103
:100AE000110F17D0BCF1120F2AD119E0B8F5881FE9
:100AF00019D006DCB8F5803F15D0B8F5801F1FD19E
:100B000011E0B8F5001F0ED0B8F5041F18D10AE0A7
:100B1000CB6815E0CB681B1D12E0CB6808330FE0F3
:100B2000CB680C330CE08B682BB1012B4FF0080322
:100B300003D0456104E0042302E0056100E00023E6
:100B4000FF2A01D8064601E000F104064FEA8405B9
:100B500001D9A5F12005D6F8008007FA05FC28EA9E
:100B60000C0803FA05F548EA0508C6F800804D6848
:100B7000ED0062D5374DAE6946F00106AE61AD6954
:100B800024F0030605F001050095334D06EB050C36
:100B9000DCF80850A607360F07FA06F825EA08051C
:100BA000DFF8B880404503D14FF0000817E044E07B
:100BB000DFF8AC80404502D14FF001080FE0DFF8CC
:100BC000A480404502D14FF0020808E0DFF8988089
:100BD000404502D14FF0030801E04FF0040808FA45
:100BE00006F848EA0508CCF808804D68D9F8006096
:100BF000ED034D4601D5164300E096432E604D6847
:100C0000DAF80060AD03554601D5164300E096437F
:100C10002E604D68DBF80060ED025D4601D516439D
:100C200000E096432E604D68DEF80060AD02754628
:100C300001D5164300E096432E60641C0D682A46D9
:100C4000E5407FF431AFBDE8F88F000000040140BB
:100C50000000111000100240000001400008014097
:100C6000000C014000100140001401408068084061
:100C700000D0012070470AB1016170470904FBE709
:100C800001488068704700001C00002070B5040017
:100C900025D094F83D00002520B984F83C5020462A
:100CA00000F04EF9242084F83D002068016821F00E
:100CB000010101602068016841F400410160206881
:100CC000016821F40041016000F088FA4D4A616832
:100CD000914201D84C4900E04C49884201D20120A0
:100CE00070BD4B492368B0FBF1F15E6826F03F060A
:100CF0000E435E606368934206D94FF4967359437E
:100D00004FF47A73B1FBF3F12368491C1E6A26F095
:100D10003F06314319626168914210D84900401E74
:100D2000B0FBF1F2521CC2F30B02042A01D20420E0
:100D300022E0B0FBF1F0401CC0F30B001CE0A26805
:100D4000F2B301EBC10303EB0116431EB3FBF6F351
:100D50005B1C43F480431B0549D092B301EBC102F5
:100D600002EB0111401EB0FBF1F0401CC0F30B0080
:100D700040F4804040F400402168CA694CF6FF739B
:100D80009A431043C861D4E9071001432068026800
:100D900022F0C00211430160D4E90301014320683D
:100DA000826848F2FF339A4311438160D4E9050118
:100DB00008432168CA6822F0FF021043C86001E0BE
:100DC0000EE016E02068016841F001010160256431
:100DD000202084F83D00256384F83E50002070BD3B
:100DE00001EB4106431EB3FBF6F35B1CB3E70120A6
:100DF000C2E701EB4101401EB0FBF1F0401CC0F323
:100E00000B00B7E7A086010080841E0000093D00AA
:100E100040420F002DE9F84F1F4690468A4604468F
:100E2000DDF82890FFF72CFF054694F83D002028B8
:100E30007FD11923012240492046009500F05CFE35
:100E4000002876D194F83C00012872D0012084F863
:100E50003C0020680168C90703D1016841F0010125
:100E600001602068016821F400610160212084F89C
:100E70003D00102084F83E0000262664C4F824803B
:100E80006785608D20852D48E0622B464A46514695
:100E9000204600F0BDFD90B920684169806900904E
:100EA00036E02A464946204600F0A5FE50B1206CA7
:100EB000042804D12068016841F400710160012018
:100EC000BDE8F88F606A216800780861606A401C9C
:100ED0006062618D491E6185218D491E89B221851F
:100EE00022685369DB435B070BD451B10078106172
:100EF000606A401C6062608D401E6085208D401ECF
:100F000020852A464946204600F0D0FD0028CED153
:100F1000208D0028C5D154F83D0B016841F40071C3
:100F20000160202004F81E09E67766770020C7E7F5
:100F3000FFE70220C4E70000020010000000FFFFEE
:100F400010B586B0002100910191029103910068D3
:100F50000F4988421AD10F4CA06940F00800A061E7
:100F6000A069694600F008000490C020009012209B
:100F70000190032003900848FFF788FDE06940F4E2
:100F80000010E061E06900F40010049006B010BDAC
:100F90000054004000100240000C014002488168EB
:100FA00002781144816070471C000020074810B58A
:100FB000016841F010010160032000F067F8002093
:100FC00000F006F800F024F8002010BD00200240D8
:100FD00070B50D4D04464FF47A712878B1FBF0F0EE
:100FE0000A490968B1FBF0F000F0CEFA48B9102CBC
:100FF00007D200222146501E00F028F800206C6025
:1010000070BD012070BD00001C00002028000020E1
:101010000C4808B5816941F001018161816901F0E5
:1010200001010091C16941F08051C161C06900F0C6
:10103000805000900448416821F0E06141F0007167
:10104000416008BD0010024000000140F0B40E4BAA
:101050001B680C46C3F30223C3F10705042D00D916
:101060000425191D072901D2002300E0DB1E0126FB
:1010700006FA05F1491E214099409E40761E164011
:101080003143F0BC01F03AB80CED00E0064900F045
:10109000070208684FF6FF03184040EA0220034A9F
:1010A00010430860704700000CED00E00000FA05F6
:1010B0002DE9F0470F46050061D0434E306800F03F
:1010C0000700B84209D2306820F00700384330608A
:1010D000306800F00700B84251D128683B4C8107C6
:1010E00012D5400703D5606840F4E060606028785E
:1010F000000703D5606840F4605060606068A968CC
:1011000020F0F000084360602878C00728D06868A5
:10111000012810D02168022810D0890700292EDA72
:10112000616821F0030101436160FFF7A9FD80467A
:1011300041F288390DE021688903EFE78901EDE785
:10114000FFF79EFDA0EB0801494502D90320BDE849
:10115000F0876068696800F00C00B0EB810FEFD198
:10116000306800F00700B8420BD9306820F0070063
:1011700038433060306800F00700B84201D00120E9
:10118000E5E72878400705D56068E96820F4E06065
:10119000084360602878000706D56068296920F454
:1011A000605040EAC100606000F028F86168084AB9
:1011B000C1F30311515CC840064908600648006845
:1011C000FFF706FF0020C2E70020024000100240A7
:1011D000602C000828000020200000200448054959
:1011E00000684968044AC1F30221515CC840704755
:1011F0002800002000100240702C000812A185B0C9
:101200000FC98DE80F0014A0144A006804905168BB
:10121000134801F00C03042B10D0082B0ED1C1F39E
:101220008343C9031DF803000AD5516804AAC1F31A
:101230004041515C0A4A5043B0FBF1F005B07047A1
:1012400008494843FAE700000203040506070809B5
:101250000A0B0C0D0E0F10100102000000100240CE
:1012600000127A0000093D002DE9F84F040070D00B
:101270002078C04DC00749D06868C0F381000128BC
:1012800007D06868C0F38100022809D16868C003EC
:1012900006D52868800339D560680028E7D035E096
:1012A0006068B0F5803F0BD010B1B0F5A02F11D021
:1012B000286820F480302860286820F4802002E02C
:1012C000286840F480302860606890B1FFF7D8FC4F
:1012D00006460AE0286840F480202860F0E700BF56
:1012E000FFF7CEFC801B642873D828688003F7D5ED
:1012F0000CE0FFF7C5FC064605E000BFFFF7C0FCA9
:10130000801B6428F0D828688003F7D420789A4E90
:1013100080074FF001094FF0000839D5686810F0D8
:101320000C0F07D06868C0F38100022809D16868F3
:10133000C00306D42868800714D52069012808D185
:1013400010E02069B0B1C6F80090FFF799FC07469D
:1013500005E00AE1FFF794FCC01B0228C4D8286806
:101360008007F7D52868616920F0F80040EAC100DD
:1013700028600DE0C6F80080FFF782FC074604E015
:10138000FFF77EFCC01B022823D828688007F7D40B
:10139000207800072CD57948A169D9B1C0F8009010
:1013A000FFF76EFC074604E0FFF76AFCC01B02284B
:1013B0000FD8686A8007F7D571484FF4FA51006872
:1013C000B0FBF1F0009000BF0098411E0091FAD2EE
:1013D0000EE080E0C0F80080FFF752FC074604E012
:1013E000FFF74EFCC01B022875D8686A8007F7D447
:1013F0002078400760D5E8690027C00008D4E86974
:1014000040F08050E861E869012700F080500090CA
:101410005C480168C90513D40168834641F48071B2
:101420000160FFF72DFC824606E000BFFFF728FCB5
:10143000A0EB0A0064284ED8DBF80000C005F5D503
:10144000E06801280AD008B1052813D0286A20F0E6
:1014500001002862286A20F0040002E0286A40F0B7
:1014600001002862E06841F2883B98B1FFF708FC70
:1014700082460BE0286A40F004002862EEE700BFD5
:10148000FFF7FEFBA0EB0A0159455AD8286A8007EE
:10149000F6D50CE0FFF7F4FB824605E0FFF7F0FB22
:1014A000A0EB0A0159454CD8286A8007F6D41FB131
:1014B000E86920F08050E861E06988B36968C1F3A9
:1014C0008101022944D00228C6F8608004D0FFF7C9
:1014D000D7FB044638E034E0FFF7D2FB074604E0D0
:1014E000FFF7CEFBC01B02282BD828688001F7D459
:1014F000206AB0F5803F05D16868A16820F400300B
:1015000008436860D4E908010843696821F474114C
:1015100008436860C6F86090FFF7B2FB044606E037
:1015200025E000BFFFF7ACFB001B022809D82868A4
:101530008001F7D51BE000BFFFF7A2FB001B0228CC
:1015400002D90320BDE8F88F28688001F4D40EE0AA
:101550000128F7D06868226A00F48031914204D1F2
:10156000616A00F47010884201D00120EAE700208F
:10157000E8E70000001002400000424280044242BE
:10158000280000200070004010B5401EB0F1807FA0
:1015900001D3012010BD4FF0E02460610F216017DE
:1015A00000F0ACFD0020A06107202061002010BDEC
:1015B00070B590F83C20012A26D0012480F83C40E8
:1015C000022280F83D2003685A689D6822F0700668
:1015D0000A6832435A600D4B02689A4208D0B2F151
:1015E000804F05D00A4B9A4202D00A4B9A4204D14E
:1015F000496825F080031943916080F83D4000213F
:1016000080F83C10084670BD022070BD002C0140DF
:10161000000400400008004010B5040003D094F816
:101620003D0010B107E0012010BD002084F83C000F
:10163000204600F01FF8022084F83D00211D20689C
:1016400000F02CFC012084F8460084F83E0084F869
:101650003F0084F8400084F8410084F8420084F898
:10166000430084F8440084F8450084F83D000020DD
:1016700010BD000008B501680B48B1F1804F0BD0D8
:101680000A4A914207D1C16941F00401C161C069B0
:1016900000F00400009008BDC16941F00101C16182
:1016A000C06900F00100F5E70010024000080040AA
:1016B00090F83D10012901D001207047022180F8E7
:1016C0003D1000680B49884208D0B0F1804F05D02A
:1016D0000949884202D00949884204D1816801F051
:1016E0000701062903D0016841F0010101600020D3
:1016F00070470000002C014000040040000800403A
:1017000070B5044690F83C00012817D0012584F8F4
:101710003C50022084F83D002068826822F0770265
:1017200022F47F4282600868502830D00DDC2028E7
:101730004DD005DC98B310283BD148E0022070BDA5
:10174000302844D0402834D139E0602828D070288F
:1017500006D0B0F5805F2CD0B0F5005F29D10AE04B
:10176000CB68D1E90121206800F0DBFB20688168AB
:1017700041F0770109E0CB68D1E90121206800F050
:10178000D0FB2068816841F48041816011E0CA6823
:101790004968206800F07AFC5021206807E016E0D4
:1017A000CA684968206800F082FC6021206800F067
:1017B000C2FB84F83D50002084F83C0070BDCA682C
:1017C0004968206800F062FC40212068EFE7226849
:1017D00001461046EBE7000000B585B000210091FE
:1017E0000191029103910068B0F1804F11D10A4834
:1017F000816941F0040181618069694600F004005B
:101800000490012000900220019003900348FFF70C
:101810003DF905B000BD0000001002400008014085
:1018200070B5044690F83C000D4601280AD001200E
:1018300084F83C0042B1042A18D0082A2AD00C2A85
:101840004DD139E0022070BD206800F07DFB20689A
:10185000816941F0080181612068816921F00401FA
:101860008161206881692A69114311E0206800F0D4
:1018700093FB2068816941F400618161206881697E
:1018800021F480618161206881692A6941EA02212D
:10189000816124E0206800F0ABFB2068C16941F061
:1018A0000801C1612068C16921F00401C16120689B
:1018B000C1692A69114311E0206800F0C5FB206866
:1018C000C16941F40061C1612068C16921F480618E
:1018D000C1612068C1692A6941EA0221C161002011
:1018E00084F83C0070BD10B5040003D094F83D00AE
:1018F00010B107E0012010BD002084F83C00204614
:1019000000F01EF8022084F83D00211D206800F040
:10191000C5FA012084F8460084F83E0084F83F00B0
:1019200084F8400084F8410084F8420084F84300C1
:1019300084F8440084F8450084F83D00002010BD80
:101940007047000010B50446022249B104290ED0A8
:10195000082913D094F84100012816D0012010BDA9
:1019600094F83E000128F9D184F83E200FE094F865
:101970003F000128F2D184F83F2008E094F84000AD
:101980000128EBD184F8402001E084F841200122B5
:10199000206800F0B9FA0F492068884203D1426CF0
:1019A00042F4004242642068884208D0B0F1804F7F
:1019B00005D00949884202D00849884204D181688B
:1019C00001F00701062903D0016841F0010101601F
:1019D000002010BD002C0140000400400008004021
:1019E000FEE701684A69D24352050FD46FF4806262
:1019F0004A61002140F8301F20224273817302693E
:101A000042F0040202610173012070470020704718
:101A1000F8B50446C06A1E460D461746082807D08A
:101A2000012805D010F5803F02D0206B122804D188
:101A30002068016841F480710160134600224FF074
:101A400001112046009600F057F840B12068006868
:101A5000C00502D54FF4007020640320F8BD206952
:101A6000B0F5804F0ED00620216800EAD51040F076
:101A7000F000086133463A460B49204600F070F802
:101A800078B902E005F0FE0000E0E8B221680861E4
:101A9000054933463A46891F204600F061F8002880
:101AA000DCD00120F8BD00000800010070B516462A
:101AB0000D4604460DE02046FFF793FF08B10120D4
:101AC00070BD681C05D0FFF7DBF8801BA84207D863
:101AD00035B120684069C0434007ECD4002070BD98
:101AE000002044F8300F20216173A073216941F078
:101AF000200121612073E2E72DE9F0471E46904660
:101B00000D460446C1F30747DDF8209008E0701C3D
:101B100006D0FFF7B5F8A0EB0900B0420FD876B1B8
:101B20002068012F18D0806925EA00000004000C0D
:101B300014D000214145EAD00020BDE8F087002004
:101B400044F8300F20216173A073216941F0200116
:101B5000216120730120F0E74069E5E70121E9E711
:101B60002DE9F0479A4691460E46044600254FF06F
:101B70002008C1F3074725E020684069C0434005BD
:101B800014D42068016841F40071016021686FF489
:101B900080604861256384F83D8084F83E50206C65
:101BA00040F00400206484F83C501FE0B9F1FF3F8E
:101BB00008D0FFF765F8A0EB0A0149450CD8B9F148
:101BC000000F09D02068012F13D0806926EA000099
:101BD0000004000C0BD0CFE744F8305F84F80D8090
:101BE000A573206940F02000206125730120BDE825
:101BF000F0874069EAE770B516460D4604460DE0E9
:101C00002046FFF7EEFE08B1012070BD681C05D02C
:101C1000FFF736F8801BA84207D835B12068406925
:101C2000C0430006ECD4002070BD002044F8300F03
:101C300020216173A073216941F02001216120738B
:101C4000E2E700002DE9F04385B00024204800942D
:101C5000019402940394816941F0200181618169BA
:101C600001F020010491816941F0040181618169E1
:101C700001F004010491816941F0080181618069EA
:101C8000DFF8508000F00800049000220221404656
:101C9000FEF7F1FFDFF840904FF40047002239468D
:101CA0004846FEF7E8FF02250126CDE900566946C1
:101CB0004046CDE90245FEF7E9FECDE900766946EA
:101CC0004846CDE90245FEF7E1FE05B0BDE8F083E8
:101CD0000010024000080140000C014010B58EB019
:101CE00000240794089409940A940B941C216846D4
:101CF0000C94FEF72EFA17484FF0804101604FF424
:101D0000FA51C0E901146321C0E903148461FFF7AB
:101D100083FC4FF48050079007A90E48FFF7F0FCB2
:101D20000C48FFF7E0FD0B940BA90A480C94FFF751
:101D30003FFC602000901920CDE901040022694693
:101D400004480494FFF76CFD0248FFF745FD0EB010
:101D500010BD00008000002010B586B0002412489D
:101D6000009401940294039404940E490594016034
:101D70004721C0E901144FF6FF71C0E903148461E3
:101D8000FFF74AFC4FF48050009069460648FFF781
:101D9000B7FC049404A904480594FFF709FC06B0B5
:101DA00010BD000000080040C8000020FEE770479A
:101DB0002DE9F0411F4C2168FEF728FA06462169FB
:101DC000FEF724FAE168FEF727FA616905468846BE
:101DD000A068FEF721FA074631466068FEF71CFA54
:101DE0003946FEF7C1F92946FEF7BEF90546124805
:101DF000854201DD054603E015F1FF4F00D30025C4
:101E000031464046FEF7B0F9C4E904600B4CE06887
:101E1000FEF7A3FA2946FEF7FFF9FEF7BCFA002207
:101E2000074BFEF72BFAFEF79DFA21684863BDE8E1
:101E3000F0810000000000200000C8428000002067
:101E40000000594070477047FFF7A8B830B58FB011
:101E500028216846FEF77DF914210AA8FEF779F9D2
:101E600001210804CDE90010002402940225049108
:101E7000CDE907504FF4E01009906846FFF7F4F9F8
:101E80000F20CDE90A056802CDE90C4002210AA81D
:101E90000E94FFF70DF90FB030BD7047F0B5026832
:101EA000164B174C174D4FF08047984205D0B8425B
:101EB00003D0A04201D0A84203D122F070064A68A4
:101EC0003243984205D0B84203D0A04201D0A84284
:101ED00003D122F44074CA6822434C6922F0800284
:101EE000224302608A68C2620A688262984201D113
:101EF0000969016301214161F0BD0000002C01402E
:101F0000000400400008004010B501F01F0301214B
:101F1000046A99408C430462016A9A401143016249
:101F200010BD10B5846842EA032224F47F440A43BA
:101F30002243826010BD826822F070020A4342F0A0
:101F4000070181607047000030B5026A22F001028B
:101F50000262026A4368846924F073050C682C43AA
:101F600022F002058A682A430A4DA8420BD122F0CA
:101F70000805CA6823F440732A434D6922F004021D
:101F80001D438B692B43436084614968416302624E
:101F900030BD0000002C014030B5026A22F0100272
:101FA0000262026A436884690D6824F4E64444EAE4
:101FB00005248D6822F0200242EA05120B4DA8424A
:101FC0000ED1CD6822F0800242EA05124D6923F459
:101FD000406343EA85038D6922F0400243EA8503AA
:101FE0004360846149688163026230BD002C014016
:101FF00030B5026A22F480720262036A4268C469E0
:1020000023F4007324F073050C682C438D6843EAB5
:1020100005230C4DA8420ED1CD6823F4006343EA9A
:1020200005234D6922F4405242EA05128D6923F4DA
:10203000806342EA05124260C4614968C163036279
:1020400030BD0000002C014030B5026A22F48052FD
:102050000262046A4268C3690D6823F4E64343EAF6
:1020600005238D6824F4005444EA0534064DA84243
:1020700004D14D6922F4804242EA85124260C36174
:1020800049680164046230BD002C014010B5036A48
:10209000046A24F001040462846924F0F00444EA30
:1020A000021423F00A020A438461026210BD10B5D3
:1020B000036A23F0100303628369046A23F4704304
:1020C00043EA023224F0A00343EA01118261016273
:1020D00010BDFEE70FB4084B10B504A902AA03987F
:1020E00000F0EEF8044602A9002000F080FC204633
:1020F00010BC5DF814FB0000EF2900080907090E69
:10210000002804DB00F1E02080F80014704700F0A4
:102110000F0000F1E02080F8141D704702E008C8AD
:10212000121F08C1002AFAD170477047002001E051
:1021300001C1121F002AFBD1704700002DE9FF5F8B
:1021400082B00021DDE90430020DDDF840B0034328
:1021500018D044F61050A2F2FF32424315141198E1
:1021600001281FD0A5EB0B00401C5FEA000A4FF0CE
:1021700000064E4FDFF83891B046504615D5CAF1EB
:10218000000413E0119801244AA3012801D16FEA49
:102190000B010298119AC0E90031C0E9024206B071
:1021A000BDE8F09FCBF10000DFE704460021404A84
:1021B000491842EB0450CDE9001012E0E00707D0C7
:1021C00032463B4640464946FEF77AFA8046894603
:1021D00032463B4610461946FEF772FA06460F464F
:1021E0006410002CEAD1DDE90401DDE90023BAF135
:1021F000000F06DAFEF764FA42464B46FEF760FA35
:1022000005E0FEF73BF842464B46FEF737F804463A
:102210000E460022284BFEF7DDFA03D84FF0FF30C0
:10222000014607E00022254B20463146FEF7A1F982
:10223000FEF7B8FA102409E0002C0ADB0A2200237A
:10224000FEF7D2F8039B30321A55641E50EA0102A1
:10225000F2D1641C039AC4F111031444119A012AA7
:1022600003D0012208430DD10AE0084304D0002026
:102270004FF0110B119072E7A3EB0B056D1E0DE0F3
:102280005B4504DD4FF0000205F1010504E003DACF
:102290004FF00002A5F10105002AECD00298119937
:1022A000C0E90231C0E9004579E7000000001440B0
:1022B0000000F03F300000000000F0430000E03F6D
:1022C0002DE9FF4F95B09B468946064600250FE253
:1022D000252877D100242746F84A0121059400E0FB
:1022E000044316F8013F203B01FA03F01042F7D1F6
:1022F00030782A2811D06FF02F033078A0F1300207
:10230000092A16D8059A44F0020402EB820203EB74
:1023100042021044761C0590EFE759F8042B059211
:10232000002A03DA504244F40054059044F00204B9
:10233000761C30782E2816D116F8010F44F00404CC
:102340002A280DD06FF02F023078A0F13003092B2E
:1023500009D807EB870302EB4303C718761CF3E7A2
:1023600059F8047B761C30786C280FD006DC4C289A
:1023700017D068280DD06A2814D104E0742810D032
:102380007A280FD10DE044F400140AE044F48014DC
:1023900001E044F440147278824202D104F58014C2
:1023A000761C761C307866280BD013DC582877D042
:1023B00009DC002875D04528F6D04628F4D04728F7
:1023C0001AD19DE118E0632835D0642879D06528BA
:1023D00012D195E1702873D008DC6728F1D0692804
:1023E0006FD06E280DD06F2806D1B5E073282CD0A1
:1023F000752875D0782874D05A46179990476D1C67
:1024000075E1C4F30250022809D003280DD0D9F891
:10241000001004280DD00D6009F1040967E1D9F816
:102420000010EA17C1E90052F6E7D9F800100D8054
:10243000F2E70D70F0E719F8041B8DF8001000208A
:102440008DF80100EA46012003E059F804AB4FF093
:10245000FF3061074FF0000102D40DE008F10101E7
:102460008846B9420FDA8045F8DB1AF808100029CF
:10247000F4D108E008F1010188468142FADB1AF83C
:1024800008100029F6D105985B46A0EB0807214605
:102490003846179A00F094FA284400EB080507E044
:1024A0004DE029E10DE01AF8010B5A4617999047C3
:1024B000B8F10108F7D25B4621463846179A13E176
:1024C00042E00A220092C4F302524FF0000A022AAC
:1024D00008D059F804CB032A4FEAEC710AD00DE07A
:1024E00029E02AE009F1070121F00702F2E802C120
:1024F000914609E00FFA8CFC4FEAEC71042A03D1F3
:102500004FFA8CFC4FEAEC71002907DA0A460021E9
:10251000DCF1000C61EB02012D2202E0220504D562
:102520002B228DF80420012203E0E20701D02022B3
:10253000F7E7904659E00A2102E010220DE0102151
:102540004FF0000A00910BE010224FF0000A44F017
:1025500004040827009203E008224FF0000A0092CA
:10256000C4F30252022A05D059F804CB0021032AF1
:1025700008D009E009F1070121F00702F2E802C1E1
:10258000914605E01FFA8CFC042A01D10CF0FF0CE7
:102590004FF00008220728D5702806D0009B83F052
:1025A000100353EA0A0305D00EE040228DF8042000
:1025B000012208E05CEA010206D030228DF80420F6
:1025C0008DF8050002229046009B83F0080353EA31
:1025D0000A030AD15CEA010201D1620705D5302263
:1025E0008DF804204FF001087F1E582804D034A035
:1025F00003900EA802900DE036A0F9E7534660461E
:10260000009AFDF7F1FE84460398825C0298401E12
:10261000029002705CEA0100F0D1029806A9081A43
:1026200000F1200A600702D524F4803400E001277D
:10263000574502DDA7EB0A0000E0002000EB0A018D
:10264000009005984144401A0590E00306D45B468B
:102650002146179A059800F0B3F90544002706E0D3
:1026600001A85A46C05D179990476D1C7F1C4745CD
:10267000F6DBE0030CD55B462146179A059800F07F
:102680009FF9054404E030205A46179990476D1C85
:102690000099481E00900029F5DC08E00298029994
:1026A0005A460078491C0291179990476D1CBAF15F
:1026B0000001AAF1010AF1DC65E10000092801002E
:1026C00030313233343536373839616263646566A8
:1026D000000000003031323334353637383941426A
:1026E000434445460000000000F058F90544761CBC
:1026F000307800287FF4ECAD19B02846BDE8F08FA3
:10270000620700D4062709F1070222F0070CFCE853
:102710000223E14603F000485FEA080C02D00FF202
:10272000702C0DE05FEA045C02D50FF2682C07E024
:102730005FEAC47C02D00FF2602C01E0AFF2700CB3
:102740004FF0FF3823F00043CDF850C065280CD07F
:1027500006DC452809D046281DD047283DD13DE05C
:10276000662818D067287ED138E00021112F01DBC0
:10277000112000E0781CCDE9000106A90EA8FFF7A2
:10278000DDFCDDE90F010E9A03910021009207F1B3
:10279000010A04914DE04FF000400097CDE901108F
:1027A00006A90EA8FFF7CAFCDDE90F0203920E9BF3
:1027B00011990022DDF80CA00093049211B9791C44
:1027C00000EB010AB7EB0A0004D4C0F1FF3007F1B7
:1027D000010A0490AAEB0700019044E0012F00DAFF
:1027E00001270021112F01DD112000E03846CDE93D
:1027F000000106A90EA8FFF7A1FCDDE90F010E9A62
:102800000391002104910092BA4621070CD4039948
:10281000514500DA8A46BAF1010F05DD009AAAF1A6
:102820000101515C302908D0B84202DA10F1040FDE
:1028300006DA0121CDE9011015E0AAF10101E9E76D
:10284000002805DC049901440491AAEB000102E090
:10285000411C514500DD8A460499401A401C0190F4
:102860004FF000400290200704D40198504501DB4E
:10287000CDF8048000208DF84F0002980DF14F072D
:10288000B0F1004F25D02B200E9002984FF0020897
:1028900000280CDA404202902D200E9007E00A2119
:1028A0000298FDF78BFD3031029007F8011DB8F159
:1028B0000001A8F10108F2DC02980028EFD1791E8E
:1028C0000E980870307800F0200040F0450007F8BE
:1028D000020D12A8C01B00F107081498007800B17F
:1028E000012000EB0A01019801EBE07105984144D9
:1028F000401A401E0590E00306D45B462146179A15
:10290000059800F05DF805441498007818B15A460F
:10291000179990476D1CE00324D55B462146179A12
:10292000059800F04DF805441CE00498002807DBEA
:10293000DDE90301884203DD0098405C179901E05E
:10294000179930205A469047049805F10105401C1C
:1029500004900198401E019004D12E205A461799E8
:1029600090476D1CBAF10001AAF1010ADDDC05E017
:1029700017F8010B5A46179990476D1CB8F10001E2
:10298000A8F10108F4DC5B462146179A0598ABE6EE
:102990002D0000002B000000200000002DE9F04178
:1029A000044600251E461746880404D405E039462F
:1029B0002020B0476D1C641EF9D52846BDE8F08183
:1029C0002DE9F041044600251E469046C80301D576
:1029D000302700E02027880404D505E0414638462A
:1029E000B0476D1C641EF9D52846BDE8F0810A6821
:1029F000531C0B601070704710B5802000F050F829
:102A00000024202000F06CF8641C462CF9DB10BD7B
:102A100010B53220FEF728F8302000F041F80520EC
:102A2000FEF722F8302000F03BF80120FEF71CF8FA
:102A3000302000F035F80A20FEF716F8202000F0CC
:102A40002FF80A20FEF710F8282000F029F80120BE
:102A5000FEF70AF8082000F023F80120FEF704F83A
:102A6000012000F01DF80120FDF7FEFF0120FDF719
:102A7000FBFF062000F014F80120FDF7F5FFBDE88C
:102A800010400C2000F00CB810B1012805D102E074
:102A900041F0800101E041F0C001C8B2AFF3008015
:102AA0001CB500F0F00141F00C028DF8042041F05B
:102AB000080100018DF8051040F00C018DF806109A
:102AC00040F008008DF8070064200090042301AA5C
:102AD0004E210248FEF79EF91CBD00002C0000208C
:102AE0001CB500F0F00141F00D028DF8042041F01A
:102AF000090100018DF8051040F00D018DF8061058
:102B000040F009008DF8070064200090042301AA1A
:102B10004E210248FEF77EF91CBD00002C0000206B
:102B200010B5044602E0641CFFF7DAFF20780028A5
:102B3000F9D110BD86B0FEF739FAFFF787F9FFF734
:102B400081F8FFF709F9384836494FF480420160AF
:102B50003649416000218160C0E903124161816111
:102B6000C1610162FEF792F8FFF7B8F8FFF750FF76
:102B70002D4800215430FEF7E5FE2B494FF4004369
:102B80009C312B4A01F14800FDF78FFE294D2A4C5C
:102B90002A4E4FF47A772448E430FDF7BAFEA0615C
:102BA000FFF72AFF04210020FFF76EFF24A0FFF7A4
:102BB000B7FF02210120FFF767FF23A0FFF7B0FF57
:102BC0000B210120FFF760FFDF20FFF789FF0C21B9
:102BD0000120FFF759FF1EA0FFF7A2FFA069FFF732
:102BE000E7F8A069FDF7D7FB02460B4619A1684636
:102BF000FFF770FAC620FFF753FF6846FFF790FF14
:102C0000A069A84201DC012203E01449884204DBE8
:102C1000002202213046FEF72EF83846FDF724FF49
:102C2000B9E70000005400402C000020A0860100FD
:102C3000000C01400000F0410000002000080140AD
:102C4000445331384232310054203D20000000000E
:102C50004300000025322E326600000000000C42C6
:102C6000000000000000000001020304060708093C
:102C70000000000001020304982C0008000000205E
:102C80002C0000001C210008C42C00082C0000208F
:102C9000F40400002C2100080000C8419A99993FD3
:102CA000CDCCCC3D0000C841000000000000000079
:102CB0000000000001000000100000000000000003
:042CC0000024F400F8
:04000005080000ED02
:00000001FF
