:020000040800F2
:10000000000700209101000857120008B5110008F0
:10001000551200082F050008BB140008000000005E
:10002000000000000000000000000000D3120008E3
:10003000B909000800000000591200086514000802
:10004000AB010008AB010008AB010008AB010008E0
:10005000AB010008AB010008AB010008AB010008D0
:10006000AB010008AB010008AB010008AB010008C0
:10007000AB010008AB010008AB010008AB010008B0
:10008000AB010008AB010008AB010008AB010008A0
:10009000AB010008AB010008AB010008AB01000890
:1000A000AB010008AB010008AB010008AB01000880
:1000B000AB010008AB010008AB010008AB01000870
:1000C000AB010008AB010008AB010008AB01000860
:1000D000AB010008AB010008AB010008AB01000850
:1000E000AB010008AB010008AB01000800F002F80A
:1000F00000F03FF80AA090E8000C82448344AAF183
:100100000107DA4501D100F034F8AFF2090EBAE880
:100110000F0013F0010F18BFFB1A43F0010318473B
:1001200080140000A0140000103A24BF78C878C1E1
:10013000FAD8520724BF30C830C144BF04680C60ED
:10014000704700000023002400250026103A28BF35
:1001500078C1FBD8520728BF30C148BF0B60704739
:10016000642900F07D80002070471FB51FBD10B5C9
:1001700010BD00F052F91146FFF7F7FF01F0AEF99C
:1001800000F070F903B4FFF7F2FF03BC00F078F958
:100190000948804709480047FEE7FEE7FEE7FEE71B
:1001A000FEE7FEE7FEE7FEE7FEE7FEE70448054957
:1001B000054A064B70470000B9140008ED0000081E
:1001C00000010020000700200003002000030020A1
:1001D0000FB41CB5074B06AA7B44694600900598EE
:1001E00000F003F90020694600F012F91CBC5DF82C
:1001F00014FB0000350200002DE9F0410E460446D4
:10020000002020622046E168884730B3252805D0C9
:10021000D4E901219047206A401CF2E7E1682046BA
:1002200000278847050018D0A5F14100192802D8F9
:1002300020354FF400673246294620462760FFF7F5
:100240008FFF40B1012804D0F61D26F007060836BE
:10025000D8E7361DD6E72846DAE7206ABDE8F08100
:100260002DE9F0410646002410687529314616A58F
:1002700010D0AFF30080002802DA404213A507E057
:1002800031688A0701D512A502E0490704D511A5F6
:10029000012401E0AFF3008000210A2206F12407C7
:1002A00009E0B0FBF2FCB0FBF2F302FB1C003030C3
:1002B00078541846491C0028F3D123462A46304674
:1002C000BDE8F04100F032B8000000002D00000051
:1002D0002B000000200000004FF0000200B5134684
:1002E00094469646203922BFA0E80C50A0E80C5056
:1002F000B1F12001BFF4F7AF090728BFA0E80C5007
:1003000048BF0CC05DF804EB890028BF40F8042BFF
:1003100008BF704748BF20F8022B11F0804F18BF6C
:1003200000F8012B70477047704770472DE9F04780
:100330000D4699469246044600F124080168880655
:1003400004D5E06921F01001216000E00120A842FD
:1003500001DD471B00E00027A1697A1902EB0900C3
:10036000081AA0612078C00602D42046AFF30080AE
:10037000002608E0D4E901211AF806009047206A17
:10038000401C761C20624E45F4DB2078C0060AD55E
:100390002046AFF3008006E0D4E9012130209047E9
:1003A000206A401C2062381EA7F10107F4DC07E038
:1003B000D4E9012118F805009047206A401C20620A
:1003C000281EA5F10105F3DC2046AFF3008020785C
:1003D000000602D50220BDE8F0870120FBE70000FF
:1003E00001694A1C02610878704700B58FB0CDE9F9
:1003F00001310021059105497944CDE903101146E9
:100400006846FFF7F9FE0FB000BD0000E5FFFFFFF3
:100410000A6802F8010B0A607047754600F02CF874
:10042000AE4605006946534620F00700854618B0E1
:1004300020B5FFF7BBFEBDE820404FF000064FF0AF
:1004400000074FF000084FF0000B21F00701AC4609
:10045000ACE8C009ACE8C009ACE8C009ACE8C00928
:100460008D46704710B50446AFF300802046BDE8C6
:100470001040FFF787BE0000004870479C00002036
:1004800001491820ABBEFEE726000200704701605C
:10049000828070472DE9F0470025044685710126CA
:1004A00006E02089401C20813046E67100F086FA83
:1004B000204600F038F80028F3D0E07970B14FF40E
:1004C000967840F2B5374FF47A79204600F02BF851
:1004D000012806D0204600F026F8F0B10020BDE843
:1004E000F0876089401C6081012000F067FA608914
:1004F0004045EAD92089A0F13301B94205D8E57118
:1005000025816581A6713046E9E74845DDD9E57169
:10051000258165810320A071E1E70220A071E571CA
:1005200025816581DBE78188006800F049BBFEE733
:100530002DE9F05F0446DDE91090DDE90C65DDE9A9
:100540000AC7DDE90EEB4FF00008DDF84CA084F897
:1005500000806170A2706360A4F808C0E760268222
:100560006563A4F838E0C4F83CB0A4F84090606437
:100570001298A4F84800C4F84CA01498A4F85000AD
:10058000282084F85500062084F852000C2084F8B6
:100590005300142084F85400322000F00FFA002297
:1005A0003321204600F070F8052000F007FA002201
:1005B0003321204600F068F8052000F0FFF9002202
:1005C0003221204600F060F8052000F0F7F994F899
:1005D00052100022204600F057F894F853100022E1
:1005E000204600F051F894F854100022204600F004
:1005F0004BF894F855100022204600F045F80022F0
:100600000121204600F040F82046BDE8F05F0022BE
:10061000022100F039B810B50178102901D029B1B4
:1006200008E00022012100F0A4F803E000220121EB
:1006300000F02AF8BDE81040052000F0BFB9000026
:1006400008B510A31B68009343788B4201D85B1E4A
:10065000D9B28378934201D85B1EDAB21DF802202A
:1006600011440278C9B2102A06D0002A03D141F001
:10067000800100F009F808BD41F08001002200F07F
:1006800078F808BD0040145470B504460E090D46B4
:1006900012B1012A04D008E021890022606802E03A
:1006A00021890122606800F090FA218F606B06F0CA
:1006B00001020C3400F089FAA18EC6F34002206BCF
:1006C00000F083FAA18FC6F38002A06B00F07DFAE0
:1006D000B4F84410F208206C00F077FAA1880022E8
:1006E000206800F072FA012000F068F9A188012268
:1006F000206800F06AFA012000F060F9A188002269
:10070000206800F062FA012000F058F905F00102BB
:10071000A18DA06A00F059FAA18EC5F34002206BAA
:1007200000F053FAA18FC5F38002A06B00F04DFAE0
:10073000B4F84410C5F3C002206C00F046FAA1885A
:100740000022206800F041FA012000F037F9A1886A
:100750000122206800F039FA012000F02FF9A18869
:100760000022206800F031FABDE87040012000F05E
:1007700025B970B50D46044612B1012A04D008E02F
:1007800021890022606802E021890122606800F06E
:100790001CFA218B606905F001020C3400F015FA97
:1007A000A18AC5F34002206900F00FFAA18BC5F3BE
:1007B0008002A06900F009FAA18CC5F3C002206A8A
:1007C00000F003FAA18DC5F30012A06A00F0FDF954
:1007D000A18EC5F34012206B00F0F7F9A18FC5F38D
:1007E0008012A06B00F0F1F9EA09B4F84410206C13
:1007F00000F0EBF9A1880022206800F0E6F9012062
:1008000000F0DCF8A1880122206800F0DEF9012068
:1008100000F0D4F8A1880022206800F0D6F9BDE8E5
:100820007040012000F0CAB80278102A04D0002AD3
:1008300005D10122FFF728BF0122FFF79ABF7047B9
:1008400070B50C46054603E02846641CFFF7ECFF34
:1008500021780029F8D170BD2DE9F04704461E46E5
:10086000924688460846089FFFF714FE012804D0E8
:10087000022812D0032844D126E025686D1E256089
:10088000B54204DBBD4201DD3E4600E02E46514646
:100890002046266000F0E2FC33E000252068401E80
:1008A0002060B04201DA304602E0B84200DD38464E
:1008B00020605146204600F0D1FC322000F07EF846
:1008C0006D1C022DEADD1CE000254FF00A0912E044
:1008D0002068401E2060B04201DA304602E0B84293
:1008E00000DD384620605146204600F0B7FC142059
:1008F00000F064F86D1CB8F80810B1FBF9F0A842DC
:10090000E6DA2068BDE8F0872DE9F04704461E4688
:10091000924688460846089FFFF7BCFD012804D090
:10092000022812D0032844D126E025686D1C2560DA
:10093000B54204DBBD4201DD3E4600E02E46514695
:100940002046266000F08AFC33E000252068401C29
:100950002060B04201DA304602E0B84200DD38469D
:1009600020605146204600F079FC322000F026F845
:100970006D1C022DEADD1CE000254FF00A0912E093
:100980002068401C2060B04201DA304602E0B842E4
:1009900000DD384620605146204600F05FFC142000
:1009A00000F00CF86D1CB8F80810B1FBF9F0A84283
:1009B000E6DA2068BDE8F0877047000070B50446AD
:1009C00000F008F90546601C02D004480078044491
:1009D00000F000F9401BA042FAD370BD04000020D3
:1009E0002DE9F84FDFF8B8910024A9F1040B234654
:1009F0000F2709F1040AABF1040EC9E00125A54057
:100A00002A40AA427DD1674ED1F804C0ACEB06085B
:100A1000B44532D014DCBCF1030F3AD009DCBCF190
:100A2000000F2AD0BCF1010F1CD0BCF1020F31D154
:100A30001DE0BCF1110F17D0BCF1120F2AD119E043
:100A4000B8F5881F19D006DCB8F5803F15D0B8F589
:100A5000801F1FD111E0B8F5001F0ED0B8F5041F9C
:100A600018D10AE0CB6815E0CB681B1D12E0CB68FB
:100A700008330FE0CB680C330CE08B682BB1012BF3
:100A80004FF0080303D0456104E0042302E0056150
:100A900000E00023FF2A01D8064601E000F1040629
:100AA0004FEA840501D9A5F12005D6F8008007FAA0
:100AB00005FC28EA0C0803FA05F548EA0508C6F81B
:100AC00000804D68ED0062D5374DAE6946F00106F5
:100AD000AE61AD6924F0030605F001050095334DC4
:100AE00006EB050CDCF80850A607360F07FA06F8E7
:100AF00025EA0805DFF8B880404503D14FF000082B
:100B000017E044E0DFF8AC80404502D14FF0010827
:100B10000FE0DFF8A480404502D14FF0020808E062
:100B2000DFF89880404502D14FF0030801E04FF014
:100B3000040808FA06F848EA0508CCF808804D6869
:100B4000D9F80060ED024D4601D5164300E096430A
:100B50002E604D68DAF80060AD02554601D51643A7
:100B600000E096432E604D68DBF80060AD035D4603
:100B700001D5164300E096432E604D68DEF8006014
:100B8000ED03754601D5164300E096432E60641CC4
:100B90000D682A46E5407FF431AFBDE8F88F0000CC
:100BA0000804014000001110001002400000014044
:100BB00000080140000C01400010014000140140F9
:100BC0008068084000D0012070470AB10161704779
:100BD0000904FBE70148806870470000040000201A
:100BE0000248816802781144816070470400002047
:100BF000074810B5016841F010010160032000F0C2
:100C000067F80F2000F006F800F024F8002010BD6F
:100C10000020024070B50D4D04464FF47A712878DB
:100C2000B1FBF0F00A490968B1FBF0F000F0AEFA50
:100C300048B9102C07D200222146501E00F028F897
:100C400000206C6070BD012070BD00000400002019
:100C5000100000200C4808B5816941F00101816154
:100C6000816901F001010091C16941F08051C161C8
:100C7000C06900F0805000900448416821F0E061B4
:100C800041F00071416008BD0010024000000140C9
:100C9000F0B40E4B1B680C46C3F30223C3F10705E7
:100CA000042D00D90425191D072901D2002300E0D5
:100CB000DB1E012606FA05F1491E214099409E409F
:100CC000761E16403143F0BC00F0F8BB0CED00E09E
:100CD000064900F0070208684FF6FF03184040EA93
:100CE0000220034A10430860704700000CED00E04A
:100CF0000000FA052DE9F0470F46050061D0434E8C
:100D0000306800F00700B84209D2306820F00700D0
:100D100038433060306800F00700B84251D128688D
:100D20003B4C810712D5400703D5606840F4E06072
:100D300060602878000703D5606840F46050606008
:100D40006068A96820F0F000084360602878C00758
:100D500028D06868012810D02168022810D089079F
:100D600000292EDA616821F0030101436160FFF779
:100D700031FF804641F288390DE021688903EFE7B1
:100D80008901EDE7FFF726FFA0EB0801494502D9ED
:100D90000320BDE8F0876068696800F00C00B0EBE4
:100DA000810FEFD1306800F00700B8420BD93068EE
:100DB00020F0070038433060306800F00700B84288
:100DC00001D00120E5E72878400705D56068E9688B
:100DD00020F4E060084360602878000706D560686A
:100DE000296920F4605040EAC100606000F018F802
:100DF0006168084AC1F30311515CC84006490860A4
:100E000006480068FFF706FF0020C2E70020024006
:100E1000001002408E15000810000020080000207D
:100E20000E4A51680E4801F00C03042B11D0082B18
:100E30000FD10C48C1F38343C903C05C0AD5516884
:100E4000084AC1F34041921E515C054A5043B0FB31
:100E5000F1F0704704494843704700000010024019
:100E600000127A007E15000800093D002DE9F84FB8
:100E7000040070D02078C04DC00749D06868C0F326
:100E80008100012807D06868C0F38100022809D1D9
:100E90006868C00306D52868800339D560680028D3
:100EA000E7D035E06068B0F5803F0BD010B1B0F509
:100EB000A02F11D0286820F480302860286820F402
:100EC000802002E0286840F480302860606890B19B
:100ED000FFF780FE06460AE0286840F4802028607C
:100EE000F0E700BFFFF776FE801B642873D8286800
:100EF0008003F7D50CE0FFF76DFE064605E000BF66
:100F0000FFF768FE801B6428F0D828688003F7D4B8
:100F100020789A4E80074FF001094FF0000839D52C
:100F2000686810F00C0F07D06868C0F381000228D1
:100F300009D16868C00306D42868800714D52069E1
:100F4000012808D110E02069B0B1C6F80090FFF781
:100F500041FE074605E00AE1FFF73CFEC01B022800
:100F6000C4D828688007F7D52868616920F0F800A0
:100F700040EAC10028600DE0C6F80080FFF72AFEB5
:100F8000074604E0FFF726FEC01B022823D8286886
:100F90008007F7D4207800072CD57948A169D9B10A
:100FA000C0F80090FFF716FE074604E0FFF712FEB8
:100FB000C01B02280FD8686A8007F7D571484FF424
:100FC000FA510068B0FBF1F0009000BF0098411E9C
:100FD0000091FAD20EE080E0C0F80080FFF7FAFD41
:100FE000074604E0FFF7F6FDC01B022875D8686AC3
:100FF0008007F7D42078400760D5E8690027C00053
:1010000008D4E86940F08050E861E869012700F001
:10101000805000905C480168C90513D4016883467C
:1010200041F480710160FFF7D5FD824606E000BF04
:10103000FFF7D0FDA0EB0A0064284ED8DBF80000D3
:10104000C005F5D5E06801280AD008B1052813D0FD
:10105000286A20F001002862286A20F0040002E0DB
:10106000286A40F001002862E06841F2883B98B1AC
:10107000FFF7B0FD82460BE0286A40F004002862CA
:10108000EEE700BFFFF7A6FDA0EB0A0159455AD8CD
:10109000286A8007F6D50CE0FFF79CFD824605E044
:1010A000FFF798FDA0EB0A0159454CD8286A800744
:1010B000F6D41FB1E86920F08050E861E06988B398
:1010C0006968C1F38101022944D00228C6F8608012
:1010D00004D0FFF77FFD044638E034E0FFF77AFDE7
:1010E000074604E0FFF776FDC01B02282BD82868CE
:1010F0008001F7D4206AB0F5803F05D16868A16807
:1011000020F4003008436860D4E9080108436968A6
:1011100021F4741108436860C6F86090FFF75AFD27
:10112000044606E025E000BFFFF754FD001B02283F
:1011300009D828688001F7D51BE000BFFFF74AFDFA
:10114000001B022802D90320BDE8F88F286880011F
:10115000F4D40EE00128F7D06868226A00F48031E8
:10116000914204D1616A00F47010884201D00120DC
:10117000EAE70020E8E700000010024000004242D9
:1011800080044242100000200070004010B5401E54
:10119000B0F1807F01D3012010BD4FF0E0246061E9
:1011A0000F21601700F08AF90020A061072020615C
:1011B000002010BDFEE700002DE9F04385B00024BB
:1011C00021480094019402940394816941F008013C
:1011D0008161816901F008010491816941F0040194
:1011E00081618069DFF8648000F004004FF40046FC
:1011F0000490002231464046FFF7E7FCDFF85090AC
:101200004FF4F857002239464846FFF7DEFC4FF40A
:10121000E04001258DE8310069464046FFF7E0FBDC
:10122000CDE900650226CDE9024669464046FFF752
:10123000D7FB00970396CDE9015469464846FFF76E
:10124000CFFB05B0BDE8F08300100240000C014068
:1012500000080140FEE7FEE77047000038B50C4685
:10126000026807A16846FEF7B3FF01220521204668
:10127000FFF7E6F969462046FFF7E2FA38BD0000BD
:101280002564000020B505460846FFF703F901284C
:1012900002D002280ED106E02068401C20600328FE
:1012A00008DD012005E02068801C2060032801DDA6
:1012B000C01E20602068012805D0022805D0032820
:1012C00005D0284620BD002020BD012020BD0220E1
:1012D00020BD70472DE9FC5F0C46DDF830B081463B
:1012E00002F118019A46154658460191FFF7CAFFC8
:1012F000010005F10C0865D0012931D002292ED159
:101300005046FFF788F9002211465046FFF798F93A
:1013100048A15046FFF794FA012205215046FFF7F5
:101320008FF93C26012205215046FFF789F95146E5
:101330002046FFF793FF0123524641462046009680
:10134000FFF78AFA01235246294620460096FFF706
:10135000DBFA58460199FFF795FF0228E2D060E0DA
:101360005046FFF758F9002211465046FFF768F93A
:1013700034A15046FFF764FA012205215046FFF7D9
:101380005FF9642704F10806012205215046FFF7A2
:1013900057F951463046FFF761FF00235246414658
:1013A00030460097FFF758FA002352462946304648
:1013B0000097FFF7A9FA58460199FFF763FF012844
:1013C000E2D02EE05046FFF726F9002211465046A3
:1013D000FFF736F91FA15046FFF732FA0122052127
:1013E0005046FFF72DF92826012205215046FFF728
:1013F00027F95146201DFFF731FF0A235246414687
:10140000201D0096FFF728FA0A2352462946201D80
:101410000096FFF779FA58460199FFF733FF002845
:10142000E2D094E80E00C9E90012C9F80830BDE81E
:10143000FC9F000054696D65286D696E757465299F
:101440003A00000048756D69646974792825293A65
:101450000000000054656D706572617475726528D6
:1014600043293A00FFF7BCBB10B590B0282168466D
:10147000FEF732FF14210AA8FEF72EFF022000908B
:101480000120049010200024059007946846FFF77F
:10149000EDFC08B172B6FEE70F20CDE90A040C940A
:1014A0000D9400210AA80E94FFF724FC002801D017
:1014B00072B6FEE710B010BD7047FEE70907090ECF
:1014C000002804DB00F1E02080F80014704700F0F1
:1014D0000F0000F1E02080F8141D70478CB0FFF77A
:1014E00087FBFFF7C1FFFFF767FE204C4FF4005268
:1014F00021461F48FEF7CBFF1D48A5142A4621466A
:101500000C38FEF7C4FF1A48AA0021460C30FEF73B
:10151000BEFF2015174B4110CDE90731CDE9093049
:101520008010CDE90530C1010095CDE90341C0002F
:10153000CDE901300E48022210216438FEF7F8FF91
:101540000B4D0D4C643D0A4B2078643B03F158026F
:10155000009002F1240101A8FFF7BCFE01AB93E863
:10156000070005F17C0383E80700ECE7000C01406D
:101570007800002000080140000000200102020362
:101580000405060708090A0B0C0D0E0F10100000C9
:101590000000000000000102030406070809000023
:1015A000C0150008000000201400000028010008F9
:1015B000D415000814000020EC06000044010008C7
:1015C000000000000100000010000000000000000A
:0415D0000024F400FF
:04000005080000ED02
:00000001FF
