:020000040800F2
:100000001007002091010008371300086D12000846
:10001000351300082F0500089B150008000000009C
:10002000000000000000000000000000971300081E
:10003000B909000800000000391300081115000874
:10004000AB010008AB010008AB010008AB010008E0
:10005000AB010008AB010008AB010008AB010008D0
:10006000AB010008AB010008AB010008AB010008C0
:10007000AB010008AB010008AB010008AB010008B0
:10008000AB010008AB010008AB010008AB010008A0
:10009000AB010008AB010008AB010008AB01000890
:1000A000AB010008AB010008AB010008AB01000880
:1000B000AB010008AB010008AB010008AB01000870
:1000C000AB010008AB010008AB010008AB01000860
:1000D000AB010008AB010008AB010008AB01000850
:1000E000BB090008AB010008AB01000800F002F8F2
:1000F00000F03FF80AA090E8000C82448344AAF183
:100100000107DA4501D100F034F8AFF2090EBAE880
:100110000F0013F0010F18BFFB1A43F0010318473B
:100120005C1500007C150000103A24BF78C878C127
:10013000FAD8520724BF30C830C144BF04680C60ED
:10014000704700000023002400250026103A28BF35
:1001500078C1FBD8520728BF30C148BF0B60704739
:10016000642900F07D80002070471FB51FBD10B5C9
:1001700010BD00F052F91146FFF7F7FF01F01EFA2B
:1001800000F070F903B4FFF7F2FF03BC00F078F958
:100190000948804709480047FEE7FEE7FEE7FEE71B
:1001A000FEE7FEE7FEE7FEE7FEE7FEE70448054957
:1001B000054A064B7047000099150008ED0000083D
:1001C0001001002010070020100300201003002061
:1001D0000FB41CB5074B06AA7B44694600900598EE
:1001E00000F003F90020694600F012F91CBC5DF82C
:1001F00014FB0000350200002DE9F0410E460446D4
:10020000002020622046E168884730B3252805D0C9
:10021000D4E901219047206A401CF2E7E1682046BA
:1002200000278847050018D0A5F14100192802D8F9
:1002300020354FF400673246294620462760FFF7F5
:100240008FFF40B1012804D0F61D26F007060836BE
:10025000D8E7361DD6E72846DAE7206ABDE8F08100
:100260002DE9F0410646002410687529314616A58F
:1002700010D0AFF30080002802DA404213A507E057
:1002800031688A0701D512A502E0490704D511A5F6
:10029000012401E0AFF3008000210A2206F12407C7
:1002A00009E0B0FBF2FCB0FBF2F302FB1C003030C3
:1002B00078541846491C0028F3D123462A46304674
:1002C000BDE8F04100F032B8000000002D00000051
:1002D0002B000000200000004FF0000200B5134684
:1002E00094469646203922BFA0E80C50A0E80C5056
:1002F000B1F12001BFF4F7AF090728BFA0E80C5007
:1003000048BF0CC05DF804EB890028BF40F8042BFF
:1003100008BF704748BF20F8022B11F0804F18BF6C
:1003200000F8012B70477047704770472DE9F04780
:100330000D4699469246044600F124080168880655
:1003400004D5E06921F01001216000E00120A842FD
:1003500001DD471B00E00027A1697A1902EB0900C3
:10036000081AA0612078C00602D42046AFF30080AE
:10037000002608E0D4E901211AF806009047206A17
:10038000401C761C20624E45F4DB2078C0060AD55E
:100390002046AFF3008006E0D4E9012130209047E9
:1003A000206A401C2062381EA7F10107F4DC07E038
:1003B000D4E9012118F805009047206A401C20620A
:1003C000281EA5F10105F3DC2046AFF3008020785C
:1003D000000602D50220BDE8F0870120FBE70000FF
:1003E00001694A1C02610878704700B58FB0CDE9F9
:1003F00001310021059105497944CDE903101146E9
:100400006846FFF7F9FE0FB000BD0000E5FFFFFFF3
:100410000A6802F8010B0A607047754600F02CF874
:10042000AE4605006946534620F00700854618B0E1
:1004300020B5FFF7BBFEBDE820404FF000064FF0AF
:1004400000074FF000084FF0000B21F00701AC4609
:10045000ACE8C009ACE8C009ACE8C009ACE8C00928
:100460008D46704710B50446AFF300802046BDE8C6
:100470001040FFF787BE000000487047AC00002026
:1004800001491820ABBEFEE726000200704701605C
:10049000828070472DE9F0470025044685710126CA
:1004A00006E02089401C20813046E67101F032F8D8
:1004B000204600F038F80028F3D0E07970B14FF40E
:1004C000967840F2B5374FF47A79204600F02BF851
:1004D000012806D0204600F026F8F0B10020BDE843
:1004E000F0876089401C6081012001F013F8608969
:1004F0004045EAD92089A0F13301B94205D8E57118
:1005000025816581A6713046E9E74845DDD9E57169
:10051000258165810320A071E1E70220A071E571CA
:1005200025816581DBE78188006800F07FBBFEE7FD
:100530002DE9F05F0446DDE91090DDE90C65DDE9A9
:100540000AC7DDE90EEB4FF00008DDF84CA084F897
:1005500000806170A2706360A4F808C0E760268222
:100560006563A4F838E0C4F83CB0A4F84090606437
:100570001298A4F84800C4F84CA01498A4F85000AD
:10058000282084F85500062084F852000C2084F8B6
:100590005300142084F85400322000F0BBFF0022E6
:1005A0003321204600F070F8052000F0B3FF002250
:1005B0003321204600F068F8052000F0ABFF002250
:1005C0003221204600F060F8052000F0A3FF94F8E7
:1005D00052100022204600F057F894F853100022E1
:1005E000204600F051F894F854100022204600F004
:1005F0004BF894F855100022204600F045F80022F0
:100600000121204600F040F82046BDE8F05F0022BE
:10061000022100F039B810B50178102901D029B1B4
:1006200008E00022012100F0A4F803E000220121EB
:1006300000F02AF8BDE81040052000F06BBF000074
:1006400008B510A31B68009343788B4201D85B1E4A
:10065000D9B28378934201D85B1EDAB21DF802202A
:1006600011440278C9B2102A06D0002A03D141F001
:10067000800100F009F808BD41F08001002200F07F
:1006800078F808BD0040145470B504460E090D46B4
:1006900012B1012A04D008E021890022606802E03A
:1006A00021890122606800F0CEFA218F606B06F08C
:1006B00001020C3400F0C7FAA18EC6F34002206B91
:1006C00000F0C1FAA18FC6F38002A06B00F0BBFA64
:1006D000B4F84410F208206C00F0B5FAA1880022AA
:1006E000206800F0B0FA012000F014FFA188012278
:1006F000206800F0A8FA012000F00CFFA188002279
:10070000206800F0A0FA012000F004FF05F00102CB
:10071000A18DA06A00F097FAA18EC5F34002206B6C
:1007200000F091FAA18FC5F38002A06B00F08BFA64
:10073000B4F84410C5F3C002206C00F084FAA1881C
:100740000022206800F07FFA012000F0E3FEA1887B
:100750000122206800F077FA012000F0DBFEA1887A
:100760000022206800F06FFABDE87040012000F020
:10077000D1BE70B50D46044612B1012A04D008E07E
:1007800021890022606802E021890122606800F06E
:100790005AFA218B606905F001020C3400F053FA1B
:1007A000A18AC5F34002206900F04DFAA18BC5F380
:1007B0008002A06900F047FAA18CC5F3C002206A4C
:1007C00000F041FAA18DC5F30012A06A00F03BFAD7
:1007D000A18EC5F34012206B00F035FAA18FC5F34E
:1007E0008012A06B00F02FFAEA09B4F84410206CD4
:1007F00000F029FAA1880022206800F024FA0120E4
:1008000000F088FEA1880122206800F01CFA012077
:1008100000F080FEA1880022206800F014FABDE8F4
:100820007040012000F076BE0278102A04D0002A21
:1008300005D10122FFF728BF0122FFF79ABF7047B9
:1008400070B50C46054603E02846641CFFF7ECFF34
:1008500021780029F8D170BD2DE9F04704461E46E5
:10086000924688460846089FFFF714FE012804D0E8
:10087000022812D0032844D126E025686D1E256089
:10088000B54204DBBD4201DD3E4600E02E46514646
:100890002046266000F052FD33E000252068401E0F
:1008A0002060B04201DA304602E0B84200DD38464E
:1008B00020605146204600F041FD322000F082F8D1
:1008C0006D1C022DEADD1CE000254FF00A0912E044
:1008D0002068401E2060B04201DA304602E0B84293
:1008E00000DD384620605146204600F027FD1420E8
:1008F00000F068F86D1CB8F80810B1FBF9F0A842D8
:10090000E6DA2068BDE8F0872DE9F04704461E4688
:10091000924688460846089FFFF7BCFD012804D090
:10092000022812D0032844D126E025686D1C2560DA
:10093000B54204DBBD4201DD3E4600E02E46514695
:100940002046266000F0FAFC33E000252068401CB9
:100950002060B04201DA304602E0B84200DD38469D
:1009600020605146204600F0E9FC322000F02AF8D1
:100970006D1C022DEADD1CE000254FF00A0912E093
:100980002068401C2060B04201DA304602E0B842E4
:1009900000DD384620605146204600F0CFFC142090
:1009A00000F010F86D1CB8F80810B1FBF9F0A8427F
:1009B000E6DA2068BDE8F08770474FF4006000F089
:1009C00039B8000070B5044600F042F90546601CD5
:1009D00002D004480078044400F03AF9401BA042D9
:1009E000FAD370BD0800002030B585B0B0F5006FB7
:1009F00017D10D4C2078C043207001210B4800F026
:100A00001AF9251D0AE06078094BCDE9000503F1CC
:100A1000580202F1300102A800F0BEFC2078002844
:100A2000F1D105B030BD00000000002000080140F9
:100A300018000020044910B50A68024202D008607C
:100A4000FFF7D2FF10BD0000140401402DE9F84F5C
:100A5000DFF8B8910024A9F1040B23460F2709F110
:100A6000040AABF1040EC9E00125A5402A40AA42C0
:100A70007DD1674ED1F804C0ACEB0608B44532D046
:100A800014DCBCF1030F3AD009DCBCF1000F2AD012
:100A9000BCF1010F1CD0BCF1020F31D11DE0BCF143
:100AA000110F17D0BCF1120F2AD119E0B8F5881F29
:100AB00019D006DCB8F5803F15D0B8F5801F1FD1DE
:100AC00011E0B8F5001F0ED0B8F5041F18D10AE0E8
:100AD000CB6815E0CB681B1D12E0CB6808330FE034
:100AE000CB680C330CE08B682BB1012B4FF0080363
:100AF00003D0456104E0042302E0056100E0002327
:100B0000FF2A01D8064601E000F104064FEA8405F9
:100B100001D9A5F12005D6F8008007FA05FC28EADE
:100B20000C0803FA05F548EA0508C6F800804D6888
:100B3000ED0062D5374DAE6946F00106AE61AD6994
:100B400024F0030605F001050095334D06EB050C76
:100B5000DCF80850A607360F07FA06F825EA08055C
:100B6000DFF8B880404503D14FF0000817E044E0BB
:100B7000DFF8AC80404502D14FF001080FE0DFF80C
:100B8000A480404502D14FF0020808E0DFF89880C9
:100B9000404502D14FF0030801E04FF0040808FA85
:100BA00006F848EA0508CCF808804D68D9F80060D6
:100BB000ED024D4601D5164300E096432E604D6888
:100BC000DAF80060AD02554601D5164300E09643C1
:100BD0002E604D68DBF80060AD035D4601D516431D
:100BE00000E096432E604D68DEF80060ED03754628
:100BF00001D5164300E096432E60641C0D682A461A
:100C0000E5407FF431AFBDE8F88F000008040140F3
:100C100000001110001002400000014000080140D7
:100C2000000C0140001001400014014080680840A1
:100C300000D001207047C26821EA02030A4043EA5B
:100C40000241016170470AB1016170470904FBE785
:100C50000148806870470000080000200248816851
:100C6000027811448160704708000020074810B5E1
:100C7000016841F010010160032000F075F80F20B9
:100C800000F006F800F024F8002010BD002002401B
:100C900070B50D4D04464FF47A712878B1FBF0F031
:100CA0000A490968B1FBF0F000F0CCFA48B9102C01
:100CB00007D200222146501E00F036F800206C605A
:100CC00070BD012070BD000008000020140000204D
:100CD0000C4808B5816941F001018161816901F029
:100CE00001010091C16941F08051C161C06900F00A
:100CF000805000900448416821F0E06141F00071AB
:100D0000416008BD0010024000000140002809DBDE
:100D100000F01F02012191404009800000F1E02015
:100D2000C0F8001170470000F0B40E4B1B680C4671
:100D3000C3F30223C3F10705042D00D90425191DAF
:100D4000072901D2002300E0DB1E012606FA05F187
:100D5000491E214099409E40761E16403143F0BC0A
:100D600000F01CBC0CED00E0064900F0070208682A
:100D70004FF6FF03184040EA0220034A1043086080
:100D8000704700000CED00E00000FA05064802681C
:100D900022F004020260012903D040BF20BF20BF1F
:100DA000704730BF7047000010ED00E02DE9F047BC
:100DB0000F46050061D0434E306800F00700B8428E
:100DC00009D2306820F0070038433060306800F006
:100DD0000700B84251D128683B4C810712D5400723
:100DE00003D5606840F4E06060602878000703D5B0
:100DF000606840F4605060606068A96820F0F000AE
:100E0000084360602878C00728D06868012810D09F
:100E10002168022810D0890700292EDA616821F0A4
:100E2000030101436160FFF713FF804641F28839F7
:100E30000DE021688903EFE78901EDE7FFF708FF7F
:100E4000A0EB0801494502D90320BDE8F08760689E
:100E5000696800F00C00B0EB810FEFD1306800F052
:100E60000700B8420BD9306820F0070038433060E3
:100E7000306800F00700B84201D00120E5E728788B
:100E8000400705D56068E96820F4E06008436060C9
:100E90002878000706D56068296920F4605040EA88
:100EA000C100606000F018F86168084AC1F30311DE
:100EB000515CC8400649086006480068FFF7E8FE34
:100EC0000020C2E700200240001002406A1600081D
:100ED000140000200C0000200E4A51680E4801F05A
:100EE0000C03042B11D0082B0FD10C48C1F3834302
:100EF000C903C05C0AD55168084AC1F34041921E3B
:100F0000515C054A5043B0FBF1F070470449484337
:100F1000704700000010024000127A005A160008C4
:100F200000093D002DE9F84F040070D02078C04D35
:100F3000C00749D06868C0F38100012807D06868FD
:100F4000C0F38100022809D16868C00306D528686B
:100F5000800339D560680028E7D035E06068B0F5D7
:100F6000803F0BD010B1B0F5A02F11D0286820F42D
:100F700080302860286820F4802002E0286840F44F
:100F800080302860606890B1FFF762FE06460AE094
:100F9000286840F480202860F0E700BFFFF758FE83
:100FA000801B642873D828688003F7D50CE0FFF70E
:100FB0004FFE064605E000BFFFF74AFE801B64288F
:100FC000F0D828688003F7D420789A4E80074FF035
:100FD00001094FF0000839D5686810F00C0F07D0F0
:100FE0006868C0F38100022809D16868C00306D48C
:100FF0002868800714D52069012808D110E02069ED
:10100000B0B1C6F80090FFF723FE074605E00AE1FD
:10101000FFF71EFEC01B0228C4D828688007F7D53A
:101020002868616920F0F80040EAC10028600DE0FE
:10103000C6F80080FFF70CFE074604E0FFF708FE45
:10104000C01B022823D828688007F7D4207800071F
:101050002CD57948A169D9B1C0F80090FFF7F8FD07
:10106000074604E0FFF7F4FDC01B02280FD8686AAA
:101070008007F7D571484FF4FA510068B0FBF1F0E2
:10108000009000BF0098411E0091FAD20EE080E06F
:10109000C0F80080FFF7DCFD074604E0FFF7D8FD4D
:1010A000C01B022875D8686A8007F7D420784007EB
:1010B00060D5E8690027C00008D4E86940F0805096
:1010C000E861E869012700F0805000905C48016801
:1010D000C90513D40168834641F480710160FFF7AC
:1010E000B7FD824606E000BFFFF7B2FDA0EB0A00A5
:1010F00064284ED8DBF80000C005F5D5E06801286B
:101100000AD008B1052813D0286A20F0010028620F
:10111000286A20F0040002E0286A40F001002862FA
:10112000E06841F2883B98B1FFF792FD82460BE000
:10113000286A40F004002862EEE700BFFFF788FD50
:10114000A0EB0A0159455AD8286A8007F6D50CE069
:10115000FFF77EFD824605E0FFF77AFDA0EB0A016E
:1011600059454CD8286A8007F6D41FB1E86920F0A9
:101170008050E861E06988B36968C1F381010229A0
:1011800044D00228C6F8608004D0FFF761FD044611
:1011900038E034E0FFF75CFD074604E0FFF758FD58
:1011A000C01B02282BD828688001F7D4206AB0F52C
:1011B000803F05D16868A16820F40030084368606A
:1011C000D4E908010843696821F474110843686090
:1011D000C6F86090FFF73CFD044606E025E000BF3E
:1011E000FFF736FD001B022809D828688001F7D5D3
:1011F0001BE000BFFFF72CFD001B022802D90320D3
:10120000BDE8F88F28688001F4D40EE00128F7D0FB
:101210006868226A00F48031914204D1616A00F466
:101220007010884201D00120EAE70020E8E70000C2
:10123000001002400000424280044242140000209C
:101240000070004010B5401EB0F1807F01D3012036
:1012500010BD4FF0E02460610F21601700F09EF98F
:101260000020A06107202061002010BDFEE70000E3
:101270002DE9F04385B000242A480094019402949B
:101280000394816941F004018161816901F00401E5
:101290000491816941F0080181618069DFF88880EB
:1012A00000F0080041F601750490002229464046EE
:1012B000FFF7C9FCDFF874904FF40047002239466D
:1012C0004846FFF7C0FC0095022601250396CDE9AC
:1012D000015469464046FFF7B9FBE8020090144804
:1012E000CDE9010569464846FFF7B0FB4FF4E04001
:1012F0008DE8310069464846FFF7A8FB0097039642
:10130000CDE9015469464846FFF7A0FB002211468B
:101310002820FFF709FD2820FFF7F8FC05B0BDE8FD
:10132000F08300000010024000080140000C014062
:1013300000002110FEE7FEE77047000038B50C46BC
:10134000026807A16846FEF743FF012205212046F7
:10135000FFF776F969462046FFF772FA38BD0000BC
:101360002564000070B5054614460846FFF792F85C
:101370000028206801D0401C2060032190FBF1F27E
:1013800001FB12002060002804D0012802D00228AE
:1013900000D0284670BD70472DE9FC5F15460C460D
:1013A000824605F118019B460D9A01910C98FFF7B2
:1013B000D9FF010005F10C0905F1240832D00129FB
:1013C00002D002292DD158E05846FFF724F9002217
:1013D00011465846FFF734F941A15846FFF730FA55
:1013E000642704F1080659463046FFF7A7FF00239B
:1013F0005A46494630460097FFF72EFA00235A46D0
:10140000294630460097FFF77FFADDE90C02019983
:10141000FFF7A8FF01285BD14046FFF73BF8002803
:10142000E1D055E05846FFF7F6F80022114658463D
:10143000FFF706F92EA15846FFF702FA282659466B
:10144000201DFFF77BFF0A235A464946201D0096C0
:10145000FFF702FA0A235A462946201D0096FFF795
:1014600053FADDE90C020199FFF77CFF80BB40468F
:10147000FFF710F80028E2D02AE05846FFF7CBF833
:10148000002211465846FFF7DBF81DA15846FFF72A
:10149000D7F93C2659462046FFF750FF01235A460C
:1014A000494620460096FFF7D7F901235A462946B8
:1014B00020460096FFF728FADDE90C020199FFF7B4
:1014C00051FF022804D14046FEF7E4FF0028E1D096
:1014D00094E80E00CAE90012CAF80830BDE8FC9F83
:1014E00048756D69646974792825293A00000000FF
:1014F00054656D70657261747572652843293A0090
:1015000054696D65286D696E757465293A0000002F
:10151000FFF7A4BB0B494FF47A720968B1FBF2F2F2
:101520004FF0E0214A6100228A6105220A6100220F
:1015300004E00B69DB03FCD5521C92B28242F8D363
:10154000704700001400002010B590B028216846B4
:10155000FEF7C2FE14210AA8FEF7BEFE022000908C
:101560000120049010200024059007946846FFF79E
:10157000D9FC08B172B6FEE70F20CDE90A040C943D
:101580000D9400210AA80E94FFF710FC002801D04A
:1015900072B6FEE710B010BD7047FEE70907090EEE
:1015A000002804DB00F1E02080F80014704700F010
:1015B0000F0000F1E02080F8141D70478CB0FFF799
:1015C00055FBFFF7C1FFFFF753FE204C4FF40052CD
:1015D00021461F48FEF75BFF1D48A5142A462146F9
:1015E0000C38FEF754FF1A48AA0021460C30FEF7CB
:1015F0004EFF1748E614324621461830FEF747FFE3
:101600002015144F4110CDE90771CDE90970801004
:10161000CDE90570C1010296CDE903410C48CDE941
:1016200000573B46022210216438FEF781FF4FF439
:101630007A7401213846FFF7FEFA01210846FFF7C8
:10164000A5FB2046FFF766FFF3E70000000C014012
:101650007C00002000080140010202030405060787
:1016600008090A0B0C0D0E0F1010000000000000FE
:101670000000010203040607080900009C16000888
:10168000000000201800000028010008B41600081F
:1016900018000020F80600004401000800000000C7
:1016A0000000000001000000100000000000000029
:0416B0000024F4001E
:04000005080000ED02
:00000001FF
